:020000040800F2
:10000000D84E002029030008AB2700080F23000862
:10001000A92700088305000825310008000000001A
:10002000000000000000000000000000690200085D
:100030005906000800000000C50200085F290008FA
:100040004303000843030008430300084303000878
:100050004303000843030008430300084303000868
:100060004303000843030008430300084303000858
:100070009D050008430300084303000843030008EC
:100080004303000843030008430300084303000838
:1000900085050008430300084303000843030008E4
:1000A0004303000843030008430300084303000818
:1000B0004303000843030008430300084303000808
:1000C00043030008430300084303000843030008F8
:1000D000430300084303000843030008713000088D
:1000E00043030008430300084303000843030008D8
:1000F00043030008430300084303000843030008C8
:1001000043030008430300084303000843030008B7
:1001100043030008430300084303000843030008A7
:100120004303000843030008A9050008430300082F
:100130004303000843030008430300084303000887
:100140009105000843030008430300084303000827
:100150004303000843030008430300084303000867
:100160004303000843030008430300084303000857
:100170004303000843030008430300080000000095
:10018000430300084303000800F002F800F05CF8A5
:100190000AA090E8000C82448344AAF10107DA45E2
:1001A00001D100F051F8AFF2090EBAE80F0013F0D8
:1001B000010F18BFFB1A43F00103184780590000D4
:1001C000A05900000A444FF0000C10F8013B13F056
:1001D000070408BF10F8014B1D1108BF10F8015BA0
:1001E000641E05D010F8016B641E01F8016BF9D193
:1001F00013F0080F1EBF10F8014BAD1C0C1B09D1EA
:100200006D1E58BF01F801CBFAD505E014F8016B5B
:1002100001F8016B6D1EF9D59142D6D370470000ED
:100220000023002400250026103A28BF78C1FBD8FF
:10023000520728BF30C148BF0B6070471FB505F09B
:1002400019FC1FBD10B510BD00F061F91146FFF794
:10025000F5FF04F079F800F07FF903B4FFF7F2FF3F
:1002600003BC00F087F900002C4B19680868B0E85F
:10027000F04F80F30988BFF36F8F4FF0000080F3D9
:10028000118870470000000008480068006880F38B
:1002900008884FF0000080F3148862B661B6BFF39F
:1002A0004F8FBFF36F8F00DF00BF00BF08ED00E08E
:1002B000DFF80C00016841F470010160704700BF75
:1002C00088ED00E0EFF30980BFF36F8F134B1A68DE
:1002D0001EF0100F08BF20ED108A20E9F04F1060CB
:1002E00009B44FF0500080F31188BFF34F8FBFF374
:1002F0006F8F04F08FFD4FF0000080F3118809BC70
:1003000019680868B0E8F04F1EF0100F08BFB0EC95
:10031000108A80F30988BFF36F8F70472401002093
:10032000EFF30580704700000948804709480047FF
:10033000FEE7FEE7FEE7FEE7FEE7FEE7FEE7FEE795
:10034000FEE7FEE704480549054A064B70470000F2
:100350000D2A000889010008D8480020D84E002046
:10036000D84A0020D84A002053EA020C00F06980E5
:100370002DE9F04B4FF00006002B1FBFB3FA83F5B9
:1003800003FA05F424FA05F65E4012BF1643B2FAEA
:1003900082F502FA05F4C5F120051EBF22FA05FC1C
:1003A00044EA0C04203556EA044C4FEA144418BFC2
:1003B000641C4FF000084FF00009904271EB030CF1
:1003C00039D3002919BFB1FA81F701FA07F6B0FA5B
:1003D00080F700FA07F6C7F120071EBF20FA07FCD6
:1003E00046EA0C062037B6FBF4FCA7EB0507103FE6
:1003F00007F01F0BCBF120060CFA0BFB2CFA06F6CC
:1004000044BFB3460026202FA4BF5E464FF0000B2A
:100410005BEA060C08BF4FF0010B19EB0B09ABFBB5
:10042000027C48EB0608C01B06FB02CC0BFB03CC8E
:1004300071EB0C01C1E70B46024641464846BDE858
:10044000F08B13B54FF000004FF00001AFF30080C8
:10045000BDE81C40704710B5203AC0F00B80B1E8F1
:100460001850203AA0E81850B1E81850A0E81850E9
:10047000BFF4F5AF5FEA027C24BFB1E81850A0E8F2
:10048000185044BF18C918C0BDE810405FEA827C0C
:1004900024BF51F8043B40F8043B08BF7047D20723
:1004A00028BF31F8023B48BF11F8012B28BF20F8C4
:1004B000023B48BF00F8012B70474FF0000200B527
:1004C000134694469646203922BFA0E80C50A0E877
:1004D0000C50B1F12001BFF4F7AF090728BFA0E825
:1004E0000C5048BF0CC05DF804EB890028BF40F8F1
:1004F000042B08BF704748BF20F8022B11F0804F33
:1005000018BF00F8012B7047704770477047754659
:1005100000F02CF8AE4605006946534620F007006F
:10052000854618B020B5FFF70DFFBDE820404FF01D
:1005300000064FF000074FF000084FF0000B21F0CD
:100540000701AC46ACE8C009ACE8C009ACE8C0099A
:10055000ACE8C0098D46704710B50446AFF3008083
:100560002046BDE81040FFF778BE00000048704705
:100570007848002001491820ABBEFEE726000200A3
:100580007047FEE7014800F0E6B90000E0030020F4
:10059000014800F0E0B9000008040020014800F024
:1005A00057BD0000A4050020014800F051BD000027
:1005B0004405002001681823CAB2103AB2FBF3F2D6
:1005C000054B6FF30901032A9B5CC36500D9091D24
:1005D0008165084670470000F85A000810B50146CA
:1005E00000208B698A6A4FF0C07453B1B3F5005F85
:1005F00015D072B1012A0CD0022A0AD0032A09D1DF
:1006000004E01AB1012A06D0022A03D1C96AC9013D
:1006100000D5012010BDC96AA142FAD010BD002A40
:10062000F7D0012AF2D0022AF3D0032AF3D010BD6A
:1006300030B50468256825F480252560046863606A
:100640008368402B036803D099600068C26030BDA6
:100650009A600068C16030BD704772B6FEE790F8DE
:100660002020012A07D0022A05D0416A41F48021C6
:10067000416201207047006842690A4342610020DC
:100680007047F0B590F820500468A468012D05D09B
:10069000022D03D0416A41F480215DE014F0406FE7
:1006A00001D1E50055D5C4F30164022C03D9416A98
:1006B00041F4000150E00125A5401D608D684FF414
:1006C000C0739DB1CE6835434E6845EAC6050668DD
:1006D00003EB0417F5514FF4C275076805EB0415D9
:1006E0000E697E51097D012905D009E00E88CD688B
:1006F00045EA4655EBE701684E5946F480764E517F
:100700001179D579567941EA056195792D0445EA43
:10071000062529434FF4C676056806EB0416A95151
:100720001178D57841EA0561957852782D0445EA2B
:10073000022211434FF4C475026805EB04155151B0
:10074000006803EB0411425842F0010242500020BD
:10075000F0BD416A41F4001141620120F0BD00008A
:1007600010B590F82020012A07D0022A05D0416A4E
:1007700041F480214162012010BD3B48D0F80022A5
:1007800042F00102C0F80022D0F8002222F47C528C
:10079000C0F80022D0F800224B6A42EA0322C0F8D7
:1007A00000220A7D02F01F0301229A40D0F81C3279
:1007B0009343C0F81C32CB69B3B9D0F80C329343E1
:1007C000C0F80C328C894B6864F31F434C6900EB12
:1007D000C404C4F840320C890B6864F31F434C69AD
:1007E00000EBC404C4F84432CB69012B16D1D0F815
:1007F0000C321343C0F80C320C884B6864F31F436F
:100800004C6900EBC404C4F840320C89CB6864F333
:100810001F434C6900EBC404C4F844328B69002BBD
:10082000D0F804320ED01343C0F804320B69002B09
:10083000D0F8143208D01343C0F81432096A0129E1
:1008400004D008E09343EFE79343F5E7D0F81C1298
:100850001143C0F81C12D0F8001221F00101C0F8B9
:100860000012002010BD000000640040704730B549
:1008700090F82040012C05D0022C03D0416A41F4AD
:1008800080215DE00468002955D02469A40754D074
:100890004FF4D874056804EB01142D5915F00405C4
:1008A000956005682D594ED0ED08556005682C59A6
:1008B00004F00204D4604FF4DA74056804EB011408
:1008C0002D5905F00F05156105682D59C5F307254C
:1008D000956105682C59240C54614FF4DC7204684E
:1008E00002EB0112A4581C700468A458240A5C701E
:1008F0000468A458240C9C700468A258120EDA7084
:100900004FF4DE72046802EB0112A4581C710468F3
:10091000A458240A5C710468A458240C9C710468CF
:10092000A258120EDA71006881B1016941F020010C
:100930000161002030BDE468A8E7416A41F400117C
:100940004162012030BD6D0D1560AFE7C16841F017
:100950002001C160EDE72DE9F05F05460068002445
:100960004669D0F804908768D0F80CB0D0F810A091
:10097000D0F81880F10748D0F90714D00121816020
:10098000B80703D5284600F05CFB0CE0780702D5D9
:100990004FF4006407E0380702D54FF4805402E0BA
:1009A000284600F04DFBF80516D529684FF48070F5
:1009B0008860B80503D5284600F045FB0CE07805B3
:1009C00002D544F4005407E0380502D544F48044CD
:1009D00002E0284600F036FBF80316D529684FF4EC
:1009E00080308860B80303D5284600F02EFB0CE069
:1009F000780302D544F4004407E0380302D544F4F8
:100A0000803402E0284600F01FFB300707D55FEA7C
:100A1000CB6004D52968102044F40074C8607007C6
:100A20004FF0080707D55FEA0B7004D52868C76048
:100A3000284600F099F9B00706D52868C0688007F5
:100A400002D0284600F092F9700607D55FEACA6026
:100A500004D52968102044F480640861B00607D5E5
:100A60005FEA0A7004D528680761284600F0B8FAE2
:100A7000F00606D528680069800702D0284600F0F5
:100A8000B0FAB00308D55FEAC96005D5296810201F
:100A90004860284600F0A6FAF00307D55FEA09701F
:100AA00004D528684760284600F0D0FA300446D5BF
:100AB0005FEA497040D5F00504D55FEAC87001D0FF
:100AC00044F00104B00504D55FEA887001D544F014
:100AD0000204700504D55FEA487001D544F00404AF
:100AE000300529D518F0700F26D008F07000402886
:100AF00015D006DC102809D020280AD0302816D1BD
:100B00000AE050280ED0602811D10EE044F008040D
:100B10000DE044F010040AE044F0200407E044F043
:100B2000400404E044F0800401E044F48074286848
:100B3000816921F070018161296804204860002CDE
:100B400005D0686A204368622846FFF78FFEBDE83B
:100B5000F09F70B5040003D094F8200010B104E0B9
:100B6000012070BD204600F081F82068016841F046
:100B70000101016000F0E0FC0546052604E000F0FC
:100B8000DBFC401B0A2811D820684068C007F6D05B
:100B90002068016821F00201016000F0CDFC0546EB
:100BA0000BE000F0C9FC401B0A2806D9606A40F43B
:100BB0000030606284F82060D2E7206840688007D7
:100BC000EFD4207E0128206801683DD021F080010B
:100BD0000160607E01282068016838D021F0400162
:100BE0000160A07E01282068016833D021F0200137
:100BF0000160E07E0128206801682ED041F01001DC
:100C00000160207F01282068016829D021F00801B7
:100C10000160607F01282068016824D021F0040170
:100C20000160D4E902010843D4E9041211430843E6
:100C30006168491E08432168C86100206062012084
:100C400084F82000002070BD41F08001C0E741F031
:100C50004001C5E741F02001CAE721F01001CFE7CC
:100C600041F00801D4E741F00401D9E7F0B587B0BD
:100C7000044614216846FFF720FC364B3648DFF85F
:100C8000D0E01968D4F800C0334A032502260927AA
:100C900010300024491CF44522D11960012907D1E4
:100CA000016841F000710160006800F0007005907B
:100CB000106840F0080010601068CDE9005600F0A0
:100CC0000800CDE9047069462448CDE9024500F0EA
:100CD00031FB00220521142000F0A0FC142032E09A
:100CE000DFF87CE0F44530D1D0F800C04CF0806CE7
:100CF000C0F800C0D0F800C001290CF0806CCDF81D
:100D000014C0196007D1016841F0007101600068EA
:100D100000F000700590106840F00200106010684C
:100D200002AB00F0020005906020CDE9000683E8E8
:100D3000B00069460B4800F0FDFA00220521402072
:100D400000F06CFC402000F05BFC07B0F0BD000040
:100D5000006400401000002030380240000C0240C7
:100D60000068004000040240704700002DE9F04197
:100D700007469548954C4FF000082DED028B8AB040
:100D8000B0F90210B0F9000081420BD0012909D15D
:100D90000020414600EB400204EB8202401C5181DE
:100DA0000828F7DB6B4602AA00213846FFF75FFDF3
:100DB0008549874841F288356E42891F87424FD165
:100DC0000298A0F50072013A06D0012A2ED0022A1C
:100DD0002CD0032A44D129E0042008707B4AB4F9BE
:100DE000303002F130001387BDF8002052BA22865D
:100DF000BDF802C0D21A9CFA9CFCA0F802C0BDF853
:100E000004C0AA429CFA9CFCA0F804C09DF806C04D
:100E100080F806C003DD6D4B5B8F5B1E4381B242E1
:100E20001EDA6A4A528F521C428119E0C01CC0B2BD
:100E3000487000EB400204EB820034F8223003815A
:100E4000BDF800305BBA24F82230BDF8022052BA57
:100E50004280BDF8042052BA82809DF8062082713B
:100E60005C48874274D1594F6C379FED5B8B029B76
:100E7000A3F20123062B6BD2DFE803F003232351F7
:100E80008A6F81F80280B4F900202281BDF8000049
:100E900040BA2080BDF80270821A7FBA6780BDF820
:100EA0000470AA427FBAA7809DF80670A77102DD80
:100EB00067897F1E67812046B24202DA4289521C4E
:100EC0006281D8B2C87000EB400204EB820034F8B3
:100ED00022700781BDF800707FBA24F82270BDF837
:100EE00002707FBA4780BDF804707FBA87809DF892
:100EF0000670877134F82270B0F908C0A7EB0C07B0
:100F0000AF4202DD45896D1E458134F82220B0F9DB
:100F10000850521BB24202DA4289521C4281D8B2B6
:100F2000087100EB400104EB810034F821200281BC
:100F3000BDF8002052BA24F82120BDF8021049BAA9
:100F40004180BDF8041049BA81809DF80610817176
:100F50000AB0BDEC028BBDE8F081BDF8040040BAD8
:100F6000F8809DF803003871BDF8010078809DF885
:100F70000010397001EB002000B2388104F068FBEA
:100F800053EC182B04F00CFA04F030F9F860DFE7AA
:100F9000BDF8040040BAF8829DF803003875BDF82A
:100FA000010078829DF80010397401EB002000B236
:100FB000388304F04DFB53EC182B04F0F1F904F0E6
:100FC00015F9F861C4E700001C0000208C06002021
:100FD000E0030020080400200000000000408F40D3
:100FE000704770477047000070B5044690F82000C5
:100FF000012804D0606A40F40020606218E00220FA
:1010000084F820002068016821F00101016000F0EF
:1010100093FA05460EE000BF00F08EFA401B0A2846
:1010200008D9606A40F400306062052084F820002E
:10103000012070BD20684068C007EDD1606270BDBE
:10104000704770477047704770477047704700009F
:101050002DE9F84304464FF00009CDF800906348AD
:101060004FF41651A56D0068B0FBF1F72E6894F8A7
:101070005C10082000FA01F131420FD021680A68A3
:1010800052070BD50A6822F004020A6094F85C103B
:101090008840A860606D40F00100606594F85C10C5
:1010A0004FF0010808FA01F0304208D02168496980
:1010B000090604D5A860606D40F00200606594F8F0
:1010C0005C1004208840304208D0216809688907F4
:1010D00004D5A860606D40F00400606594F85C1071
:1010E00010208840304218D021680968090714D5BB
:1010F000A86020680168490304D50068000308D58A
:10110000A16C07E00168C90503D4016821F008015A
:101110000160216C09B12046884794F85C102020BA
:101120008840304231D021680968C9062DD5A860B1
:1011300094F8350005282068016806D0490347D592
:10114000006800031DD4616C1CE021F016010160F1
:101150002068416921F080014161206C08B9A06CD0
:1011600020B12068016821F00801016094F85C104A
:101170003F208840A86084F8358084F83490216D41
:101180001FE0E16B09B120468847606D00282BD035
:10119000606DC00714D0052084F835002068016810
:1011A00021F0010101600098401C0090B84203D872
:1011B00020680068C007F6D184F8358084F8349040
:1011C000E16C002910D001B02046BDE8F04308478B
:1011D0000168C905D5D4016821F01001016084F8C7
:1011E000358084F83490CCE7BDE8F88320010020F6
:1011F0002DE9F041044600F09FF906465CB102205B
:1012000084F83500002584F834502068016821F006
:10121000010101600DE00120BDE8F08100F08CF9D2
:10122000801B052805D920206065032084F835003F
:10123000F2E720680068C007F0D1226811682048F2
:101240000140D4E901031843D4E90336334318437A
:1012500063691843A3691843E3691843236A184371
:101260000843616A042903D1D4E90B1319430843E5
:10127000106020684069666A20F0070130460E431E
:10128000012704280CD1A06A0643E06A40B1204639
:10129000FFF7A4F920B14020606584F83570BAE703
:1012A000206846612046FFF785F994F85C203F21CD
:1012B00091408160656584F835700020ACE70000DE
:1012C0003F8010F02DE9F0410446866D90F834001F
:1012D000002501280DD0012084F8340094F83570E1
:1012E0000020012F07D084F8340002252846BDE8ED
:1012F000F0810220FBE7022784F835706065204604
:10130000FFF796F994F85C103F208840B0602068A1
:10131000016841F016010160206C20B1206801686D
:1013200041F0080101602068016841F0010101609D
:10133000DCE700002DE9F84FDFF8BCA10022012511
:101340000AF1040B03264FF00F090BF1040E00BF46
:101350000B6805FA02F42340A34270D10F7907F01D
:101360000307012F01D0022F16D187684FEA4208E8
:1013700006FA08FC27EA0C07D1F80CC00CFA08FCA6
:101380004CEA070CC0F808C04768A7430C79C4F3BF
:10139000001494403C4344600C79E443A4070AD011
:1013A000C4684FEA420C06FA0CF7BC438F6807FA90
:1013B0000CF72743C7600C7904F00304022C12D108
:1013C000D40800EB840CDCF820405707FF0E09FA24
:1013D00007F824EA0804D1F8108008FA07F848EA68
:1013E0000408CCF8208004684FEA420C06FA0CF797
:1013F000BC430F7907F0030707FA0CF72743076090
:101400004C6814F4403F70D03C4C276847F4804748
:101410002760246822F0030704F480440094384CC9
:1014200007EB040CDCF8084897074FEA177809FA2D
:1014300008F7BC43334FB84202D1002724E054E000
:10144000314FB84201D101271EE0304FB84201D1DF
:10145000022719E02E4FB84201D1032714E02D4F87
:10146000B84201D104270FE02B4FB84201D1052724
:101470000AE02A4FB84201D1062705E0284FB842BA
:1014800001D1072700E0082707FA08F72743CCF81F
:101490000878DAF800405746D1F804C09C435FEA68
:1014A000CC3C00D51C433C60DBF800405F46D1F8E3
:1014B00004C09C435FEA8C3C00D51C433C60DEF8D2
:1014C00000407746D1F804C09C435FEACC2C00D59D
:1014D0001C433C60084F0C373C68D1F804C09C4367
:1014E0005FEA8C2C00D51C433C60521C102AFFF490
:1014F0002FAFBDE8F88F0000003C014044380240A7
:101500000030014000000240000402400008024098
:10151000000C02400010024000140240001802407B
:10152000001C02400069084000D0012070470AB149
:10153000816170470904FBE701488068704700003B
:1015400014010020024881680278114481607047CC
:10155000140100200B4810B5016841F400710160CE
:10156000016841F480610160016841F480710160AB
:10157000032000F073F80F2000F006F800F024F8C4
:10158000002010BD003C024070B50D4D04464FF4E4
:101590007A712878B1FBF0F00A490968B1FBF0F0E4
:1015A00000F010FB48B9102C07D200222146501E33
:1015B00000F034F800206C6070BD012070BD0000A8
:1015C00014010020200100200C4882B0016841F481
:1015D00080410160006800F4804000900748001FCF
:1015E000016841F0805101600068002200F08050E5
:1015F00000900F21901E02B000F010B84438024055
:10160000002809DB00F01F02012191404009800001
:1016100000F1E020C0F8001170470000F0B40E4B5C
:101620001B680C46C3F30223C3F10705042D00D940
:101630000425191D072901D2002300E0DB1E012625
:1016400006FA05F1491E214099409E40761E16403B
:101650003143F0BC01F067BD0CED00E0064900F03D
:10166000070208684FF6FF03184040EA0220034AC9
:1016700010430860704700000CED00E00000FA0520
:101680002DE9F0470E46050065D0DFF81481D8F843
:101690000000F7B200F00700B04207D288F80070EF
:1016A000D8F8000000F00700B04254D128683D4C43
:1016B000810712D5400703D5206840F4E050206030
:1016C0002878000703D5206840F460402060206837
:1016D000A96820F0F000084320602878C0072DD0CA
:1016E000304968680839012812D0022813D003282D
:1016F00011D00968890700292DDA216821F003013A
:1017000001432160FFF718FF814641F2883A0EE05D
:1017100009688903EFE709688901ECE7FFF70CFF27
:10172000A0EB0901514502D90320BDE8F0872068EC
:10173000696800F00C00B0EB810FEFD1D8F8001011
:10174000404601F00701B14207D90770006800F078
:101750000700B04201D00120E7E72878400705D50F
:101760002068E96820F4E0500843206028780007EA
:1017700006D52068296920F4604040EAC100206055
:1017800000F038F82168084AC1F30311515CC840E1
:101790000649086006480068FFF7F6FE0020C4E727
:1017A000003C024008380240005B00082001002095
:1017B000180100200448054900680968044AC1F37B
:1017C0008221515CC8407047200100200838024047
:1017D000105B00080448054900680968044AC1F321
:1017E0004231515CC8407047200100200838024057
:1017F000105B0008154810B5006810F00C02144882
:1018000013D01449042A0FD0082A0ED10F4C241FDC
:101810002268236802F03F025B0207D52068C0F30C
:101820008810A0FB010106E0084610BD2168C1F345
:101830008811A1FB00010023FEF796FD2168C1F38A
:101840000141491C4900B0FBF1F010BD08380240CD
:101850000024F400001BB7002DE9F84F04006ED0FF
:101860002078DFF84C93C007A9F104054AD009F1AC
:1018700004000168C1F38101012908D00068C0F3A8
:10188000810002280AD1D9F80000400206D5286854
:10189000800337D560680028E1D033E06068B0F598
:1018A000803F10D0B0F5A02F286810D020F48030F1
:1018B0002860286820F4802028606068A8B1FFF7BD
:1018C0003BFE06460DE0286840F48030F4E740F423
:1018D00080202860F7E700BFFFF72EFE801B6428FA
:1018E00073D828688003F7D50CE0FFF725FE06467D
:1018F00005E000BFFFF720FE801B6428F0D82868B1
:101900008003F7D42078DFF8AC8280074FF0000A1C
:101910003ED5A748001D016811F00C0F08D00068E3
:10192000C0F3810002280BD1D9F80000400207D48F
:101930002868800716D5E068012800D112E033E15D
:10194000E068B8B10120C8F80000FFF7F5FD0646D1
:1019500005E000BFFFF7F0FD801B0228C0D8286813
:101960008007F7D52868216920F0F80040EAC10017
:1019700028600DE0C8F800A0FFF7DEFD064604E091
:10198000FFF7DAFD801B02281FD828688007F7D4EC
:101990002078000722D5864F87486169703771B17A
:1019A00001210160FFF7C8FD064604E0FFF7C4FD12
:1019B000801B022809D838688007F7D50EE0C0F8E8
:1019C00000A0FFF7B9FD064605E082E0FFF7B4FD91
:1019D000801B02287DD838688007F7D4207840071C
:1019E00068D5DFF8CCB100270BF13C0BDBF8000029
:1019F000C0000BD4DBF8001041F08051CBF8001090
:101A0000DBF80000012700F0805000906B4E30683A
:101A1000C00510D4306840F480703060FFF78CFD52
:101A2000009005E0FFF788FD0099401A022850D881
:101A30003068C005F6D55E4EA0686C3601280FD020
:101A40000528306810D020F001003060306820F0A8
:101A500004003060A068B8B1FFF76EFD00900FE0A1
:101A6000306840F00100F4E740F004003060F7E730
:101A7000FFF762FD0099411A41F28830814266D831
:101A800030688007F4D50EE0FFF756FD009007E0C0
:101A9000FFF752FD0099411A41F28830814256D831
:101AA00030688007F4D42FB1DBF8001021F08051AA
:101AB000CBF80010A069C8B33D49091D0968C1F3FE
:101AC000810102294AD00228504607D0C8F8600098
:101AD00000E03CE0FFF730FD04463BE04746C8F835
:101AE0006000FFF729FD064605E000BFFFF724FD73
:101AF000801B02282BD828688001F7D4D4E907017D
:101B00000843A16A2E4A490802EB0141626A41EA90
:101B10008211084394F82C1040EA0161C9F80010C2
:101B200001203866FFF708FD044606E03EE000BFEE
:101B3000FFF702FD001B022809D828688001F7D5AD
:101B400034E000BFFFF7F8FC001B022802D9032095
:101B5000BDE8F88F28688001F4D427E00128F7D089
:101B6000D9F80000E26900F4800191421CD1226A98
:101B700000F03F01914217D147F6C071626A0140FF
:101B8000B1EB821F10D1A26A4FF0FF3300F4403155
:101B900003EB5202B1EB024F06D194F82C1000F087
:101BA0007060B0EB016F01D00120D1E70020CFE7DA
:101BB0000438024000004742800E47420070004057
:101BC0000000FFFF10B5401EB0F1807F01D301205F
:101BD00010BD4FF0E02460610F21601701F0A3FAFF
:101BE0000020A06107202061002010BD10B590F8F2
:101BF0003C20012A22D0012280F83C20CA688C684F
:101C000022F4407222434C6822F4806222430C6822
:101C100022F4006222430C6922F4805222434C6970
:101C200022F400522243C969002322F480420A436D
:101C300001684A6480F83C30002010BD022010BDCD
:101C400070B590F83C20012A32D0012480F83C4045
:101C5000022280F83D2003685A689D6822F07006D1
:101C60000A6832435A60134B02689A4214D0B2F1A8
:101C7000804F11D0104B9A420ED0104B9A420BD08D
:101C80000F4B9A4208D00F4B9A4205D00E4B9A4206
:101C900002D00E4B9A4204D1496825F080031943C3
:101CA000916080F83D40002180F83C10084670BDEE
:101CB000022070BD00000140000400400008004008
:101CC000000C0040000401400040014000180040AA
:101CD00010B5040003D094F83D0010B107E00120D6
:101CE00010BD002084F83C00204600F01FF80220C0
:101CF00084F83D00211D206800F090FE012084F84A
:101D0000460084F83E0084F83F0084F8400084F8E0
:101D1000410084F8420084F8430084F8440084F8C9
:101D2000450084F83D00002010BD000008B50068A3
:101D30000649884208D10648016841F00101016066
:101D4000006800F00100009008BD000000000140A4
:101D50004438024090F83D10012901D0012070471D
:101D6000022180F83D1000681149884214D0B0F17A
:101D7000804F11D00F4988420ED00F4988420BD0B6
:101D80000E49884208D00E49884205D00D49884244
:101D900002D00D49884204D1816801F0070106296B
:101DA00003D0016841F0010101600020704700008C
:101DB000000001400004004000080040000C00400A
:101DC00000040140004001400018004070B5044686
:101DD00090F83C000025012817D0012684F83C60CB
:101DE000022084F83D002068826822F0770222F405
:101DF0007F4282600868502838D00DDC20284FD000
:101E000005DC90B3102811D14AE0022070BD3028C3
:101E100046D040280AD13BE060282FD070280DD052
:101E2000B0F5805F03D0B0F5005F12D0012584F8D3
:101E30003D60002084F83C00284670BDCB68D1E9A5
:101E40000121206800F05BFE2068816841F0770185
:101E500009E0CB68D1E90121206800F050FE20683C
:101E6000816841F480418160E1E719E0CA6849680E
:101E7000206800F019FF5021206806E0CA68496810
:101E8000206800F022FF6021206800F042FECEE7CB
:101E9000CA684968206800F007FF40212068F4E71D
:101EA000226801461046F0E710B586B004461421BA
:101EB0006846FEF702FB0E492068884216D10D489D
:101EC0000021026842F010020260006800F0100079
:101ED00005904FF4206000900220CDE9010101201F
:101EE000CDE9031069460448FFF724FA06B010BD97
:101EF00000000140303802400010024070B5044636
:101F000090F83C0000260D4601280FD0012084F8EF
:101F10003C006AB1042A1DD0082A2FD00C2A3FD0D9
:101F20000126002084F83C00304670BD022070BDC0
:101F3000206800F0F7FD2068816941F008018161A7
:101F40002068816921F004018161206881692A6922
:101F5000114311E0206800F015FE2068816941F40A
:101F6000006181612068816921F48061816120685C
:101F700081692A6941EA02218161D2E7206800F083
:101F800037FE2068C16941F00801C1612068C1695C
:101F900021F00401C1612068C1692A69114311E07F
:101FA000206800F059FE2068C16941F40061C161F8
:101FB0002068C16921F48061C1612068C1692A6912
:101FC00041EA0221C161ACE710B5040003D094F8E6
:101FD0003D0010B107E0012010BD002084F83C0056
:101FE000204600F01EF8022084F83D00211D2068E4
:101FF00000F014FD012084F8460084F83E0084F8C7
:102000003F0084F8400084F8410084F8420084F8DE
:10201000430084F8440084F8450084F83D00002023
:1020200010BD704710B50446022249B104290ED0F4
:10203000082913D094F84100012816D0012010BDC2
:1020400094F83E000128F9D184F83E200FE094F87E
:102050003F000128F2D184F83F2008E094F84000C6
:102060000128EBD184F8402001E084F841200122CE
:10207000206800F037FD16492068164A884201D0D2
:10208000904203D1436C43F4004343642068884288
:1020900013D0B0F1804F10D00F4988420DD00F49B6
:1020A00088420AD00E49884207D0904205D00D4997
:1020B000884202D00C49884204D1816801F00701AE
:1020C000062903D0016841F001010160002010BD24
:1020D00000000140000401400004004000080040EE
:1020E000000C00400040014000180040704770475D
:1020F00070B5040004D094F83D00002510B106E04E
:10210000012070BD84F83C50204600F023F82420C4
:1021100084F83D002068C16821F40051C160204668
:1021200000F08EFE2068016921F490410161206871
:10213000416921F02A0141612068C16841F40051E0
:10214000C1602564202084F83D0084F83E00002012
:1021500070BD00002DE9F04F87B006461421684697
:10216000FEF7ABF95448DFF84CC1336800245249FC
:1021700014380225032707224FF000694FF4806AC4
:102180004FF4403B63453FD10B6843F010030B60B5
:10219000096801F010010591016841F00201016038
:1021A000016801F002010591016841F0010101603F
:1021B000006802AB00F0010005908020CDE9000529
:1021C000904683E8900169463C48FFF7B3F828023F
:1021D000CDE9000502AB694683E890013848FFF776
:1021E000A9F8394D37482860C5E90194C5E9034A83
:1021F0006C61AC61C5E9074B28466C6233E0B5639E
:10220000AE6307B0BDE8F08FDFF8C0C0634531D1E1
:102210002949091F0B6843F480230B60096801F406
:1022200080210591016841F0040101600068029479
:1022300000F0040005904FF44060CDE90005CDE9C1
:10224000037269462248FFF775F81F4D2148603533
:102250002860C5E90194C5E9034A6C61AC61C5E930
:10226000074B28466C62FEF7C3FF0028C7D0FEF775
:10227000F4F9C4E7184A9342C3D10A6842F0200235
:102280000A60096801F020010591016841F04001F0
:1022900001600068029400F0400005904FF4844013
:1022A000CDE900050820CDE9037069460B48FFF72A
:1022B00041F8A6E700100140443802400004024003
:1022C00000000240406402404405002000480040F5
:1022D000000802402860024000140140001802403B
:1022E00090F83E30202B0ED159B152B190F83C30CD
:1022F000012B08D0012380F83C300023036300F059
:1023000025BE012070470220704770477047FEE7E6
:102310002DED068B1F4C1E48E06101F07DFF9FED07
:102320001E8B9FED1FAB65684FF4B471288848433E
:1023300003F0A5F953EC182B03F032F853EC1A2BE9
:1023400003F0B0F941EC190B68894FF4B47110FB3C
:1023500001F003F07DF953EC182B03F021F853EC56
:10236000192B02F075FF02F041FF6066606A80473A
:10237000A06A8047E06A8047206B8047012002F016
:10238000E5FCA06B8047032002F0E0FCCBE70000F7
:1023900019420008880A00200000000000003340B5
:1023A000000000000000203F0F4810B50D490160FB
:1023B0000321416000214FF410228160C0E9031223
:1023C0004FF400124261017641768176C176017741
:1023D0004177FEF7BEFB002803D0BDE81040FEF7B2
:1023E0003CB910BD00640040E00300200F4810B568
:1023F0000D4901600321416000214FF410228160EA
:10240000C0E903124FF400124261017641768176F1
:10241000C17601774177FEF79CFB002803D0BDE829
:102420001040FEF71AB910BD0068004008040020F3
:10243000114808B5016841F400110160016801F418
:1024400000110091016841F48001016000680022E0
:1024500000F48000009005210C20FFF7DFF80C202D
:10246000FFF7CEF8002205213A20FFF7D7F8BDE8A4
:1024700008403A20FFF7C4B83038024010B59CB08D
:102480001C2216496846FDF7E6FF0021684602F067
:10249000BEF8134C11491C2220601C3107A8FDF71F
:1024A000DAFF002107A802F0B2F80C4960601C2294
:1024B00038310EA8FDF7CFFF00210EA802F0A7F8D3
:1024C0000649A0601C22543115A8FDF7C4FF002165
:1024D00015A802F09CF8E0601CB010BD885A0008F6
:1024E000000000202DE9F04186B014216846FDF778
:1024F000E4FF46480024016841F0020101600168E0
:1025000001F002010591016841F04001016001689C
:1025100001F040010591016841F00101016001688D
:1025200001F001010591016841F0080101600168B5
:1025300001F008010591016841F0040101600168A2
:1025400001F004010591016841F4807101600168A6
:1025500001F480710591016841F08001016001681A
:1025600001F080010591016841F0200101600168DE
:1025700001F020010591016841F01001016000683F
:10258000234F00F010000590002280213846FEF70E
:10259000CEFFDFF880804FF480460022314640466F
:1025A000FEF7C5FF802000900125CDE90154694662
:1025B00038460394FEF7BEFE02208DE831006946DE
:1025C0001548FEF7B7FECDE900546946134802945A
:1025D000FEF7B0FE4FF44050CDE900046946404696
:1025E0000294FEF7A7FE0096CDE9015469464046E5
:1025F0000394FEF79FFEE8038DE8310069464046EC
:10260000FEF798FE06B0BDE8F081000030380240C9
:10261000002002400004024000140240000002407A
:1026200010B596B000240F94109411941294139442
:102630001C2168461494FDF740FF202107A8FDF7F0
:102640003CFF2D482B490160A721C0E9011444F645
:102650001F61C0E9031444618461FFF739FB08B1CD
:10266000FDF7FBFF4FF480500F900FA92248FFF7B2
:10267000ADFB08B1FDF7F1FF1F48FFF7A5FC08B15E
:10268000FDF7EBFF139413A91B481494FFF7D8FA36
:1026900008B1FDF7E2FF602000904FF4FA60CDE949
:1026A0000104039404940594002269461248069498
:1026B000FFF724FC08B1FDF7D0FF042269460E485D
:1026C000FFF71CFC08B1FDF7C8FF079408940994B4
:1026D0004FF400500A94CDE90B4007A906480E9428
:1026E000FFF784FA08B1FDF7B8FF0348FFF7DCFBFA
:1026F00016B010BD00000140300400200C4810B599
:102700000A4901604FF4E1314160002181600C22EF
:10271000C160C0E904128161C161FFF7E9FC0028D2
:1027200003D0BDE81040FDF798BF10BD0010014078
:10273000780400200C4810B50A4901600B4941603B
:10274000002181600C22C160C0E904128161C16175
:10275000FFF7CEFC002803D0BDE81040FDF77DBF99
:1027600010BD000000480040BC040020A08601000D
:102770000C4810B50A4901604FF4E1314160002175
:1027800081600C22C160C0E904128161C161FFF760
:10279000AFFC002803D0BDE81040FDF75EBF10BDC0
:1027A0000014014000050020FEE7FEE7F8B1D0ED7F
:1027B000101A00EE102AC0ED111AD0ED0F0AB8EE73
:1027C000C00AC0ED100A80ED060A00EE101A511A78
:1027D000B8EEC00A80ED070A00EE101AB8EEC00A83
:1027E00080ED0F0A017829B1012939D076E09FEDFB
:1027F0003D0A704790ED011A61EE001AC0ED091A0A
:1028000090ED0A1A90ED022A02EE001A30EE600AEC
:1028100080ED0A1A90ED0D2A80ED0E2A90ED0C2A1B
:1028200080ED0D2A80ED0C0AD0ED030A60EE800ADF
:10283000C0ED0B0A90ED050AB4EEC01AF1EE10FAE5
:1028400009DCB1EE400AB4EEC01AF1EE10FA02D380
:1028500090ED0A0A01E080ED0A0A31EE800A29E0D3
:1028600030EE601A90ED012A21EE021A80ED091A6D
:1028700090ED022A22EE002A80ED0A2AD0ED0D2AE0
:10288000C0ED0E2AD0ED0C2AC0ED0D2AF0EE002A84
:1028900000EEE20A30EE210A80ED0C0AD0ED030AC8
:1028A00020EE800A71EE020A80ED0B0A30EE800AFB
:1028B000D0ED080A30EE200A80ED080AD0ED040AB7
:1028C000B4EEE00AF1EE10FA06DCF1EE600AB4EEC6
:1028D000E00AF1EE10FA01D2C0ED080A90ED080A04
:1028E000704700000000000030B5144B1C6865699B
:1028F00045F0400565611B68DC6844F01004DC604D
:102900000F4B1C68256825F0010525601C682568AB
:10291000ED07F7D11D680B4CAC601C68E0601868CF
:102920000161186842601868016841F48021016003
:102930001868016841F00101016030BDBC0400204D
:10294000A40500200448004000F0B0FE02F01EF98B
:1029500001F02CFD00F0F8FB00F0D8FCF6E710B514
:10296000FEF7F0FD02F06CFB012803D0BDE810403B
:1029700002F0F8BA10BD000030B593B030216846BF
:10298000FDF79BFD14210CA8FDF797FD1D480025C0
:10299000016841F080510160006800F080501190A2
:1029A0001948016841F4804101600068022400F484
:1029B0008040119001200090000401908001CDE939
:1029C000064006200890A820CDE9090404200B90B9
:1029D0006846FEF741FF08B172B6FEE70CA90F206A
:1029E00081E831004FF4A0500F904FF480501090C8
:1029F00005210CA8FEF744FE002801D072B6FEE7C0
:102A000013B030BD403802400070004002480168F9
:102A100041F470010160704788ED00E0F0B5026894
:102A2000254C264D264E274F274B4FF0804CA04279
:102A300009D0604507D0A84205D0B04203D0B842C3
:102A400001D0984204D122F0700E4A6842EA0E0288
:102A5000A0421BD0604519D0A84217D0B04215D073
:102A6000B84213D0984211D0184DA8420ED0184D3C
:102A7000A8420BD0174DA84208D0174DA84205D048
:102A8000164DA84202D0164DA84203D122F440753B
:102A9000CA682A434D6922F080022A4302608A688C
:102AA000C2620A688262A04201D0984201D10969DB
:102AB000016301214161F0BD0000014000040040BC
:102AC00000080040000C00400004014000400140AC
:102AD000004401400048014000180040001C004034
:102AE0000020004010B501F01F030121046A994045
:102AF0008C430462016A9A401143016210BD10B513
:102B0000846842EA032224F47F440A432243826019
:102B100010BD826822F070020A4342F00701816012
:102B200070470000F0B5026A22F001020262036AF7
:102B300042688469124E24F073050C682C4323F01C
:102B400002058B682B430D4DA84201D0B04205D140
:102B500023F00807CB683B4323F00403A84201D0CD
:102B6000B04205D14D6922F4407215438A692A4367
:102B700042608461496841630362F0BD0000014026
:102B800000040140F0B5026A22F010020262026AFB
:102B9000436884690D6824F4E64444EA05248D689A
:102BA00022F0200242EA05120F4D104EA84201D039
:102BB000B04206D1CF6822F0800242EA071222F02A
:102BC0004002A84201D0B04207D14D6923F44063CE
:102BD00043EA85038D6943EA85034360846149685C
:102BE00081630262F0BD000000000140000401406A
:102BF000F0B5026A22F480720262026A4368C46914
:102C000022F4007224F073050C68124E2C438D6878
:102C100042EA05220E4DA84201D0B04206D1CF684B
:102C200022F4006242EA072222F48062A84201D024
:102C3000B04207D14D6923F4405343EA05138D692F
:102C400043EA05134360C4614968C1630262F0BD91
:102C5000000001400004014030B5026A22F48052B5
:102C60000262046A4268C3690D6823F4E64343EADA
:102C700005238D6824F4005444EA0534084DA84225
:102C800002D0084DA84204D14D6922F4804242EAA4
:102C900085124260C36149680164046230BD00006E
:102CA000000001400004014010B5036A046A24F0EA
:102CB00001040462846924F0F00444EA021423F05D
:102CC0000A020A438461026210BD10B5036A23F050
:102CD000100303628369046A23F4704343EA0232F7
:102CE00024F0A00343EA01118261016210BD70B5B6
:102CF000846B2068406994F83D10C0F3C010002533
:102D0000212904D118B1E584204600F08AF8206812
:102D1000406994F83E10C0F38010222904D118B104
:102D2000E585204600F056F8206C40F01000206445
:102D30002046FFF7DCF970BD10B50146806B0968CD
:102D40000968C9052FD40021C18501680C3151E8FB
:102D5000002F22F4807241E80023002BF5D1016896
:102D6000143151E8002F22F0010241E80023002B2A
:102D7000F5D10168143151E8002F22F0400241E8FA
:102D80000023002BF5D1202180F83E10016B012992
:102D900009D101680C3151E8002F22F0100241E8FE
:102DA0000023002BF5D1016B012902D0FFF7ADFA0A
:102DB00010BD818DFFF79AF910BD10B5806B016BC6
:102DC000012902D0FFF7A2FA10BD818D4908FFF753
:102DD0008DF910BD01680C3151E8002F22F490727A
:102DE00041E80023002BF5D10168143151E8002F90
:102DF00022F0010241E80023002BF5D1016B0129EB
:102E000009D101680C3151E8002F22F0100241E88D
:102E10000023002BF5D1202180F83E100021016312
:102E2000704701680C3151E8002F22F0C00241E8E0
:102E30000023002BF5D1202180F83D1070470000C1
:102E400070B5044600680169E26821F440511143FD
:102E500001612169A068E26908436169114308437F
:102E60002168CA6849F20C639A430243CA60206829
:102E70004169A26921F440711143416131492068DF
:102E8000884202D03049884202D1FEF7A3FC01E01B
:102E9000FEF790FCE2690023192164253226B2F581
:102EA000004F626828D0A0FB0101930F9200FDF74C
:102EB0005BFA0146B0FBF5F06FF01802504301EBEE
:102EC000800006EB0010B0FBF5F000F0F002B1FB63
:102ED000F5F002EB0012B1FBF5F06FF01803584368
:102EE00001EB800006EB0010B0FBF5F000F00F00E6
:102EF00021681044886070BDA0FB010192185B41FD
:102F0000FDF732FA0146B0FBF5F00201B1FBF5F036
:102F10006FF01803584301EB800006EBC000B0FBD4
:102F2000F5F000F0F80002EB4002B1FBF5F0584379
:102F300001EB800006EBC000B0FBF5F000F00700ED
:102F4000D6E70000001001400014014038B581624E
:102F500082850025134604460564222084F83E003D
:102F6000A26B1B48D063A26B1A481064A26B1A486C
:102F7000D064A06B0A4605652168A06B091DFEF7A9
:102F8000A1F9206801684068009084F83C502068EE
:102F90000C3050E8001F41F4807140E80012002A14
:102FA000F5D12068143050E8001F41F0010140E8DD
:102FB0000012002AF5D12068143050E8001F41F0BB
:102FC000400140E80012002AF5D1002038BD000081
:102FD000392D0008BB2D0008EF2C000810B5252264
:102FE00021492248FFF77CF91F48A0F16001027FC8
:102FF000202A15D0303AC37F02EB4204C4EBC21240
:1030000003EBC202437F642413FB04F3807F00EBD5
:10301000800003EB40001044A0F5A050D0381FE022
:10302000427F202A10D0C37F303A02EBC20404EB67
:103030000212807F03EB820200EB80004FF6F05318
:1030400003EB400010440BE0827FC07F202A09D0B0
:10305000303A02EB82026FF02F0303EB420210447E
:10306000C88210BD3038FBE76406002078040020D9
:10307000264818B400680168890604D501684068CC
:10308000009018BC704722490968C906F9D5016843
:103090004068204A0090106801684FF024030C0338
:1030A0001D49046824F00104046016D410684468C3
:1030B000C4F12404A4B20C8043601068016841F498
:1030C000002101601068016841F001010160122CCB
:1030D000D7D1124901F1180015E014686068C0F1F9
:1030E000240080B2088063600D498B6A23F40023BA
:1030F0008B6211680A6842F001020A601228C0D18E
:10310000064901F13C0018BC01F0E5BCBC040020FC
:1031100000480040A4050020140000200406002000
:1031200000600240FEE70907090E002804DB00F1F9
:10313000E02080F80014704700F00F0000F1E0205C
:1031400080F8141D70470000F0B5684CA08F9FED0B
:10315000682A5A270026012501281AD165859FED86
:10316000650A84ED130A84ED142A94ED0D0ABDEE70
:10317000C00A10EE100A07FA80F0A4F85400A4F870
:103180005660283400F0EEFD2086283C012800D14E
:10319000A6875949E06C884216D15849206D88426B
:1031A00012D194ED0D0AB4F95410BDEEC00A10EE20
:1031B000100A07FA80F0814206D1B4F8560018B917
:1031C000208E28B1A4F85660E08F012803D02EE0AD
:1031D000A4F85650F8E76585A4F856502069B0F970
:1031E0000410B1F57A6F06DDB0F90200001D092860
:1031F00001D2A4F84850B4F84800012817D1A4F827
:103200005650E68700F0AEFD88B19FED3D0AA4F868
:10321000565084ED140A94ED0D0AF521BDEEC00A56
:1032200010EE100A01FA80F0A4F85400E687B4F812
:103230004000012818D165859FED320A6E2184ED8A
:10324000130A94ED0D0ABDEEC00A10EE100A01FA41
:1032500080F0A4F85400A4F8565000F083FD18B193
:10326000A4F85660A4F84060B4F84200DFED261AD6
:10327000012820D16585B4F9460010B101280FD08E
:1032800014E094ED0D0ABDEEC00A10EE100A07FA24
:1032900080F0A4F85400C4ED141AA4F8566005E0B8
:1032A000A4F8565084ED142AA4F8426000F05AFDA8
:1032B00008B1A4F84650B4F84400012814D165853B
:1032C000A4F85650C4ED131AC4ED141A94ED0D0A67
:1032D000BDEEC00A10EE100AA4F8540000F042FD42
:1032E000002801D0A4F84460F0BD0000080B0020C5
:1032F000004083440000F0C20000F0C2004083445C
:1033000000008C430000C8C30000000070B54348B3
:1033100000210123B0F92C50C5850468A28AB2F5BA
:10332000807F0DD0A0F82C103C4AB0F92C60B2F987
:103330002820B54201D0012E04D0012A05D019E081
:103340008385F1E7012A0AD00385344DA68AB5F9B1
:103350003E20B5F94050B6F5006F17D01EE001854C
:10336000A0F856308187C187A0F84010A0F842101D
:10337000A0F84410A0F856308187C187A0F840100B
:10338000A0F84210A0F84410418570BD868F002E31
:10339000FBD1002AF9D1002DF7D18387A68AB6F593
:1033A000805F09D1868F002EEFD1002AEDD1002D4C
:1033B000EBD1C387A0F84830A28AB2F5005F09D1EB
:1033C000828F002AE1D1C28F002ADED1002DDCD10C
:1033D000A0F84030A28AB2F5804F0DD1828F002A2A
:1033E000D3D1C28F002AD0D1B0F84020002ACCD14E
:1033F000A0F84230A0F84610A18AB1F5004FC4D120
:10340000818F0029C1D1C18F0029BED1B0F84010F1
:103410000029BAD1A0F8443070BD0000080B00208C
:1034200000B58BB000200121CDE906010891009084
:103430000190029003900590049069460C48FDF7B6
:103440008FF90B48FDF7D0FD02210948FDF707F978
:103450000E200990059069460648FDF781F9054858
:10346000FDF7C2FD02210348FDF7F9F80BB000BDDE
:10347000E00300200804002000200649024600BFA7
:1034800000EB400301EB8303401C5A810828F7DB63
:10349000704700008C060020124808B54FF40071F8
:1034A000016000218160C16008210161A0F1680113
:1034B0000D4831F8402F130A037042704A88130AEE
:1034C0008370C2700A8A130A03714271498A6B467B
:1034D0000A0A8271C171024602490448FDF7D1F817
:1034E00008BD0000F00A00200C010020E0030020CD
:1034F0006B486C490022027091ED080A80ED010AC8
:1035000091ED090A80ED020A91ED0A0A80ED030AA5
:1035100091ED0B0A80ED040A91ED0C0A80ED050A8D
:103520009FED610A80ED0E0A80ED0D0A80ED0C0A18
:1035300080ED080A80ED0B0A80ED0A0A80ED090A89
:1035400080ED110A80ED100A80ED0F0A80F8482006
:10355000D1ED0D0AC0ED130AD1ED0E0AC0ED140A2B
:10356000D1ED0F0AC0ED150AD1ED100AC0ED160A13
:10357000D1ED110AC0ED170A80ED200A80ED1F0A77
:1035800080ED1E0A80ED1A0A80ED1D0A80ED1C0AEE
:1035900080ED1B0A80ED230A80ED220A80ED210ACE
:1035A00080F89020D1ED120AC0ED250AD1ED130A62
:1035B000C0ED260AD1ED140AC0ED270AD1ED150A97
:1035C000C0ED280AD1ED160AC0ED290A80ED320AB5
:1035D00080ED310A80ED300A80ED2C0A80ED2F0A53
:1035E00080ED2E0A80ED2D0A80ED350A80ED340A3B
:1035F00080ED330A80F8D820D1ED170AC0ED370AE4
:10360000D1ED180AC0ED380AD1ED190AC0ED390A1A
:10361000D1ED1A0AC0ED3A0AD1ED1B0AC0ED3B0A02
:1036200080ED440A80ED430A80ED420A80ED3E0AB7
:1036300080ED410A80ED400A80ED3F0A80ED470AA7
:1036400080ED460A80ED450A80F82021D1ED1C0A64
:10365000C0ED490AD1ED1D0AC0ED4A0AD1ED1E0A9E
:10366000C0ED4B0AD1ED1F0A8031C0ED4C0AD1EDFF
:10367000000AC0ED4D0A80ED560A80ED550A80ED36
:10368000540A80ED500A80ED530A80ED520A80ED15
:10369000510A80ED590A80ED580A80ED570A7047AB
:1036A000A0070020240000200000000070B500F0FA
:1036B000C5FB104C9FED100A20600120A085002062
:1036C0002085A087E087A4F84000A4F8440084ED9A
:1036D000130A84ED140AA4F8560084ED0D0A054679
:1036E000E8B200F0A3FB04EB85016D1C4860082DD7
:1036F000F6DB70BD080B002000000000124808B582
:103700004FF40071016000218160C16008210161F6
:10371000A0F50E710D4831F83C2F130A037042706A
:103720004A88130A8370C2708A88130A037142712F
:10373000C9886B460A0A8271C1710246024904486F
:10374000FCF79FFF08BD000050090020A8000020E2
:103750000804002070B5874C04F5D4766068408872
:10376000A4F85600A0684088A4F85800E068408893
:10377000A4F85A0020694088A4F85C00606990EDC4
:10378000030A84ED140A94F85E00C8B994ED1B0A8C
:10379000A36BBDEEC00A10EE100A94ED1A0A02B235
:1037A000BDEEC00A10EE100A01B230469847BDEED9
:1037B000C00A10EE100AA4F844004042A4F84600E3
:1037C00094F95E204FF4BE704142012A02D0022AD1
:1037D00005D008E0A4F84400A4F8461003E0A4F8DB
:1037E0004410A4F84600E069634D418D012920D1C1
:1037F000297801291DD194ED1A0AB0F95420A36B40
:10380000BDEEC00A10EE100A01B230469847BDEE78
:10381000C00A10EE100AA4F844004042A4F8460082
:10382000E069B0F9540000EE100AB8EEC00A84ED69
:103830001B0AB4F94420B4F956104E4854F8383FE6
:1038400088309847BDEEC00A10EE100AA0804948A3
:103850002368B4F90E20B4F92010D0309847BDEE9B
:10386000C00A012110EE100AE0804448383CFDF700
:1038700059FE002108B9A187E18794F960004FF44F
:103880003E62534220B1032805D0042806D007E049
:10389000A4F84C1004E0A4F84C2001E0A4F84C304B
:1038A000E069418D01291AD12978012917D194EDB8
:1038B0001C0AD0ED140A324E70EE600A10EE901A17
:1038C000B14201D9A4F84C20D0ED140A2D4930EEB4
:1038D000600A10EE100A884201DDA4F84C30B4F9F9
:1038E0004C20B4F95A1054F8383F27489847BDEE99
:1038F000C00A10EE100A2081244894F92920414280
:10390000383C062A02D0052A0AD00BE04EF2485273
:10391000A4F85420A4F8420040F2DC526A8101E08D
:10392000A4F84210E269138D012B22D12B78012BD0
:103930001FD1B2F85620012A0BD02169B1F902102B
:103940003B31772901D34DF6F000A4F84200062060
:103950000DE02069B0F902003B30772802D2A4F8CC
:10396000421003E042F21070A4F84200052084F8EF
:10397000610070BD180700202400002000000240F4
:103980000000A0C00000A040300800206CEEFFFF47
:1039900070B51C4C1A48A0621B48E0621B482063AB
:1039A0001B4860631B48A06300F048FA206000F0E9
:1039B00039FAE06100F046FA2062FFF799FD002530
:1039C000284600F033FA04EB85016D1CEDB2486027
:1039D000042DF5D3002084F85E0084F860000521F2
:1039E00084F861109FED0C0A0C4984ED1A0A84EDED
:1039F0001C0A487084ED1B0A40F2DC50488170BDFF
:103A0000213A000818070020493B000855370008F4
:103A1000FD360008AD27000800000000240000204B
:103A20002DE9F041414F4FF480562DED068B314684
:103A30003846FDF777FD3E4C002508B984F8645000
:103A400031463846FDF76EFD0126012801D184F884
:103A50006460B4F97800C117C4E920010121354838
:103A6000FDF760FD68B1A4F8785000BFD4E92012DA
:103A7000B4F97800414082EAE072114308D018B1ED
:103A800006E0A4F87860F1E794ED1A0A84ED1D0AC7
:103A900065684FF4B4712888484301F0F0FD9FED4C
:103AA000268B53EC182B01F07BFC9FED25AB53ECE0
:103AB0001A2B01F0F7FD41EC190B68894FF4B47132
:103AC00010FB01F001F0C4FD53EC182B01F068FC71
:103AD00053EC192B01F0BCFB01F088FBA066E568F4
:103AE0004FF4B4712888484301F0C9FD53EC182BFA
:103AF00001F056FC53EC1A2B01F0D4FD41EC190BEC
:103B000068894FF4B47110FB01F001F0A1FD53EC92
:103B1000182B01F045FC53EC192B01F099FB01F037
:103B200065FB2067BDEC068BBDE8F0810004024018
:103B30001807002000000240000000000000334091
:103B4000000000000000203FF0B578490124002368
:103B50000868774AC57A022D02D1857A012D0FD0E7
:103B600082F8003091F95E7081F85F7092F9005030
:103B700002263DB1B0F814C0BCF5005F1DD028E0AE
:103B80001470EFE790F80BC0BCF1010F23D190F84F
:103B90000AC0BCF1020F1ED1B0F906C0BCF1000F83
:103BA00001DD81F85E40B0F906C0BCF1000F01DA1A
:103BB00081F85E60C68866B10DE0B0F90EC0BCF158
:103BC000000F02DA81F85E4005E002DD81F85E60F8
:103BD00001E081F85E300E6AB6F804C0BCF1000F57
:103BE00023D191ED1A0AD2ED040AB4EEE00AF1EE07
:103BF00010FA06DB91F85EC0BCF1010F01D181F82B
:103C00005E30D2ED050AB4EEE00AF1EE10FA06D805
:103C100091F85EC0BCF1020F01D181F85E3091F9DC
:103C20005EC0674501D081ED1B0A03274FF0040EEB
:103C30002DB1B0F814C0BCF5805F19D027E090F822
:103C40000BC0BCF1010F22D190F80AC0BCF1030FE8
:103C50001DD1B0F906C0BCF1000F01DD81F8607024
:103C6000B0F90670002F01DA81F860E0C7880DE036
:103C7000B0F90EC0BCF1000F01DA81F86070B0F944
:103C80000E70002F01DD81F860E0C7890FB981F85F
:103C90006030B688DEB991ED1C0AD2ED070AB4EEA9
:103CA000E00AF1EE10FA05D291F86060042E01D11D
:103CB00081F86030D2ED060AB4EEE00AF1EE10FAB7
:103CC00005DD91F86060032E01D181F86030052692
:103CD000062795B192F901509570808AB0F5004F92
:103CE0001ED0537092F90100854218D0012816D1D8
:103CF00091F86100062815D00FE0C27A012A0ED192
:103D0000827A012A0BD1B0F90620002A01DD81F860
:103D10006160B0F90600002801DA81F86170F0BD39
:103D20005470DFE781F86160F0BD000018070020E3
:103D3000240000200A4C09486062FFF729FE00BFFA
:103D400000F056F800F02AFCA06A8047E06A80473D
:103D5000206B8047606B8047F2E7000091390008D4
:103D60001807002030B520480024234690ED170A9C
:103D7000B0F954102246BDEEC00A10EE105A2DB212
:103D80004D1B072D06DA10EE105A2DB2691A0729BD
:103D900000DA0123D0ED130A90ED180A134930EE32
:103DA000C01A11EE105A8D4206DA30EE600A10EE9B
:103DB000105A8D4200DA0124D0ED140A90ED190A50
:103DC00030EEC01A11EE100A884206DA30EE600AB0
:103DD00010EE100A884200DA01221CB113B10AB1B8
:103DE000012030BD002030BD080B00200000A040A5
:103DF000094801680948CA7A032A02D1897A032945
:103E000007D000218181027B4FF480410448FDF7F7
:103E10008EBB0121F6E700001807002024000020D7
:103E20000004024000487047080B0020024900EBE4
:103E3000400001EB800070478C060020004870476E
:103E400004060020004870471C000020F8B1D0EDA7
:103E5000101A00EE102AC0ED111AD0ED0F0AB8EEBC
:103E6000C00AC0ED100A80ED060A00EE101A511AC1
:103E7000B8EEC00A80ED070A00EE101AB8EEC00ACC
:103E800080ED0F0A017829B1012939D076E09FED44
:103E90003D0A704790ED011A61EE001AC0ED091A53
:103EA00090ED0A1A90ED022A02EE001A30EE600A36
:103EB00080ED0A1A90ED0D2A80ED0E2A90ED0C2A65
:103EC00080ED0D2A80ED0C0AD0ED030A60EE800A29
:103ED000C0ED0B0A90ED050AB4EEC01AF1EE10FA2F
:103EE00009DCB1EE400AB4EEC01AF1EE10FA02D3CA
:103EF00090ED0A0A01E080ED0A0A31EE800A29E01D
:103F000030EE601A90ED012A21EE021A80ED091AB6
:103F100090ED022A22EE002A80ED0A2AD0ED0D2A29
:103F2000C0ED0E2AD0ED0C2AC0ED0D2AF0EE002ACD
:103F300000EEE20A30EE210A80ED0C0AD0ED030A11
:103F400020EE800A71EE020A80ED0B0A30EE800A44
:103F5000D0ED080A30EE200A80ED080AD0ED040A00
:103F6000B4EEE00AF1EE10FA06DCF1EE600AB4EE0F
:103F7000E00AF1EE10FA01D2C0ED080A90ED080A4D
:103F800070470000000000005648574900220270A8
:103F900091ED030A80ED010A91ED040A80ED020A19
:103FA00091ED050A80ED030A91ED060A80ED040A01
:103FB00091ED070A80ED050A9FED4C0A80ED0E0A8F
:103FC00080ED0D0A80ED0C0A80ED080A80ED0B0AE9
:103FD00080ED0A0A80ED090A80ED110A80ED100AD1
:103FE00080ED0F0A80F84820D1ED080AC0ED130AD1
:103FF000D1ED090AC0ED140AD1ED0A0AC0ED150A87
:10400000D1ED0B0AC0ED160AD1ED0C0AC0ED170A6E
:1040100080ED200A80ED1F0A80ED1E0A80ED1A0A4D
:1040200080ED1D0A80ED1C0A80ED1B0A80ED230A3D
:1040300080ED220A80ED210A80F89020D1ED0D0A52
:10404000C0ED250AD1ED0E0AC0ED260AD1ED0F0A0A
:10405000C0ED270AD1ED100AC0ED280AD1ED110AF2
:10406000C0ED290A80ED320A80ED310A80ED300A78
:1040700080ED2C0A80ED2F0A80ED2E0A80ED2D0AAE
:1040800080ED350A80ED340A80ED330A80F8D820BF
:10409000D1ED120AC0ED370AD1ED130AC0ED380A8E
:1040A000D1ED140AC0ED390AD1ED150AC0ED3A0A76
:1040B000D1ED160AC0ED3B0A80ED440A80ED430ABB
:1040C00080ED420A80ED3E0A80ED410A80ED400A13
:1040D00080ED3F0A80ED470A80ED460A80ED450AF3
:1040E0007047000068090020B000002000000000B8
:1040F0002DE9F047424C434D4FF0BE0860686E42D8
:104100006FF0BD09B0F90210A4F84810A0686FF074
:10411000F6024088A4F84A00E0684088A4F85800F5
:1041200020694088A4F85A000020A4F84000A4F8B0
:104130004200E06CF72350B101280DD0022810D0C6
:10414000052804D06069478D012F0FD03EE0A4F808
:104150004420A4F84630F5E7A4F84450A4F846609B
:10416000F0E7A4F84480A4F84690EBE7264F3F78A8
:10417000012F2BD194ED190AD0ED130A234F70EEC5
:10418000600A10EE90CABC4503DDA4F84450A4F8C0
:104190004660D0ED130A1E4D70EE600A10EE906A74
:1041A000AE4203D9A4F84480A4F84690D0ED130A97
:1041B00030EE600A10EE100AB84207DA10EE100A6C
:1041C000A84203D2A4F84420A4F84630B4F944200D
:1041D00054F8343F0F489847BDEEC00A10EE100A5D
:1041E000A0810C482368B4F91220B4F916104830A5
:1041F0009847BDEEC00A10EE100AE081BDE8F087D6
:10420000880A00208CFBFFFFB00000200000A040C7
:104210000000A0C06809002070B5FFF70FFE174C22
:10422000002635462060164860621648A06216488F
:10423000E06216482063E6641548E665A063281D21
:10424000C0B2FFF7F3FD04EB85016D1CEDB24860D1
:10425000042DF4D3FFF7E6FD6061FFF7F3FDA061E5
:104260000C482062FFF790FE0B4860639FED0B0A3D
:1042700084F8606084ED190A70BD0000880A00208F
:10428000A1420008F14000084D450008D94400084B
:1042900099340008893F00084D3E000800000000E6
:1042A000F0B527480124274B01680022CE7A022E60
:1042B00002D18D7A012D08D01A701F78022537B1EE
:1042C0008E8AB6F5006F10D01BE01C70F5E7032E48
:1042D00018D18E7A032E15D1B1F90610002901DD0F
:1042E000C4640FE00DDAC5640CE0B1F90E60002E75
:1042F00000DAC464B1F90E40002C00DDC564C98940
:1043000001B9C26481690988002917D190ED190AA1
:10431000D3ED010AB4EEE00AF1EE10FA03DDC16C50
:10432000022900D1C264D3ED020AB4EEE00AF1EE34
:1043300010FA03D2C16C012900D1C264F0BD0000A3
:10434000880A0020B0000020FDF704F9FEF714FBF6
:10435000FEF7C8F8FEF728F8FEF76AF8FEF7EAF964
:10436000FEF75EF9FEF7CAF9FEF740F8FEF700FA2D
:1043700000F0A2FBFFF754F8FFF77EF80748FDF7BF
:10438000E9FC00210548FDF74DFE04210348FDF737
:1043900049FEFEF773F800F035F9FEE7300400201F
:1043A00001460020842900D0C81C704770B5444CD9
:1043B00001212DED068B608F20874248FDF7B2F872
:1043C00000287BD000202087B4F93A1000B2884240
:1043D00003D094ED170A84ED0D0A65684FF4B471AB
:1043E0002888484301F04BF99FED378B53EC182B8D
:1043F00000F0D6FF9FED369B53EC192B01F052F9DC
:1044000041EC1A0B68894FF4B47110FB01F001F014
:104410001FF953EC182B00F0C3FF53EC1A2B00F0DC
:1044200017FF00F0E3FEE065E5684FF4B4712888FB
:10443000484301F024F953EC182B00F0B1FF53EC82
:10444000192B01F02FF941EC1A0B68894FF4B47164
:1044500010FB01F001F0FCF853EC182B00F0A0FF6A
:1044600053EC1A2B00F0F4FE00F0C0FE60666569A4
:104470004FF4B4712888484301F001F953EC182B2C
:1044800000F08EFF53EC192B01F00CF941EC190BE5
:1044900068894FF4B47110FB01F001F0D9F853ECC6
:1044A000182B00F07DFF53EC192B00F0D1FE00F02B
:1044B0009DFE2066BDEC068B70BDFFE7012082E704
:1044C000080B002000000240000000000000334004
:1044D000000000000000203F10B51B4CE06D38B11B
:1044E00042F210714A42032808D004280BD00EE093
:1044F0000020A4F85400A4F8560008E0A4F85410D2
:10450000A4F8562003E0A4F85420A4F85610B4F9F7
:104510005420B4F958100C4854F8343F9038984758
:10452000BDEEC00A10EE100AA08307482368B4F954
:104530002220B4F9261048389847BDEEC00A10EE84
:10454000100AE08310BD0000880A002030B5114831
:104550000022032305781048042401683DB18D8AA8
:10456000402D0FD1B1F9101000290DDC10E0CD7AEB
:10457000032D0BD18D7A012D08D1B1F90610002938
:1045800001DDC36530BD01DAC46530BDC26530BD33
:10459000FCDAF6E7B0000020880A0020164810B5C3
:1045A000164990F9032002710968B1F9104063B20D
:1045B000C370898A802918D10146002CB1F90A10EC
:1045C00003DD9A4206D0C83103E003DA9A4201D0F3
:1045D000C8394181B0F90A2040F6C4118A4203DC8F
:1045E0004FF4FA718A4200DA41810549B0F90A00B4
:1045F0000968486310BD000024000020180700204F
:104600003004002010B500F0C7FB002010BD7FB5BE
:104610000D4604464169B0F9080081B1A16971B144
:10462000FFF7BEFED4E905128DE80700D4E90010BB
:104630002B46226900F0D9FC039004B070BDFFF74F
:10464000AFFE03A9CDE90001208A2B4682B2D4E94E
:10465000001000F09DFC012801D00020EDE7039838
:10466000EBE700002DE9F041184C0F460546E668DF
:104670002068001D00F0A2FA38B9206890F82C10CC
:1046800001208840216981432161681C07D137B12D
:104690002168BDE8F0410E48091D00F0D3BA20683A
:1046A0003544B5424560216805D2A06BBDE8F041B4
:1046B000091D00F0AFBA606B091D00F0ABFAA06AEB
:1046C000854200D2A562BDE8F081000024010020EF
:1046D000640C00202DE9F041054600F0BFFA2E4C95
:1046E000A068401CA06020682C4F10B1606940B3E6
:1046F0002DE02560A068012829D1002606EB860060
:1047000007EB800000F078FA761C072EF6D32348DA
:104710008C3000F071FA2148A03000F06DFA1F488B
:10472000B43000F069FA1D48C83000F065FA1B4843
:10473000DC3000F061FA19488C3060631430A063FB
:1047400005E02068E96AC06A884200D82560606A8E
:10475000401C6062E96A01202269884010432061A0
:1047600001EB810007EB8000291D00F06BFA00F0DF
:1047700095FA606900280CD02068E96AC06A88420E
:1047800007D207494FF080500860BFF34F8FBFF347
:104790006F8FBDE8F081000024010020880B00200D
:1047A00004ED00E010B5044690F8510058B101281E
:1047B0000CD002280FD0502080F31188BFF34F8F08
:1047C000BFF36F8FFEE7206B00F07CFA2046BDE858
:1047D000104000F077BA10BD10484FF470514207F6
:1047E00006D0C01D0D4920F00700411AC1F57051D7
:1047F0000B4A00230144C2E900030839183A21F0AA
:10480000070111604B600B600B1AC0E90013936045
:104810004FF000405360506170470000780C00205A
:1048200078010020144E154CA6F1C8074FF08058AF
:10483000DFF84C9012E000BF00F010FAF068C56895
:10484000281D00F0BBF9A068401EA0606068401EF3
:10485000606000F023FA2846FFF7A4FF6068002894
:10486000EAD138680128F9D9C9F80080BFF34F8F21
:10487000BFF36F8FF2E70000500C002024010020EE
:1048800004ED00E02DE9F0479A46DDE90984814610
:104890006FF00303206B03EB82021044089E20F0AC
:1048A0000707780707D0502080F31188BFF34F8F98
:1048B000BFF36F8FFEE7002561B1002023180A5C6B
:1048C00083F834200A5C12B1401C1028F6D384F817
:1048D000435001E084F83450072E00D30626E662E8
:1048E000C4E91165201D00F092F904F1180000F0F0
:1048F0008EF92461C6F107006462A061E56484F862
:10490000505052464946384600F0C0F82060B8F191
:10491000000F01D0C8F80040BDE8F08730B511495C
:1049200000E011460A688242FBD34B685C1884425F
:1049300003D1406818444860084643681C189442F4
:1049400009D1084C183C2468A24209D052681A4484
:1049500042600A6812680260814200D0086030BD7F
:104960000460F9E7780100200648416B096829B125
:10497000416BC968C9684968816270474FF0FF316F
:10498000FAE700002401002008484068401C4FF06E
:10499000500080F3118804D0BFF34F8FBFF36F8FA7
:1049A000FEE7BFF34F8FBFF36F8FFEE7800100205C
:1049B0002DE9F0410546002700F024FA324E306818
:1049C00008B9FFF709FF706905424ED1C5B3083534
:1049D00068070ED005F00700C0F10800054468071D
:1049E00007D0502080F31188BFF34F8FBFF36F8F34
:1049F000FEE72DB37068854237D82348183001464A
:104A00000C6801E020460C466168A94202D2216888
:104A10000029F7D131688C4227D0076821680160EE
:104A200060680837411B10290FD96019420708D068
:104A3000502080F31188BFF34F8FBFF36F8FFEE7D5
:104A400013E041606560FFF769FF61687068401AB4
:104A50007060B268904200D2B0607069014300207B
:104A6000C4E90001F068401CF06000F05DFB7807CD
:104A700007D0502080F31188BFF34F8FBFF36F8FA3
:104A8000FEE73846BDE8F0816001002010B5031F45
:104A90004FF080741C601B1F21F001011960191F69
:104AA000044B0B6014390A60091F6FF0020244388E
:104AB0000A6010BD8949000802492422A1F124009E
:104AC000FDF712BF40060020FFF7F6FFFEF7D0FA11
:104AD000FEF784FAFAE7F0B5002855D0002953D044
:104AE0000278437842EA0322C2F30A020A8043783A
:104AF0008478DB0843EA4413C3F30A034B808478C9
:104B0000C578A40944EA8504057944EA8524C4F3F8
:104B10000A048C80057946796D0845EAC615C5F307
:104B20000A05CD804679C6F301168E724679B6091C
:104B3000CE728679C77946EA07268E81067A477A49
:104B400046EA0726CE81867AC77A46EA07260E828B
:104B5000067B8E74467BCE74867BC77B46EA07262F
:104B60008E82067C407CA2F580620A80A3F5806379
:104B70004B80A4F5806446EA00208C80A5F5806512
:104B8000CD80A0F580600881F0BD000070B5094EB1
:104B90004FF4805529463046FCF7C4FC064C08B952
:104BA0000020208629463046FCF7BCFC012800D1B5
:104BB000208670BD00040240080B0020D0E90132BD
:104BC00001699A60D0E901235A604A68824201D1A2
:104BD00082684A60002202610868401E0860086816
:104BE00070470000034B036003F15400086080200D
:104BF000106070478C01002000F108014FF0FF3277
:104C0000C0E90112C160016100210160704700210B
:104C10000161704730B50B685A1C02D000F10802E0
:104C200002E0026904E02246546825689D42FAD9F0
:104C300053684B6099608A60516008610168491C43
:104C4000016030BD42684A6093688B609368596028
:104C5000916008610168491C01607047502080F331
:104C60001188BFF34F8FBFF36F8F0A494868401C0C
:104C7000486001280CD10848006810F0FF0F07D0E9
:104C8000502080F31188BFF34F8FBFF36F8FFEE783
:104C9000704700008001002004ED00E008494868EA
:104CA00028B1401E486001D180F311887047502020
:104CB00080F31188BFF34F8FBFF36F8FFEE70000C3
:104CC0008001002070B500282AD0164DA0F10804FC
:104CD00060686969084207D1502080F31188BFF3EA
:104CE0004F8FBFF36F8FFEE722683AB1502080F3F9
:104CF0001188BFF34F8FBFF36F8FFEE7884360606B
:104D000000F080F860686968084468602046FFF732
:104D100005FE2869401C2861BDE8704000F004BA17
:104D200070BD0000600100204FF0E0200021016113
:104D3000816105494FF47A720968B1FBF2F1491EAD
:104D400041610721016170472001002010B5020078
:104D500014D00F48006B38B1502080F31188BFF396
:104D60004F8FBFF36F8FFEE700F04CF80021104625
:104D7000FFF778FC00F0D8F9002807D105494FF07B
:104D800080500860BFF34F8FBFF36F8F10BD0000DE
:104D90002401002004ED00E010B586B00024039447
:104DA00005AA04A903A80494FFF71CFFDDE9030189
:104DB0000094CDE9011000230EA11048059A00F0DF
:104DC00014F90F490028C86211D0502080F31188CF
:104DD000BFF34F8FBFF36F8F4FF0FF30886201201A
:104DE0004861CC6006B0BDE8104000F041B806B0A4
:104DF00010BD000049444C45000000002548000853
:104E0000240100200248016B491C01637047000027
:104E1000240100201448016B11B10121C1617047C8
:104E20000021C1610169B1FA81F1C1F11F0101EBFA
:104E300081020E4951F822306BB101EB820101F180
:104E400008034A6852684A609A4201D152684A602F
:104E5000D16801607047502080F31188BFF34F8FF5
:104E6000BFF36F8FFEE7000024010020880B0020B5
:104E70001CB537480168374A914207D1502080F36A
:104E80001188BFF34F8FBFF36F8FFEE70068314982
:104E9000491E884207D1502080F31188BFF34F8FFD
:104EA000BFF36F8FFEE72C4908780190FF20087050
:104EB00008788DF800009DF800009DF8002000F0B3
:104EC000F000904207D0502080F31188BFF34F8F3D
:104ED000BFF36F8FFEE79DF80000204C00F05000FC
:104EE00020700720A06005E09DF8002052008DF89A
:104EF0000020401E9DF800201206F5D4A060032873
:104F000007D0502080F31188BFF34F8FBFF36F8F0E
:104F1000FEE74FF44070A060019808700C48203004
:104F2000016841F470010160016841F07041016065
:104F3000FFF7FAFE00206060FBF7BAF90848016845
:104F400041F040410160FBF79FF900201CBD0000CB
:104F500000ED00E071C20F4100E400E0800100209C
:104F600034EF00E010B5502080F31188BFF34F8F6D
:104F7000BFF36F8F00F072F818B104494FF0805002
:104F80000860002080F3118810BD000004ED00E0EF
:104F90002DE9FF5F8346DDE90E87994616468A466E
:104FA0009000FFF705FD05001CD05420FFF700FD21
:104FB000040014D00020256384F85100CDE902409C
:104FC000CDE900874B46324651465846FFF75AFC1A
:104FD0002046FFF77FFB012004B0BDE8F09F284684
:104FE000FFF770FE4FF0FF30F6E7F0B585B0DDE972
:104FF0000B640A9DA6B1DCB15427009726630226F4
:1050000084F85160002604AFCDE90246CDE900578F
:10501000FFF738FC2046FFF75DFB049805B0F0BDB4
:10502000502080F31188BFF34F8FBFF36F8FFEE7DF
:10503000502080F31188BFF34F8FBFF36F8FFEE7CF
:105040000548416919B1006B18B100207047012073
:105050007047022070470000240100202DE9F04134
:105060002F4C0026206B28B1A069401CA06130465F
:10507000BDE8F081E5686D1CE56013D1606B0068E8
:1050800038B1502080F31188BFF34F8FBFF36F8F7B
:10509000FEE7606BA16B6163A063206A401C206225
:1050A000FFF762FCA06ADFF87C80854209D3606B61
:1050B0000068A0B1606BC068C7687868854211D28B
:1050C000A0622068C06A00EB800158F82100012826
:1050D00000D90126E0690028C9D00126C7E74FF0B2
:1050E000FF30EDE7381DFFF769FDB86A18B107F129
:1050F0001800FFF763FDF96A012022698840104318
:10510000206101EB810108EB8100391DFFF79AFD59
:10511000F86A2168C96A8842C9D30126C7E7000036
:1051200024010020880B00202DE9F0472C4D00249D
:105130002746286B38B1FFF791FD286B401E286386
:10514000286B40B146E0502080F31188BFF34F8FA9
:10515000BFF36F8FFEE7A968224E0120D1B3A6F1FD
:10516000B40980463068E8B1F068C46804F11800FA
:10517000FFF724FD201DFFF721FDE06A2A6908FAE8
:1051800000F11143296100EB800109EB8100211D31
:10519000FFF758FDE06A2968C96A8842E2D3C5F87A
:1051A0001C80DFE70CB1FFF7DFFBAC6944B146467A
:1051B000FFF754FF00B1EE61641EF9D10020A86131
:1051C000E86938B10849012738070860BFF34F8FF5
:1051D000BFF36F8FFFF762FD3846BDE8F087000030
:1051E000240100203C0C002004ED00E021F00042EE
:1051F000A2F16052B2F5801F01F0004328BFD2F146
:105200007F6C0BD95FEA001C43EAC20242EB50708C
:1052100018BF704728BF20F001007047B2F5801F0B
:10522000BCBF184670474FEA410C1CF5001F02D264
:10523000084600F024BC70B500F0DEFA00000089DA
:10524000FFF7F6BF4FF00040A0F580007047000068
:1052500010B591EA030F48BF83F0004300F12883A3
:10526000841A71EB030C05D2121943EB0C03001BDB
:1052700061EB0C01DFF824E14FEA1154A4EB135C5D
:105280001EEA430F18BF9EEA445F73D023EA0E0361
:10529000DCF1200E21EA045143F4801332D322FAC8
:1052A0000CFE10EB0E0023FA0CFE41EB0E01CCF1CC
:1052B000200E03FA0EFE10EB0E0051F10001B1F5C5
:1052C000801FCCF1200E32D201EB045112FA0EF203
:1052D000BDE8104058BF7047401C38BF5FEA42022B
:1052E00018BF7047002814BF20F0010041F10001F1
:1052F0004FEA410313F5001F38BF7047A1F1C041C9
:1053000000F0C8BA012A43EB0302ACF1200CDCF137
:105310001F0E32BF4FF0000E23FA0CF310EB030008
:1053200041EB0451B4EB115FD0D0A1EB045101F576
:10533000801149085FEA300001EB04510ED350F1AF
:10534000000038BF12FA0EFE08D1BDE81040C9E7D0
:10535000401C38BF5FEA4202CAD1C3E7BDE8104033
:105360004FEA410313F5001F38BF7047A1F1C04158
:1053700000F090BA9EEA445F08D011EA5E0FBDE8E3
:10538000104004BF01F0004100207047BDE810400C
:1053900070B500F031FA00BF64FBBE3E0000E0FFD4
:1053A0002DE9C04130B4DFF8A0C23CEA111418BFA7
:1053B0003CEA131400F0EC8081EA03051CEA1114A6
:1053C00044EAD57418BF1CEA131500F0C780A4EB9B
:1053D00005044FF0004545EAC12145EAC32341EAEF
:1053E000505143EA525304F17F74994204F500345A
:1053F0004FEAC0204FEAC22208BF904200F09C80D2
:105400004FEA13650FF24016765D4FEA134506FB2F
:1054100005F7C7F1807706FB07F74FEAD737A7FBF9
:1054200003687642C8F58038A7FB06CE38BFA8F1DE
:10543000010807FB08E64FF0000EA6FB028CE6FB16
:1054400003CEDCF1000CCEF1004E38BFAEF1010E00
:10545000A6FB0C584FF000074FF00005E6FB0E8747
:10546000A1FB08C6A0FB07CE16EB0E0645F1000512
:10547000E1FB076515F1E04E7EBFA4F580345FEADD
:1054800046066D4116F1800745F100054FEA1727E2
:105490004FEA066647EA0567A6F1DE46B6F1805F89
:1054A0004FEA15251FD9384624F0010C05EBC471CD
:1054B000BCF1FE6F01EB0C1102D8F0BCBDE800811D
:1054C00024425CBF01F5801E9EEAC47F02D4F0BC7A
:1054D000BDE80081244238D4F0BCA1F1C041BDE850
:1054E000004100F0D7B94FEAD22242EA43524FEAD4
:1054F000D323A7FB02864FEAD02040EA415007FBA6
:1055000003661EEA0E0F4FEAD12105FB026658BF63
:10551000A6EB0056B6EB00564FEA520E4EEAC37E9B
:1055200018EB0E0E56EB530EBDD518EB02085E417C
:105530007F1C55F10005B6E74FF480154FF00007CA
:105540004FF000064FF00008ADE7F0BC4FF0000050
:1055500001F1C04101F00041BDE8008111EA0C1FDA
:105560000CEA131500D00CE013EA0C1F00F02580A4
:105570004FF00000F0BC81EA030101F00041BDE8FA
:105580000081F0BCBDE8004181EA030100F082B96E
:10559000F0BCBDE8004170B500F02EF9097EFC3E7C
:1055A00000F007B881EA03014FF0000001F000416C
:1055B000704781EA030100F06DB9F0BCBDE800411D
:1055C0004FF0000021497047FFFDFBF9F7F5F4F2B9
:1055D000F0EEEDEBE9E8E6E4E3E1E0DEDDDBDAD88E
:1055E000D7D5D4D3D1D0CFCDCCCBCAC8C7C6C5C4EC
:1055F000C2C1C0BFBEBDBCBBBAB9B8B7B6B5B4B303
:10560000B2B1B0AFAEADACABAAA9A8A8A7A6A5A4ED
:10561000A3A3A2A1A09F9F9E9D9C9C9B9A999998B1
:105620009797969595949393929191908F8F8E8E54
:105630008D8C8C8B8B8A89898888878786858584E1
:1056400084838382828181800000FF070000F87FCD
:1056500010F0004248BF4042B0FA80F310FA03F164
:105660000AD0C3F11D0303F580634FEA415002EBFA
:10567000035202EBD12170474FF000007047B0FA9F
:1056800080F310FA03F10AD0C3F11D0303F5806320
:105690004FEA41504FEA035202EBD12170474FF0DD
:1056A00000007047DFF848C170B51CEA111E1EBF2C
:1056B0001CEA13159EEA0C0F95EA0C0F00F06F80A0
:1056C00081EA030423EA4C134EEAD47E21EA4C110A
:1056D00041F4801143F48013AE44A1FB024CA0FBC3
:1056E0000365AEF17F7E361955EB0C05A1FB034C2B
:1056F0004CF10003A0FB021C16EB0C06654153F1B4
:105700000003094218BF46F0010613F4007F0BD1D5
:105710004FEA03314FEA0530340341EA155140EABC
:1057200016506FF003020AE04FEAC3214FEAC5208A
:10573000F40241EA555140EA56506FF0020202EB82
:105740002E4201EB025585EACE710AD05FEA440C85
:1057500018BF24F0004450F1000041F1000120EA9C
:10576000D47040F2FE7C624500D270BDA84214BFE6
:105770004FF080444FF04044002E08BF0024BEF19B
:10578000806FA8BFA1F1C041BDE8704080F2828067
:105790004FF0000001F1C04101F0004170479EEA66
:1057A0000C0F0CEA131518BF95EA0C0F06D04FF03A
:1057B000000081EA030E0EF0004170BD00F01CF8FD
:1057C0008900013E00F007B800F009B84FEA430C29
:1057D0005FEA5C5C08D081EA030100F05BB84FEA45
:1057E000410C5FEA5C5CF6D14FF000000149704764
:1057F0000000FF070000F87F0EF1020E2EF0030EEE
:105800005EF8046B364205D4012A43EB030515F517
:10581000001F12D8012841EB010C1CF5001F0CD809
:105820000ED14FEAD17C15F5001F0CEB4C0C0CF19E
:10583000020C08BF4CEBD37C04E04FF0080C01E0F5
:105840004FEAD37C0CEB4C0526FA05F606F007066A
:10585000B6F1040C06D20EEB860CBDE870404CF09D
:10586000010C6047DFE80CF0090B02024FF0004129
:105870004FF00000A1F5002170BD19461046012827
:1058800051EB010418BFD4F5001484BF002001F0CF
:10589000004170BD0808A0F500114FEA31017047C2
:1058A00010B591EA030F48BF83F000433FF5D8AC31
:1058B000841A71EB030C07D212198CF0004C43EBE5
:1058C0000C03001B61EB0C01DFF8A4E14FEA11545B
:1058D000A4EB135C1EEA430F18BF9EEA445F00F07E
:1058E000B08023EA6E03524221EA0451C3EB6E03F7
:1058F00038BF5B1EDCF1200E25D322FA0CFE10EB24
:105900000E0043FA0CFE41EB0E01CCF1200E03FA1F
:105910000EFE10EB0E0051F10001CCF1200E29D447
:1059200012FA0EF201EB0451BDE8104058BF704767
:10593000401C1CBFB2F1004F704700280CBF491C2F
:1059400020F00100704712EB020E43EB030218BF78
:105950004FF0010E4EEA4202ACF1200CDCF11E0EBB
:1059600054D943FA0CFE10EB0E0051F1FF31CCF18B
:105970001E0ED5D50EF1010E12FA0EFE404141EB7E
:10598000010101EB445C5FEA5C5C10D910EBDE7056
:1059900001EB045138BFBEF1004FBDE8104018BF05
:1059A000704700280CBF491C20F00100704730D21E
:1059B0004FEAD42C11F5001124F400641BD0B1FA85
:1059C00081F20B3AA41AA41ED2F12003914030FABE
:1059D00003F31943904001EBCC71002C01EB04510F
:1059E000BDE81040A8BF704701F1C0414FF0000072
:1059F00001F000417047B0FA80F310FA03F100D1D2
:105A000010BDE41A173C4805C90AE4E701EB04514C
:105A100010BD491001EB0451BDE810404FEA3000C1
:105A200002E04FF0000170474A0008BF0042F8D082
:105A3000B2F5001F28BF704701F000414FF0000091
:105A400070479EEA445F07D011EA5E0FBDE8104040
:105A500004BF002100207047BDE8104070B5FFF77B
:105A6000CBFE00BF40DFF63E83F00041104670479A
:105A70000000E0FF4FF04070E1EE100A7047FF2198
:105A800041EAD050C0057047305B00084929000842
:105A90000000000000000000800000000000000086
:105AA00000000000205B0008112300080000000037
:105AB0000000000080000000000000000000000066
:105AC000185B0008C94A0008000000000000000040
:105AD000800000000000000000000000285B0008BB
