:020000040800F2
:10000000204B0020E902000853200008D71C0008FC
:100010005120000843050008812800080000000066
:10002000000000000000000000000000290200089D
:10003000010600080000000085020008BD2000083D
:100040000303000803030008030300080303000878
:100050000303000803030008030300080303000868
:100060000303000803030008030300080303000858
:100070004505000803030008030300080303000804
:100080000303000803030008030300080303000838
:100090000303000803030008030300080303000828
:1000A0000303000803030008030300080303000818
:1000B0000303000803030008030300080303000808
:1000C00003030008030300080303000803030008F8
:1000D000030300080303000803030008CD270008FA
:1000E00003030008030300080303000803030008D8
:1000F00003030008030300080303000803030008C8
:1001000003030008030300080303000803030008B7
:1001100003030008030300080303000803030008A7
:100120000303000803030008510500080303000847
:100130000303000803030008030300080303000887
:100140000303000803030008030300080303000877
:100150000303000803030008030300080303000867
:100160000303000803030008030300080303000857
:100170000303000803030008030300080000000055
:10018000030300080303000800F002F800F03CF845
:100190000AA090E8000C82448344AAF10107DA45E2
:1001A00001D100F031F8AFF2090EBAE80F0013F0F8
:1001B000010F18BFFB1A43F001031847A83A0000CB
:1001C000C83A0000103A24BF78C878C1FAD852075C
:1001D00024BF30C830C144BF04680C6070470000C1
:1001E0000023002400250026103A28BF78C1FBD840
:1001F000520728BF30C148BF0B6070471FB503F0DE
:10020000D1FC1FBD10B510BD00F061F91146FFF71C
:10021000F5FF02F075FE00F07FF903B4FFF7F2FF7F
:1002200003BC00F087F900002C4B19680868B0E89F
:10023000F04F80F30988BFF36F8F4FF0000080F319
:10024000118870470000000008480068006880F3CB
:1002500008884FF0000080F3148862B661B6BFF3DF
:100260004F8FBFF36F8F00DF00BF00BF08ED00E0CE
:10027000DFF80C00016841F470010160704700BFB5
:1002800088ED00E0EFF30980BFF36F8F134B1A681E
:100290001EF0100F08BF20ED108A20E9F04F10600B
:1002A00009B44FF0500080F31188BFF34F8FBFF3B4
:1002B0006F8F03F08BFA4FF0000080F3118809BCB8
:1002C00019680868B0E8F04F1EF0100F08BFB0ECD6
:1002D000108A80F30988BFF36F8F704724000020D5
:1002E000EFF3058070470000094880470948004740
:1002F000FEE7FEE7FEE7FEE7FEE7FEE7FEE7FEE7D6
:10030000FEE7FEE704480549054A064B7047000032
:10031000692100088901000820450020204B0020A9
:10032000204700202047002053EA020C00F069809B
:100330002DE9F04B4FF00006002B1FBFB3FA83F5F9
:1003400003FA05F424FA05F65E4012BF1643B2FA2A
:1003500082F502FA05F4C5F120051EBF22FA05FC5C
:1003600044EA0C04203556EA044C4FEA144418BF02
:10037000641C4FF000084FF00009904271EB030C31
:1003800039D3002919BFB1FA81F701FA07F6B0FA9B
:1003900080F700FA07F6C7F120071EBF20FA07FC16
:1003A00046EA0C062037B6FBF4FCA7EB0507103F26
:1003B00007F01F0BCBF120060CFA0BFB2CFA06F60C
:1003C00044BFB3460026202FA4BF5E464FF0000B6B
:1003D0005BEA060C08BF4FF0010B19EB0B09ABFBF6
:1003E000027C48EB0608C01B06FB02CC0BFB03CCCF
:1003F00071EB0C01C1E70B46024641464846BDE899
:10040000F08B13B54FF000004FF00001AFF3008008
:10041000BDE81C40704710B5203AC0F00B80B1E831
:100420001850203AA0E81850B1E81850A0E8185029
:10043000BFF4F5AF5FEA027C24BFB1E81850A0E832
:10044000185044BF18C918C0BDE810405FEA827C4C
:1004500024BF51F8043B40F8043B08BF7047D20763
:1004600028BF31F8023B48BF11F8012B28BF20F804
:10047000023B48BF00F8012B70474FF0000200B567
:10048000134694469646203922BFA0E80C50A0E8B7
:100490000C50B1F12001BFF4F7AF090728BFA0E865
:1004A0000C5048BF0CC05DF804EB890028BF40F831
:1004B000042B08BF704748BF20F8022B11F0804F73
:1004C00018BF00F8012B704770477047704775469A
:1004D00000F02CF8AE4605006946534620F00700B0
:1004E000854618B020B5FFF70DFFBDE820404FF05E
:1004F00000064FF000074FF000084FF0000B21F00E
:100500000701AC46ACE8C009ACE8C009ACE8C009DA
:10051000ACE8C0098D46704710B50446AFF30080C3
:100520002046BDE81040FFF778BE00000048704745
:10053000C044002001491820ABBEFEE7260002009F
:100540007047FEE7014800F08DBA000074040020F7
:10055000014800F087BA0000140400200168182345
:10056000CAB2103AB2FBF3F2054B6FF30901032A4A
:100570009B5CC36500D9091D816508467047000072
:10058000203C000810B5014600208B698A6A4FF0B4
:10059000C07453B1B3F5005F15D072B1012A0CD00D
:1005A000022A0AD0032A09D104E01AB1012A06D08E
:1005B000022A03D1C96AC90100D5012010BDC96A48
:1005C000A142FAD010BD002AF7D0012AF2D0022AA7
:1005D000F3D0032AF3D010BD30B50468256825F4A4
:1005E00080252560046863608368402B036803D01E
:1005F00099600068C26030BD9A600068C16030BD1B
:10060000704772B6FEE790F82020012A07D0022A30
:1006100005D0416A41F480214162012070470068A1
:1006200042690A43426100207047F0B590F82050BB
:100630000468A468012D05D0022D03D0416A41F45D
:1006400080215DE014F0406F01D1E50055D5C4F381
:100650000164022C03D9416A41F4000150E00125F4
:10066000A5401D608D684FF4C0739DB1CE683543C1
:100670004E6845EAC605066803EB0417F5514FF4CA
:10068000C275076805EB04150E697E51097D0129C5
:1006900005D009E00E88CD6845EA4655EBE70168CC
:1006A0004E5946F480764E511179D579567941EA02
:1006B000056195792D0445EA062529434FF4C67650
:1006C000056806EB0416A9511178D57841EA056151
:1006D000957852782D0445EA022211434FF4C475EF
:1006E000026805EB04155151006803EB04114258F0
:1006F00042F0010242500020F0BD416A41F4001175
:1007000041620120F0BD000010B590F82020012AC0
:1007100007D0022A05D0416A41F4802141620120BC
:1007200010BD3B48D0F8002242F00102C0F8002280
:10073000D0F8002222F47C52C0F80022D0F8002227
:100740004B6A42EA0322C0F800220A7D02F01F032E
:1007500001229A40D0F81C329343C0F81C32CB6976
:10076000B3B9D0F80C329343C0F80C328C894B6883
:1007700064F31F434C6900EBC404C4F840320C8995
:100780000B6864F31F434C6900EBC404C4F84432A3
:10079000CB69012B16D1D0F80C321343C0F80C32C0
:1007A0000C884B6864F31F434C6900EBC404C4F825
:1007B00040320C89CB6864F31F434C6900EBC404DE
:1007C000C4F844328B69002BD0F804320ED01343A6
:1007D000C0F804320B69002BD0F8143208D0134350
:1007E000C0F81432096A012904D008E09343EFE706
:1007F0009343F5E7D0F81C121143C0F81C12D0F84F
:10080000001221F00101C0F80012002010BD00000C
:100810000064004070B5040003D094F8200010B1CB
:1008200004E0012070BD204600F082F820680168D5
:1008300041F00101016000F089FB0546052604E056
:1008400000F084FB401B0A2811D820684068C007CC
:10085000F6D02068016821F00201016000F076FB0B
:1008600005460BE000F072FB401B0A2806D9606ABF
:1008700040F40030606284F82060D2E7206840686D
:100880008007EFD4207E0128206801683DD021F048
:1008900080010160607E01282068016838D021F065
:1008A00040010160A07E01282068016833D021F05A
:1008B00020010160E07E0128206801682ED041F00F
:1008C00010010160207F01282068016829D021F0F3
:1008D00008010160607F01282068016824D021F0B0
:1008E00004010160D4E902010843D4E90412114370
:1008F00008436168491E08432168C861002060629E
:10090000012084F82000002070BD41F08001C0E784
:1009100041F04001C5E741F02001CAE721F0100194
:10092000CFE741F00801D4E741F00401D9E7000026
:10093000F0B587B0044614216846FFF79EFD2E4BA4
:100940002E48DFF8B0E01968D4F800C02B4A032520
:100950000226092710300024491CF4451AD11960D9
:10096000012907D1016841F000710160006800F0C1
:1009700000700590106840F0080010601068CDE924
:10098000005600F00800CDE9047069461C48CDE926
:1009900002452AE0DFF86CE0F44528D1D0F800C029
:1009A0004CF0806CC0F800C0D0F800C001290CF0F9
:1009B000806CCDF814C0196007D1016841F0007156
:1009C0000160006800F000700590106840F00200BF
:1009D0001060106802AB00F0020005906020CDE9C5
:1009E000000683E8B0006946074800F0ADF907B09B
:1009F000F0BD0000006400401000002030380240CC
:100A0000000C0240006800400004024070B504463B
:100A100090F82000012804D0606A40F40020606251
:100A200018E0022084F820002068016821F001010C
:100A3000016000F08BFA05460EE000BF00F086FA78
:100A4000401B0A2808D9606A40F400306062052023
:100A500084F82000012070BD20684068C007EDD1F7
:100A6000606270BD2DE9F84304464FF00009CDF8EF
:100A7000009063484FF41651A56D0068B0FBF1F784
:100A80002E6894F85C10082000FA01F131420FD072
:100A900021680A6852070BD50A6822F004020A602E
:100AA00094F85C108840A860606D40F001006065BB
:100AB00094F85C104FF0010808FA01F0304208D0B9
:100AC00021684969090604D5A860606D40F00200FC
:100AD000606594F85C1004208840304208D021689A
:100AE0000968890704D5A860606D40F0040060655E
:100AF00094F85C1010208840304218D021680968B2
:100B0000090714D5A86020680168490304D5006866
:100B1000000308D5A16C07E00168C90503D401688A
:100B200021F008010160216C09B12046884794F842
:100B30005C1020208840304231D021680968C90605
:100B40002DD5A86094F8350005282068016806D0E6
:100B5000490347D5006800031DD4616C1CE021F0F7
:100B6000160101602068416921F080014161206C1B
:100B700008B9A06C20B12068016821F0080101606B
:100B800094F85C103F208840A86084F8358084F891
:100B90003490216D1FE0E16B09B120468847606DFC
:100BA00000282BD0606DC00714D0052084F83500D4
:100BB0002068016821F0010101600098401C00904C
:100BC000B84203D820680068C007F6D184F83580A1
:100BD00084F83490E16C002910D001B02046BDE8C3
:100BE000F04308470168C905D5D4016821F0100118
:100BF000016084F8358084F83490CCE7BDE8F88350
:100C0000200000202DE9F041044600F09FF906463F
:100C10005CB1022084F83500002584F83450206847
:100C2000016821F0010101600DE00120BDE8F081C3
:100C300000F08CF9801B052805D920206065032071
:100C400084F83500F2E720680068C007F0D1226818
:100C5000116820480140D4E901031843D4E9033660
:100C60003343184363691843A3691843E36918437E
:100C7000236A18430843616A042903D1D4E90B139A
:100C800019430843106020684069666A20F0070134
:100C900030460E43012704280CD1A06A0643E06ABF
:100CA00040B12046FFF76EFC20B14020606584F81B
:100CB0003570BAE7206846612046FFF74FFC94F88C
:100CC0005C203F2191408160656584F8357000208B
:100CD000ACE700003F8010F02DE9F0410446866D3E
:100CE00090F83400002501280DD0012084F834004C
:100CF00094F835700020012F07D084F834000225C5
:100D00002846BDE8F0810220FBE7022784F8357011
:100D100060652046FFF760FC94F85C103F20884037
:100D2000B0602068016841F016010160206C20B1BC
:100D30002068016841F0080101602068016841F005
:100D400001010160DCE700002DE9F84FDFF8BCA1EC
:100D5000002201250AF1040B03264FF00F090BF1C5
:100D6000040E00BF0B6805FA02F42340A34270D1C1
:100D70000F7907F00307012F01D0022F16D18768E2
:100D80004FEA420806FA08FC27EA0C07D1F80CC023
:100D90000CFA08FC4CEA070CC0F808C04768A743E7
:100DA0000C79C4F3001494403C4344600C79E44350
:100DB000A4070AD0C4684FEA420C06FA0CF7BC43F9
:100DC0008F6807FA0CF72743C7600C7904F0030417
:100DD000022C12D1D40800EB840CDCF82040570719
:100DE000FF0E09FA07F824EA0804D1F8108008FA7F
:100DF00007F848EA0408CCF8208004684FEA420C5F
:100E000006FA0CF7BC430F7907F0030707FA0CF753
:100E1000274307604C6814F4403F70D03C4C27686F
:100E200047F480472760246822F0030704F48044D5
:100E30000094384C07EB040CDCF8084897074FEA9D
:100E4000177809FA08F7BC43334FB84202D100279C
:100E500024E054E0314FB84201D101271EE0304F69
:100E6000B84201D1022719E02E4FB84201D1032721
:100E700014E02D4FB84201D104270FE02B4FB842A8
:100E800001D105270AE02A4FB84201D1062705E023
:100E9000284FB84201D1072700E0082707FA08F7D2
:100EA0002743CCF80878DAF800405746D1F804C058
:100EB0009C435FEACC3C00D51C433C60DBF800401F
:100EC0005F46D1F804C09C435FEA8C3C00D51C43CC
:100ED0003C60DEF800407746D1F804C09C435FEAEE
:100EE000CC2C00D51C433C60084F0C373C68D1F833
:100EF00004C09C435FEA8C2C00D51C433C60521C10
:100F0000102AFFF42FAFBDE8F88F0000003C01402D
:100F1000443802400030014000000240000402401A
:100F200000080240000C0240001002400014024081
:100F300000180240001C02400069084000D0012057
:100F400070470AB1816170470904FBE70148806876
:100F500070470000140000200248816802781144A4
:100F600081607047140000200B4810B5016841F4FF
:100F700000710160016841F480610160016841F421
:100F800080710160032000F073F80F2000F006F874
:100F900000F024F8002010BD003C024070B50D4D5B
:100FA00004464FF47A712878B1FBF0F00A490968D9
:100FB000B1FBF0F000F010FB48B9102C07D2002272
:100FC0002146501E00F034F800206C6070BD0120F6
:100FD00070BD000014000020200000200C4882B0EA
:100FE000016841F480410160006800F48040009095
:100FF0000748001F016841F080510160006800222D
:1010000000F0805000900F21901E02B000F010B848
:1010100044380240002809DB00F01F020121914002
:101020004009800000F1E020C0F800117047000086
:10103000F0B40E4B1B680C46C3F30223C3F1070543
:10104000042D00D90425191D072901D2002300E031
:10105000DB1E012606FA05F1491E214099409E40FB
:10106000761E16403143F0BC01F00BBC0CED00E0E5
:10107000064900F0070208684FF6FF03184040EAEF
:101080000220034A10430860704700000CED00E0A6
:101090000000FA052DE9F0470E46050065D0DFF89F
:1010A0001481D8F80000F7B200F00700B04207D270
:1010B00088F80070D8F8000000F00700B04254D162
:1010C00028683D4C810712D5400703D5206840F4BD
:1010D000E05020602878000703D5206840F4604085
:1010E00020602068A96820F0F0000843206028787C
:1010F000C0072DD0304968680839012812D002286D
:1011000013D0032811D00968890700292DDA216836
:1011100021F0030101432160FFF718FF814641F2EE
:10112000883A0EE009688903EFE709688901ECE76E
:10113000FFF70CFFA0EB0901514502D90320BDE8E0
:10114000F0872068696800F00C00B0EB810FEFD1E8
:10115000D8F80010404601F00701B14207D90770E6
:10116000006800F00700B04201D00120E7E72878CE
:10117000400705D52068E96820F4E0500843206066
:101180002878000706D52068296920F4604040EAE5
:10119000C100206000F038F82168084AC1F303114B
:1011A000515CC8400649086006480068FFF7F6FE33
:1011B0000020C4E7003C024008380240283C0008F8
:1011C0002000002018000020044805490068096834
:1011D000044AC1F38221515CC840704720000020BE
:1011E00008380240383C000804480549006809688E
:1011F000044AC1F34231515CC840704720000020CE
:1012000008380240383C0008154810B5006810F056
:101210000C02144813D01449042A0FD0082A0ED106
:101220000F4C241F2268236802F03F025B0207D59F
:101230002068C0F38810A0FB010106E0084610BD3D
:101240002168C1F38811A1FB00010023FFF76CF8AE
:101250002168C1F30141491C4900B0FBF1F010BD08
:10126000083802400024F400001BB7002DE9F84FB5
:1012700004006ED02078DFF84C93C007A9F1040574
:101280004AD009F104000168C1F38101012908D0A5
:101290000068C0F3810002280AD1D9F8000040029A
:1012A00006D52868800337D560680028E1D033E090
:1012B0006068B0F5803F10D0B0F5A02F286810D03E
:1012C00020F480302860286820F48020286060683E
:1012D000A8B1FFF73BFE06460DE0286840F48030D9
:1012E000F4E740F480202860F7E700BFFFF72EFE08
:1012F000801B642873D828688003F7D50CE0FFF7BB
:1013000025FE064605E000BFFFF720FE801B64288F
:10131000F0D828688003F7D42078DFF8AC82800703
:101320004FF0000A3ED5A748001D016811F00C0FD0
:1013300008D00068C0F3810002280BD1D9F8000062
:10134000400207D42868800716D5E068012800D13C
:1013500012E033E1E068B8B10120C8F80000FFF7FF
:10136000F5FD064605E000BFFFF7F0FD801B0228F3
:10137000C0D828688007F7D52868216920F0F800D0
:1013800040EAC10028600DE0C8F800A0FFF7DEFDCC
:10139000064604E0FFF7DAFD801B02281FD8286804
:1013A0008007F7D42078000722D5864F87486169E7
:1013B000703771B101210160FFF7C8FD064604E0F6
:1013C000FFF7C4FD801B022809D838688007F7D5CD
:1013D0000EE0C0F800A0FFF7B9FD064605E082E088
:1013E000FFF7B4FD801B02287DD838688007F7D44A
:1013F0002078400768D5DFF8CCB100270BF13C0B13
:10140000DBF80000C0000BD4DBF8001041F0805185
:10141000CBF80010DBF80000012700F080500090AE
:101420006B4E3068C00510D4306840F48070306076
:10143000FFF78CFD009005E0FFF788FD0099401A4A
:10144000022850D83068C005F6D55E4EA0686C36CC
:1014500001280FD00528306810D020F0010030603E
:10146000306820F004003060A068B8B1FFF76EFD6E
:1014700000900FE0306840F00100F4E740F0040015
:101480003060F7E7FFF762FD0099411A41F28830BA
:10149000814266D830688007F4D50EE0FFF756FD2C
:1014A000009007E0FFF752FD0099411A41F28830A1
:1014B000814256D830688007F4D42FB1DBF8001091
:1014C00021F08051CBF80010A069C8B33D49091D37
:1014D0000968C1F3810102294AD00228504607D089
:1014E000C8F8600000E03CE0FFF730FD04463BE058
:1014F0004746C8F86000FFF729FD064605E000BF33
:10150000FFF724FD801B02282BD828688001F7D420
:10151000D4E907010843A16A2E4A490802EB0141B8
:10152000626A41EA8211084394F82C1040EA016192
:10153000C9F8001001203866FFF708FD044606E0F0
:101540003EE000BFFFF702FD001B022809D8286813
:101550008001F7D534E000BFFFF7F8FC001B02283C
:1015600002D90320BDE8F88F28688001F4D427E071
:101570000128F7D0D9F80000E26900F48001914217
:101580001CD1226A00F03F01914217D147F6C07189
:10159000626A0140B1EB821F10D1A26A4FF0FF33A3
:1015A00000F4403103EB5202B1EB024F06D194F844
:1015B0002C1000F07060B0EB016F01D00120D1E77A
:1015C0000020CFE70438024000004742800E474227
:1015D000007000400000FFFF10B5401EB0F1807F9A
:1015E00001D3012010BD4FF0E02460610F2160178E
:1015F00001F047F90020A06107202061002010BD04
:1016000010B590F83C20012A22D0012280F83C201D
:10161000CA688C6822F4407222434C6822F48062CB
:1016200022430C6822F4006222430C6922F48052A7
:1016300022434C6922F400522243C969002322F458
:1016400080420A4301684A6480F83C30002010BDA3
:10165000022010BD70B590F83C20012A32D0012440
:1016600080F83C40022280F83D2003685A689D685B
:1016700022F070060A6832435A60134B02689A429D
:1016800014D0B2F1804F11D0104B9A420ED0104BB3
:101690009A420BD00F4B9A4208D00F4B9A4205D07A
:1016A0000E4B9A4202D00E4B9A4204D1496825F063
:1016B00080031943916080F83D40002180F83C1080
:1016C000084670BD022070BD0000014000040040CB
:1016D00000080040000C00400004014000400140B0
:1016E0000018004010B5040003D094F83D0010B17C
:1016F00007E0012010BD002084F83C00204600F0E7
:101700001FF8022084F83D00211D206800F034FD00
:10171000012084F8460084F83E0084F83F0084F8F5
:10172000400084F8410084F8420084F8430084F8C3
:10173000440084F8450084F83D00002010BD0000FE
:1017400008B500680649884208D10648016841F09A
:1017500001010160006800F00100009008BD000078
:10176000000001404438024090F83D10012901D0AA
:1017700001207047022180F83D100068114988421D
:1017800014D0B0F1804F11D00F4988420ED00F49CC
:1017900088420BD00E49884208D00E49884205D0B5
:1017A0000D49884202D00D49884204D1816801F078
:1017B0000701062903D0016841F001010160002002
:1017C0007047000000000140000400400008004095
:1017D000000C00400004014000400140001800409F
:1017E00070B5044690F83C000025012817D001266A
:1017F00084F83C60022084F83D002068826822F072
:10180000770222F47F4282600868502838D00DDCCD
:1018100020284FD005DC90B3102811D14AE00220D7
:1018200070BD302846D040280AD13BE060282FD038
:1018300070280DD0B0F5805F03D0B0F5005F12D0F6
:10184000012584F83D60002084F83C00284670BDE6
:10185000CB68D1E90121206800F0FFFC2068816895
:1018600041F0770109E0CB68D1E90121206800F05F
:10187000F4FC2068816841F480418160E1E719E06F
:10188000CA684968206800F0BDFD5021206806E064
:10189000CA684968206800F0C6FD6021206800F031
:1018A000E6FCCEE7CA684968206800F0ABFD40213D
:1018B0002068F4E7226801461046F0E710B586B0CC
:1018C000044614216846FEF7D8FD0E492068884278
:1018D00016D10D480021026842F010020260006833
:1018E00000F0100005904FF4206000900220CDE938
:1018F00001010120CDE9031069460448FFF724FAED
:1019000006B010BD00000140303802400010024017
:1019100070B5044690F83C0000260D4601280FD013
:10192000012084F83C006AB1042A1DD0082A2FD077
:101930000C2A3FD00126002084F83C00304670BDC0
:10194000022070BD206800F09BFC2068816941F096
:10195000080181612068816921F0040181612068AA
:1019600081692A69114311E0206800F0B9FC206800
:10197000816941F4006181612068816921F480619D
:101980008161206881692A6941EA02218161D2E787
:10199000206800F0DBFC2068C16941F00801C161EA
:1019A0002068C16921F00401C1612068C1692A6908
:1019B000114311E0206800F0FDFC2068C16941F48A
:1019C0000061C1612068C16921F48061C161206842
:1019D000C1692A6941EA0221C161ACE710B504007E
:1019E00003D094F83D0010B107E0012010BD0020A5
:1019F00084F83C00204600F01EF8022084F83D00E8
:101A0000211D206800F0B8FB012084F8460084F80E
:101A10003E0084F83F0084F8400084F8410084F8D8
:101A2000420084F8430084F8440084F8450084F8B8
:101A30003D00002010BD704710B50446022249B198
:101A400004290ED0082913D094F84100012816D09B
:101A5000012010BD94F83E000128F9D184F83E2001
:101A60000FE094F83F000128F2D184F83F2008E00D
:101A700094F840000128EBD184F8402001E084F87C
:101A800041200122206800F0DBFB16492068164A3D
:101A9000884201D0904203D1436C43F40043436435
:101AA0002068884213D0B0F1804F10D00F4988428F
:101AB0000DD00F4988420AD00E49884207D0904283
:101AC00005D00D49884202D00C49884204D1816872
:101AD00001F00701062903D0016841F0010101600E
:101AE000002010BD0000014000040140000400403F
:101AF00000080040000C0040004001400018004079
:101B00007047704770B5040004D094F83D0000257C
:101B100010B106E0012070BD84F83C50204600F072
:101B200023F8242084F83D002068C16821F4005186
:101B3000C160204600F032FD2068016921F4904127
:101B400001612068416921F02A0141612068C16872
:101B500041F40051C1602564202084F83D0084F8E0
:101B60003E00002070BD00002DE9F04F87B0064612
:101B700014216846FEF781FC424B3168002442483C
:101B80000225032207274FF000694FF4806A4FF4C3
:101B9000403B994241D13C4914310B6843F010035A
:101BA0000B60096801F010010591016841F0020124
:101BB0000160016801F002010591016841F0010135
:101BC00001600068CDE9024200F00100059080202C
:101BD000CDE900059046694604972C48FFF7B4F814
:101BE0002802CDE90005CDE9024869460497284856
:101BF000FFF7AAF8284D27482860C5E90194C5E9F0
:101C0000034A6C61AC61C5E9074B28466C6232E05F
:101C1000B563AE6307B0BDE8F08F204B9942F9D1B0
:101C2000194910310B6843F480230B60096801F4F3
:101C300080210591016841F0040101600068CDE94F
:101C4000024200F0040005904FF44060CDE9000529
:101C5000694604971248FFF777F80F4D1148603531
:101C60002860C5E90194C5E9034A6C61AC61C5E926
:101C7000074B28466C62FEF7C5FF0028C8D0FEF768
:101C8000C0FCC5E7001001403038024000040240AB
:101C9000000002404064024014040020004800405C
:101CA000000802402860024090F83E30202B0ED100
:101CB00059B152B190F83C30012B08D0012380F883
:101CC0003C300023036300F0EFBC0120704702208A
:101CD000704770477047FEE7094C0848606001F0A4
:101CE000CBF8606A8047E068804760698047206978
:101CF0008047A0698047206A8047F2E7792E000874
:101D0000644400200F4810B50D4901600321416073
:101D100000214FF410228160C0E903124FF4001239
:101D20004261017641768176C17601774177FEF78F
:101D300071FD002803D0BDE81040FEF762BC10BD65
:101D400000640040F40200200F4810B50D49016006
:101D50000321416000214FF410228160C0E9031289
:101D60004FF400124261017641768176C1760177A7
:101D70004177FEF74FFD002803D0BDE81040FEF785
:101D800040BC10BD006800401C030020114808B58D
:101D9000016841F400110160016801F40011009133
:101DA000016841F4800101600068002200F48000B5
:101DB000009005210C20FFF73BF90C20FFF72AF9D2
:101DC000002205213A20FFF733F9BDE808403A2008
:101DD000FFF720B93038024010B59CB01C221649DC
:101DE0006846FEF718FB0021684601F0EBF8134C3B
:101DF00011491C2220601C3107A8FEF70CFB0021B2
:101E000007A801F0DFF80C4960601C2238310EA8E9
:101E1000FEF701FB00210EA801F0D4F80649A060EE
:101E20001C22543115A8FEF7F6FA002115A801F07E
:101E3000C9F8E0601CB010BDB03B000800000020F5
:101E400030B587B014216846FEF717FB29480024F7
:101E5000016841F002010160016801F00201059191
:101E6000016841F001010160016801F00101059183
:101E7000016841F008010160016801F00801059165
:101E8000016841F004010160016801F0040105915D
:101E9000016841F480710160016801F4807105916D
:101EA000016841F080010160016801F08001059145
:101EB000016841F01001016000680F4D00F0100052
:101EC0000590002280212846FFF73BF880200090F3
:101ED0000120CDE90104694628460394FEF734FF4A
:101EE000A814CDE90004694604480294FEF72CFFCB
:101EF00007B030BD303802400020024000040240EC
:101F000010B596B000240F94109411941294139469
:101F10001C2168461494FEF7B0FA202107A8FEF7AA
:101F2000ACFA2D482B490160A721C0E9011444F601
:101F30001F61C0E9031444618461FFF7D3FB08B15A
:101F4000FEF75FFB4FF480500F900FA92248FFF778
:101F500047FC08B1FEF755FB1F48FFF73FFD08B1EE
:101F6000FEF74FFB139413A91B481494FFF772FB61
:101F700008B1FEF746FB602000904FF4FA60CDE90F
:101F800001040394049405940022694612480694BF
:101F9000FFF7BEFC08B1FEF734FB042269460E4889
:101FA000FFF7B6FC08B1FEF72CFB079408940994E0
:101FB0004FF400500A94CDE90B4007A906480E944F
:101FC000FFF71EFB08B1FEF71CFB0348FFF776FC8A
:101FD00016B010BD00000140440300200C4810B5AD
:101FE0000A4901604FF4E1314160002181600C2217
:101FF000C160C0E904128161C161FFF783FD00285F
:1020000003D0BDE81040FEF7FCBA10BD001001403F
:102010008C0300200C4810B50A4901600B4941604F
:10202000002181600C22C160C0E904128161C1619C
:10203000FFF768FD002803D0BDE81040FEF7E1BAC5
:1020400010BD000000480040D0030020A086010021
:10205000FEE7FEE730B5144B1C68656945F04005A6
:1020600065611B68DC6844F01004DC600F4B1C6881
:10207000256825F0010525601C682568ED07F7D166
:102080001D680B4CAC601C68E06018680161186842
:1020900042601868016841F4802101601868016895
:1020A00041F00101016030BDD00300207404002024
:1020B00004480040012000F079FFFBE710B5FEF76F
:1020C0004BFF01F099FC012803D0BDE8104001F05E
:1020D00025BC10BD30B593B030216846FEF7CDF970
:1020E00014210CA8FEF7C9F91D480025016841F02C
:1020F00080510160006800F080501190194801681B
:1021000041F4804101600068022400F48040119095
:1021100001200090000401908001CDE906400620D6
:102120000890A820CDE9090404200B906846FFF729
:102130009DF808B172B6FEE70CA90F2081E83100C6
:102140004FF4A0500F904FF48050109005210CA830
:10215000FEF7A0FF002801D072B6FEE713B030BD35
:1021600040380240007000400248016841F47001AC
:102170000160704788ED00E0F0B50268254C264DFF
:10218000264E274F274B4FF0804CA04209D0604588
:1021900007D0A84205D0B04203D0B84201D098423F
:1021A00004D122F0700E4A6842EA0E02A0421BD00F
:1021B000604519D0A84217D0B04215D0B84213D00C
:1021C000984211D0184DA8420ED0184DA8420BD0FD
:1021D000174DA84208D0174DA84205D0164DA84269
:1021E00002D0164DA84203D122F44075CA682A4392
:1021F0004D6922F080022A4302608A68C2620A683E
:102200008262A04201D0984201D109690163012193
:102210004161F0BD000001400004004000080040A2
:10222000000C004000040140004001400044014017
:102230000048014000180040001C00400020004001
:1022400010B501F01F030121046A99408C43046218
:10225000016A9A401143016210BD10B5846842EAD8
:10226000032224F47F440A432243826010BD826823
:1022700022F070020A4342F00701816070470000BB
:10228000F0B5026A22F001020262036A42688469C0
:10229000124E24F073050C682C4323F002058B6862
:1022A0002B430D4DA84201D0B04205D123F00807C1
:1022B000CB683B4323F00403A84201D0B04205D1D0
:1022C0004D6922F4407215438A692A434260846151
:1022D000496841630362F0BD000001400004014011
:1022E000F0B5026A22F010020262026A4368846951
:1022F0000D6824F4E64444EA05248D6822F02002A7
:1023000042EA05120F4D104EA84201D0B04206D14C
:10231000CF6822F0800242EA071222F04002A8426F
:1023200001D0B04207D14D6923F4406343EA8503ED
:102330008D6943EA85034360846149688163026271
:10234000F0BD00000000014000040140F0B5026A49
:1023500022F480720262026A4368C46922F4007245
:1023600024F073050C68124E2C438D6842EA052256
:102370000E4DA84201D0B04206D1CF6822F40062CF
:1023800042EA072222F48062A84201D0B04207D17B
:102390004D6923F4405343EA05138D6943EA05135D
:1023A0004360C4614968C1630262F0BD000001403E
:1023B0000004014030B5026A22F480520262046ACD
:1023C0004268C3690D6823F4E64343EA05238D6838
:1023D00024F4005444EA0534084DA84202D0084DC4
:1023E000A84204D14D6922F4804242EA851242603B
:1023F000C36149680164046230BD0000000001400F
:102400000004014010B5036A046A24F00104046268
:10241000846924F0F00444EA021423F00A020A4317
:102420008461026210BD10B5036A23F010030362D9
:102430008369046A23F4704343EA023224F0A00360
:1024400043EA01118261016210BD70B5846B20689E
:10245000406994F83D10C0F3C0100025212904D133
:1024600018B1E584204600F08AF82068406994F8A5
:102470003E10C0F38010222904D118B1E585204612
:1024800000F056F8206C40F0100020642046FFF762
:1024900038FB70BD10B50146806B09680968C90535
:1024A0002FD40021C18501680C3151E8002F22F49E
:1024B000807241E80023002BF5D10168143151E806
:1024C000002F22F0010241E80023002BF5D1016822
:1024D000143151E8002F22F0400241E80023002B84
:1024E000F5D1202180F83E10016B012909D1016846
:1024F0000C3151E8002F22F0100241E80023002B9C
:10250000F5D1016B012902D0FFF7E3FB10BD818DEE
:10251000FFF7F6FA10BD10B5806B016B012902D0F0
:10252000FFF7D8FB10BD818D4908FFF7E9FA10BD10
:1025300001680C3151E8002F22F4907241E8002329
:10254000002BF5D10168143151E8002F22F001026F
:1025500041E80023002BF5D1016B012909D1016865
:102560000C3151E8002F22F0100241E80023002B2B
:10257000F5D1202180F83E100021016370470168E9
:102580000C3151E8002F22F0C00241E80023002B5B
:10259000F5D1202180F83D107047000070B5044649
:1025A00000680169E26821F4405111430161216929
:1025B000A068E26908436169114308432168CA6859
:1025C00049F20C639A430243CA6020684169A269D8
:1025D00021F440711143416131492068884202D0A1
:1025E0003049884202D1FEF7FFFD01E0FEF7ECFD25
:1025F000E2690023192164253226B2F5004F626892
:1026000028D0A0FB0101930F9200FDF78DFE01463B
:10261000B0FBF5F06FF01802504301EB800006EBC1
:102620000010B0FBF5F000F0F002B1FBF5F002EBAA
:102630000012B1FBF5F06FF01803584301EB800076
:1026400006EB0010B0FBF5F000F00F00216810441D
:10265000886070BDA0FB010192185B41FDF764FE2C
:102660000146B0FBF5F00201B1FBF5F06FF0180385
:10267000584301EB800006EBC000B0FBF5F000F022
:10268000F80002EB4002B1FBF5F0584301EB80008B
:1026900006EBC000B0FBF5F000F00700D6E7000045
:1026A000001001400014014038B581628285002588
:1026B000134604460564222084F83E00A26B1B48A2
:1026C000D063A26B1A481064A26B1A48D064A06B46
:1026D0000A4605652168A06B091DFEF7FDFA206812
:1026E00001684068009084F83C5020680C3050E845
:1026F000001F41F4807140E80012002AF5D12068E3
:10270000143050E8001F41F0010140E80012002A97
:10271000F5D12068143050E8001F41F0400140E836
:102720000012002AF5D1002038BD000095240008D1
:10273000172500084B24000810B5252221492248FE
:10274000FFF7B2FA1F48A0F16001027F202A15D0DE
:10275000303AC37F02EB4204C4EBC21203EBC20265
:10276000437F642413FB04F3807F00EB800003EBC2
:1027700040001044A0F5A050D0381FE0427F202A2E
:1027800010D0C37F303A02EBC20404EB0212807F08
:1027900003EB820200EB80004FF6F05303EB4000A6
:1027A00010440BE0827FC07F202A09D0303A02EB30
:1027B00082026FF02F0303EB42021044C88210BD67
:1027C0003038FBE7244200208C030020264818B450
:1027D00000680168890604D501684068009018BC4B
:1027E000704722490968C906F9D501684068204A3E
:1027F0000090106801684FF024030C031D49046821
:1028000024F00104046016D410684468C4F1240460
:10281000A4B20C8043601068016841F4002101609B
:102820001068016841F001010160122CD7D11249F2
:1028300001F1180015E014686068C0F1240080B24E
:10284000088063600D498B6A23F400238B62116852
:102850000A6842F001020A601228C0D1064901F15B
:102860003C0018BC00F011BED0030020004800401E
:10287000740400208C000020C4410020006002404D
:10288000FEE70907090E002804DB00F1E02080F8CC
:102890000014704700F00F0000F1E02080F8141DD4
:1028A0007047000000B58BB000200121CDE9060182
:1028B0000891009001900290039005900490694661
:1028C0000C48FDF721FF0B48FEF7A0F8022109484C
:1028D000FDF799FE0E200990059069460648FDF720
:1028E00013FF0548FEF792F802210348FDF78BFE1F
:1028F0000BB000BDF40200201C030020114808B5F5
:102900004FF40071016000218160C1600821016104
:10291000A0F144010C480A8D130A037042704A8DDD
:10292000130A8370C2708A8E130A03714271C98EB2
:102930006B460A0A8271C171024602490348FDF7DB
:1029400074FE08BDA844002097000020F402002077
:10295000114808B54FF40071016000218160C16029
:1029600008210161A0F128010C488A8A130A03702A
:102970004270CA8A130A8370C2700A8B130A0371E9
:102980004271498B6B460A0A8271C1710246024943
:102990000348FDF74AFE08BD744200208F00002066
:1029A0001C030020164810B500214FF47A72C46948
:1029B000534224B1012C05D0022C06D007E08182BD
:1029C000C18204E08282C38201E08382C282046AFF
:1029D00024B1032C04D0042C04D004E0018302E0D1
:1029E000028300E00383446A2CB1062C05D0052C39
:1029F00000D1438310BD418310BD428310BD000050
:102A00004C42002010B5074C0548A0600648E06025
:102A10000648206100F05AF820600020E06110BDF7
:102A2000312A00084C420020A5290008512900083D
:102A30001D4900220868C37A022B0DD1B0F9063077
:102A4000002B01DD0123CB61B0F90630002B01DA48
:102A50000223CB61C38803B9CA61837A012B0DD1EC
:102A6000B0F90630002B01DD03230B62B0F906300C
:102A7000002B01DA04230B62C38803B90A62837A4C
:102A8000032B0ED1B0F90630002B01DD05234B627C
:102A9000B0F90630002B01DA06234B62C08800280B
:102AA00000D14A62704700004C420020064C0548A5
:102AB0006060FFF7A7FFA0688047E0688047206953
:102AC0008047F8E7052A00084C420020004870477C
:102AD000C4410020A0B1D0ED101AC0ED111A90ED44
:102AE0000F1A80ED101AC0ED060A80ED070A30EECD
:102AF000C00A80ED0F0A017829B101293BD078E0A6
:102B00009FED3D0A7047D0ED010A60EE801AC0EDDE
:102B1000091AD0ED0A0A90ED022A42EE000A30EEC0
:102B2000410AC0ED0A0A90ED0D2A80ED0E2A90EDC3
:102B30000C2A80ED0D2A80ED0C0A90ED031A21EE8F
:102B4000001A80ED0B1A90ED050AF4EEC00AF1EEC2
:102B500010FA09DCB1EE400AF4EEC00AF1EE10FA08
:102B600002D390ED0A0A01E080ED0A0A31EE800AF4
:102B700030EE010A2BE070EE410A90ED012A20EEC2
:102B8000822A80ED092AD0ED020A60EE800AC0EDAB
:102B90000A0AD0ED0D2A72EE200AC0ED0E2AD0ED01
:102BA0000C2AC0ED0D2AF0EE002A01EE620A30EE8A
:102BB000210A80ED0C0A90ED031A21EE000A80ED47
:102BC0000B0A30EE800AD0ED080A30EE200A80EDC4
:102BD000080AD0ED040AB4EEE00AF1EE10FA06DCC1
:102BE000F1EE600AB4EEE00AF1EE10FA01D2C0EDA7
:102BF000080A90ED080A70470000000062480121B1
:102C000001709FED620A80ED010A80ED020A80EDFD
:102C1000030A80ED040A80ED050A80ED0E0A80EDBE
:102C20000D0A80ED0C0A80ED080A80ED0B0A80ED9C
:102C30000A0A80ED090A80ED110A80ED100A80ED84
:102C40000F0A80F8481080ED130A80ED140A80ED19
:102C5000150A80ED160A80ED170A80ED200A80ED36
:102C60001F0A80ED1E0A80ED1A0A80ED1D0A80ED14
:102C70001C0A80ED1B0A80ED230A80ED220A80EDFC
:102C8000210A80F8901080ED250A80ED260A80ED5B
:102C9000270A80ED280A80ED290A80ED320A80EDAE
:102CA000310A80ED300A80ED2C0A80ED2F0A80ED8C
:102CB0002E0A80ED2D0A80ED350A80ED340A80ED74
:102CC000330A80F8D81080ED370A80ED380A80ED9D
:102CD000390A80ED3A0A80ED3B0A80ED440A80ED26
:102CE000430A80ED420A80ED3E0A80ED410A80ED04
:102CF000400A80ED3F0A80ED470A80ED460A80EDEC
:102D0000450A00F590700021017080ED010A80ED08
:102D1000020A80ED030A80ED040A80ED050A80EDC9
:102D20000E0A80ED0D0A80ED0C0A80ED080A80ED98
:102D30000B0A80ED0A0A80ED090A80ED110A80ED88
:102D4000100A80ED0F0A80F8481080ED130A80ED1C
:102D5000140A80ED150A80ED160A80ED170A80ED41
:102D6000200A80ED1F0A80ED1E0A80ED1A0A80ED10
:102D70001D0A80ED1C0A80ED1B0A80ED230A80ED00
:102D8000220A80ED210A7047A042002000000000C6
:102D9000F0B5384C002091B0216B002966D0012994
:102DA00064D0022962D000BF2068B4F92C10382208
:102DB000B0F91600CDE90E012E49684694390E4649
:102DC000FDF729FB2B4DE769A43D95E80F00203D59
:102DD000B847BDEEC00A05F1B001382210EE100A66
:102DE00000B22085B1F90210CDE90E1031466846D7
:102DF000FDF711FB2035E66995E80F00203DB0474F
:102E0000BDEEC00A382210EE100A20852068B4F901
:102E10002E10B0F91600CDE90E0105F178010E462D
:102E20006846FDF7F8FA6835E76995E80F00683DF0
:102E3000B847BDEEC00A05F1BA01382210EE100AFB
:102E400000B26085B1F90210CDE90E103146684636
:102E5000FDF7E1FA6835E66995E80F00B047BDEE89
:102E6000C00A10EE100A608511B0F0BDA085E085A3
:102E70009AE700006444002010B5FFF727FE0D4AD2
:102E8000002310600C48D0600C4810610C48506161
:102E90000C4890610C48106213630C48D363506275
:102EA0000B489060FFF7AAFE0A48D06182F84030D4
:102EB00010BD000064440020D92E0008912D0008A8
:102EC000892F00085D2F0008FD2800084135000803
:102ED000FD2B0008D52A0008084800210268D37A93
:102EE000012B09D1B2F90620002A02DD4FF00101C1
:102EF00002E001DA4FF002010163704764440020F0
:102F0000FEF732F8FFF7E6F8FEF79AFFFEF7FAFE53
:102F1000FEF73CFFFFF77EF8FEF7F2FFFFF75EF8E3
:102F2000FEF712FF00F0A2FAFFF7BCFC0748FEF71D
:102F30001BFC00210548FEF77FFD04210348FEF736
:102F40007BFDFEF749FF00F038F8FEE74403002060
:102F500001460020842900D0C81C70470948C16B75
:102F600049B14FF47A725342032908D0042901D1A0
:102F70000387428770470021018741877047028796
:102F8000438770476444002007480168C97A0329D1
:102F900001D0002105E090F8401009B1032100E0C4
:102FA0000421C163704700006444002010B500B9DB
:102FB000012000F0A7FB002010BD10B500F0C8FBF9
:102FC000002010BD7FB50D4604464169B0F90800E8
:102FD00081B1A16971B1FFF7BBFFD4E905128DE89A
:102FE0000700D4E900102B46226900F0DAFC0390B8
:102FF00004B070BDFFF7ACFF03A9CDE90001208A42
:103000002B4682B2D4E9001000F09EFC012801D0CA
:103010000020EDE70398EBE72DE9F041184C0F464F
:103020000546E6682068001D00F0A4FA38B920685B
:1030300090F82C1001208840216981432161681C8F
:1030400007D137B12168BDE8F0410E48091D00F0F5
:10305000D5BA20683544B5424560216805D2A06BD9
:10306000BDE8F041091D00F0B1BA606B091D00F028
:10307000ADFAA06A854200D2A562BDE8F0810000E9
:1030800024000020B00500202DE9F041054600F0A5
:10309000C1FA2E4CA068401CA06020682C4F10B1D3
:1030A000606940B32DE02560A068012829D1002681
:1030B00006EB860007EB800000F07AFA761C072EFC
:1030C000F6D323488C3000F073FA2148A03000F08A
:1030D0006FFA1F48B43000F06BFA1D48C83000F09A
:1030E00067FA1B48DC3000F063FA19488C306063E3
:1030F0001430A06305E02068E96AC06A884200D8FD
:103100002560606A401C6062E96A0120226988408B
:103110001043206101EB810007EB8000291D00F0C6
:103120006DFA00F097FA606900280CD02068E96A0F
:10313000C06A884207D207494FF080500860BFF349
:103140004F8FBFF36F8FBDE8F08100002400002097
:10315000D404002004ED00E010B5044690F85100BE
:1031600058B101280CD002280FD0502080F31188CC
:10317000BFF34F8FBFF36F8FFEE7206B00F07EFA37
:103180002046BDE8104000F079BA10BD10484FF459
:103190007051420706D0C01D0D4920F00700411AAA
:1031A000C1F570510B4A00230144C2E900030839FC
:1031B000183A21F0070111604B600B600B1AC0E94F
:1031C000001393604FF0004053605061704700005F
:1031D000C405002078000020144E154CA6F1C80745
:1031E0004FF08058DFF84C9012E000BF00F012FA68
:1031F000F068C568281D00F0BDF9A068401EA060F9
:103200006068401E606000F025FA2846FFF7A4FFC2
:1032100060680028EAD138680128F9D9C9F8008027
:10322000BFF34F8FBFF36F8FF2E700009C050020C4
:103230002400002004ED00E02DE9F0479A46DDE986
:10324000098481466FF00303206B03EB8202104474
:10325000089E20F00707780707D0502080F31188D8
:10326000BFF34F8FBFF36F8FFEE7002561B10020E2
:1032700023180A5C83F834200A5C12B1401C102821
:10328000F6D384F8435001E084F83450072E00D37D
:103290000626E662C4E91165201D00F094F904F1E8
:1032A000180000F090F92461C6F107006462A06183
:1032B000E56484F8505052464946384600F0C0F85C
:1032C0002060B8F1000F01D0C8F80040BDE8F087D9
:1032D00030B5114900E011460A688242FBD34B68C1
:1032E0005C18844203D1406818444860084643682B
:1032F0001C18944209D1084C183C2468A24209D0F9
:1033000052681A4442600A6812680260814200D022
:10331000086030BD0460F9E7780000200648416B82
:10332000096829B1416BC968C968496881627047F9
:103330004FF0FF31FAE70000240000200848406801
:10334000401C4FF0500080F3118804D0BFF34F8F22
:10335000BFF36F8FFEE7BFF34F8FBFF36F8FFEE7B3
:10336000800000202DE9F0410546002700F026FAF4
:10337000324E306808B9FFF709FF706905424ED137
:10338000C5B3083568070ED005F00700C0F1080086
:103390000544680707D0502080F31188BFF34F8F92
:1033A000BFF36F8FFEE72DB37068854237D823488F
:1033B000183001460C6801E020460C466168A942BD
:1033C00002D221680029F7D131688C4227D00768E2
:1033D0002168016060680837411B10290FD9601906
:1033E000420708D0502080F31188BFF34F8FBFF3FE
:1033F0006F8FFEE713E041606560FFF769FF61686A
:103400007068401A7060B268904200D2B060706913
:1034100001430020C4E90001F068401CF06000F0A6
:103420005FFB780707D0502080F31188BFF34F8FE0
:10343000BFF36F8FFEE73846BDE8F08160000020E3
:1034400010B5031F4FF080741C601B1F21F0010199
:103450001960191F044B0B6014390A60091F6FF0C3
:10346000020244380A6010BD3D330008024924229C
:10347000A1F12400FEF7EEBD00420020FFF7F6FFA9
:10348000FFF7A4F9FFF758F9FAE7F0B5002855D08F
:10349000002953D00278437842EA0322C2F30A0299
:1034A0000A8043788478DB0843EA4413C3F30A03B1
:1034B0004B808478C578A40944EA8504057944EAF8
:1034C0008524C4F30A048C80057946796D0845EAA1
:1034D000C615C5F30A05CD804679C6F301168E726E
:1034E0004679B609CE728679C77946EA07268E8173
:1034F000067A477A46EA0726CE81867AC77A46EA6E
:1035000007260E82067B8E74467BCE74867BC77B35
:1035100046EA07268E82067C407CA2F580620A80FD
:10352000A3F580634B80A4F5806446EA00208C807C
:10353000A5F58065CD80A0F580600881F0BD000014
:1035400070B50A4E4FF4805529463046FDF7F4FC1D
:10355000074C10B9002084F8400029463046FDF79A
:10356000EBFC012801D184F8400070BD000402404A
:1035700064440020D0E9013201699A60D0E9012356
:103580005A604A68824201D182684A600022026120
:103590000868401E0860086870470000034B03601D
:1035A00003F154000860802010607047A0000020E4
:1035B00000F108014FF0FF32C0E90112C160016162
:1035C00000210160704700210161704730B50B6830
:1035D0005A1C02D000F1080202E0026904E022460F
:1035E000546825689D42FAD953684B6099608A6097
:1035F000516008610168491C016030BD42684A6041
:1036000093688B6093685960916008610168491CF8
:1036100001607047502080F31188BFF34F8FBFF3D4
:103620006F8F0A494868401C486001280CD108483F
:10363000006810F0FF0F07D0502080F31188BFF30F
:103640004F8FBFF36F8FFEE77047000080000020B0
:1036500004ED00E00849486828B1401E486001D1E7
:1036600080F311887047502080F31188BFF34F8F8B
:10367000BFF36F8FFEE700008000002070B50028C8
:103680002AD0164DA0F1080460686969084207D184
:10369000502080F31188BFF34F8FBFF36F8FFEE789
:1036A00022683AB1502080F31188BFF34F8FBFF3E7
:1036B0006F8FFEE78843606000F080F8606869689B
:1036C000084468602046FFF703FE2869401C286113
:1036D000BDE8704000F004BA70BD0000600000203A
:1036E0004FF0E02000210161816105494FF47A72B9
:1036F0000968B1FBF2F1491E416107210161704780
:103700002000002010B5020014D00F48006B38B123
:10371000502080F31188BFF34F8FBFF36F8FFEE708
:1037200000F04CF800211046FFF776FC00F0D8F9C5
:10373000002807D105494FF080500860BFF34F8F34
:10374000BFF36F8F10BD00002400002004ED00E0E7
:1037500010B586B00024039405AA04A903A8049414
:10376000FFF71CFFDDE903010094CDE90110002300
:103770000EA11048059A00F014F90F490028C862FC
:1037800011D0502080F31188BFF34F8FBFF36F8F9C
:103790004FF0FF30886201204861CC6006B0BDE880
:1037A000104000F041B806B010BD000049444C453F
:1037B00000000000D9310008240000200248016BFD
:1037C000491C016370470000240000201448016B6D
:1037D00011B10121C16170470021C1610169B1FAD4
:1037E00081F1C1F11F0101EB81020E4951F8223034
:1037F0006BB101EB820101F108034A6852684A602B
:103800009A4201D152684A60D168016070475020E5
:1038100080F31188BFF34F8FBFF36F8FFEE7000077
:1038200024000020D40400201CB537480168374A22
:10383000914207D1502080F31188BFF34F8FBFF31F
:103840006F8FFEE700683149491E884207D150203A
:1038500080F31188BFF34F8FBFF36F8FFEE72C49C2
:1038600008780190FF20087008788DF800009DF816
:1038700000009DF8002000F0F000904207D050209A
:1038800080F31188BFF34F8FBFF36F8FFEE79DF872
:103890000000204C00F0500020700720A06005E0E0
:1038A0009DF8002052008DF80020401E9DF8002059
:1038B0001206F5D4A060032807D0502080F31188A9
:1038C000BFF34F8FBFF36F8FFEE74FF44070A060E0
:1038D000019808700C482030016841F470010160C3
:1038E000016841F070410160FFF7FAFE002060605E
:1038F000FCF7BEFC0848016841F040410160FCF75C
:10390000A3FC00201CBD000000ED00E071C20F41CF
:1039100000E400E08000002034EF00E010B550200B
:1039200080F31188BFF34F8FBFF36F8F00F072F8F1
:1039300018B104494FF080500860002080F31188CE
:1039400010BD000004ED00E02DE9FF5F8346DDE9D6
:103950000E87994616468A469000FFF703FD05003C
:103960001CD05420FFF7FEFC040014D00020256377
:1039700084F85100CDE90240CDE900874B4632463C
:1039800051465846FFF758FC2046FFF77DFB0120C3
:1039900004B0BDE8F09F2846FFF770FE4FF0FF30FF
:1039A000F6E7F0B585B0DDE90B640A9DA6B1DCB1A0
:1039B000542700972663022684F85160002604AF3E
:1039C000CDE90246CDE90057FFF736FC2046FFF768
:1039D0005BFB049805B0F0BD502080F31188BFF365
:1039E0004F8FBFF36F8FFEE7502080F31188BFF336
:1039F0004F8FBFF36F8FFEE70548416919B1006B28
:103A000018B1002070470120704702207047000065
:103A1000240000202DE9F0412F4C0026206B28B116
:103A2000A069401CA0613046BDE8F081E5686D1CCE
:103A3000E56013D1606B006838B1502080F31188C5
:103A4000BFF34F8FBFF36F8FFEE7606BA16B6163B6
:103A5000A063206A401C2062FFF760FCA06ADFF8C8
:103A60007C80854209D3606B0068A0B1606BC06840
:103A7000C7687868854211D2A0622068C06A00EBEE
:103A8000800158F82100012800D90126E0690028AA
:103A9000C9D00126C7E74FF0FF30EDE7381DFFF72B
:103AA00069FDB86A18B107F11800FFF763FDF96AFC
:103AB0000120226988401043206101EB810108EB5D
:103AC0008100391DFFF79AFDF86A2168C96A8842AA
:103AD000C9D30126C7E7000024000020D404002039
:103AE0002DE9F0472C4D00242746286B38B1FFF70D
:103AF00091FD286B401E2863286B40B146E05020A2
:103B000080F31188BFF34F8FBFF36F8FFEE7A96873
:103B1000224E0120D1B3A6F1B40980463068E8B145
:103B2000F068C46804F11800FFF724FD201DFFF7BA
:103B300021FDE06A2A6908FA00F11143296100EBCE
:103B4000800109EB8100211DFFF758FDE06A29681B
:103B5000C96A8842E2D3C5F81C80DFE70CB1FFF7E1
:103B6000DDFBAC6944B14646FFF754FF00B1EE619E
:103B7000641EF9D10020A861E86938B1084901271D
:103B800038070860BFF34F8FBFF36F8FFFF762FDF9
:103B90003846BDE8F087000024000020880500209A
:103BA00004ED00E04FF04070E1EE100A70470000B5
:103BB000583C0008B520000800000000000000008C
:103BC000800000000000000000000000483C0008E9
:103BD000D91C000800000000000000008000000068
:103BE0000000000000000000403C00087D34000898
:103BF0000000000000000000800000000000000045
:103C000000000000503C0008AD2A00080000000041
:103C10000000000080000000000000000000000024
:103C2000000610160006101600000000000000003C
:103C30000102030406070809000000000102030452
:103C400072656D6F746500004C696674696E67001B
:103C5000636174636800000064656661756C745428
:103C600061736B00843C000800000020A00000008D
:103C7000C4010008243D0008A0000020804A000084
:103C8000E00100080000000000000000000000004B
:103C90000000000000000000010000001000000013
:103CA000000000000024F4000000000000000000FC
:103CB0000000000000000000000000000000000004
:103CC00000000000000000000000000000000000F4
:103CD00000000000000000000000000000000000E4
:103CE00000000000000000000000000000000000D4
:103CF00000000000000000000000000000000000C4
:103D00000000000000000000AAAAAAAA000000000B
:103D100000000000000000000000000000000000A3
:043D2000000000009F
:040000050800018965
:00000001FF
