:020000040800F2
:10000000C04A0020E902000803220008351F00084A
:100010000122000843050008BD2700080000000079
:10002000000000000000000000000000290200089D
:10003000E505000800000000850200086D220008A8
:100040000303000803030008030300080303000878
:100050000303000803030008030300080303000868
:100060000303000803030008030300080303000858
:100070005D050008030300080303000803030008EC
:100080000303000803030008030300080303000838
:1000900045050008030300080303000803030008E4
:1000A0000303000803030008030300080303000818
:1000B0000303000803030008030300080303000808
:1000C00003030008030300080303000803030008F8
:1000D00003030008030300080303000809270008BE
:1000E00003030008030300080303000803030008D8
:1000F00003030008030300080303000803030008C8
:1001000003030008030300080303000803030008B7
:1001100003030008030300080303000803030008A7
:100120000303000803030008030300080303000897
:100130000303000803030008030300080303000887
:100140005105000803030008030300080303000827
:100150000303000803030008030300080303000867
:100160000303000803030008030300080303000857
:100170000303000803030008030300080000000055
:10018000030300080303000800F002F800F03CF845
:100190000AA090E8000C82448344AAF10107DA45E2
:1001A00001D100F031F8AFF2090EBAE80F0013F0F8
:1001B000010F18BFFB1A43F001031847AC3C0000C5
:1001C000CC3C0000103A24BF78C878C1FAD8520756
:1001D00024BF30C830C144BF04680C6070470000C1
:1001E0000023002400250026103A28BF78C1FBD840
:1001F000520728BF30C148BF0B6070471FB503F0DE
:10020000C1FD1FBD10B510BD00F061F91146FFF72B
:10021000F5FF02F06DFF00F07FF903B4FFF7F2FF86
:1002200003BC00F087F900002C4B19680868B0E89F
:10023000F04F80F30988BFF36F8F4FF0000080F319
:10024000118870470000000008480068006880F3CB
:1002500008884FF0000080F3148862B661B6BFF3DF
:100260004F8FBFF36F8F00DF00BF00BF08ED00E0CE
:10027000DFF80C00016841F470010160704700BFB5
:1002800088ED00E0EFF30980BFF36F8F134B1A681E
:100290001EF0100F08BF20ED108A20E9F04F10600B
:1002A00009B44FF0500080F31188BFF34F8FBFF3B4
:1002B0006F8F03F07BFB4FF0000080F3118809BCC7
:1002C00019680868B0E8F04F1EF0100F08BFB0ECD6
:1002D000108A80F30988BFF36F8F7047B800002041
:1002E000EFF3058070470000094880470948004740
:1002F000FEE7FEE7FEE7FEE7FEE7FEE7FEE7FEE7D6
:10030000FEE7FEE704480549054A064B7047000032
:100310001923000889010008C0440020C04A0020B9
:10032000C0460020C046002053EA020C00F069805D
:100330002DE9F04B4FF00006002B1FBFB3FA83F5F9
:1003400003FA05F424FA05F65E4012BF1643B2FA2A
:1003500082F502FA05F4C5F120051EBF22FA05FC5C
:1003600044EA0C04203556EA044C4FEA144418BF02
:10037000641C4FF000084FF00009904271EB030C31
:1003800039D3002919BFB1FA81F701FA07F6B0FA9B
:1003900080F700FA07F6C7F120071EBF20FA07FC16
:1003A00046EA0C062037B6FBF4FCA7EB0507103F26
:1003B00007F01F0BCBF120060CFA0BFB2CFA06F60C
:1003C00044BFB3460026202FA4BF5E464FF0000B6B
:1003D0005BEA060C08BF4FF0010B19EB0B09ABFBF6
:1003E000027C48EB0608C01B06FB02CC0BFB03CCCF
:1003F00071EB0C01C1E70B46024641464846BDE899
:10040000F08B13B54FF000004FF00001AFF3008008
:10041000BDE81C40704710B5203AC0F00B80B1E831
:100420001850203AA0E81850B1E81850A0E8185029
:10043000BFF4F5AF5FEA027C24BFB1E81850A0E832
:10044000185044BF18C918C0BDE810405FEA827C4C
:1004500024BF51F8043B40F8043B08BF7047D20763
:1004600028BF31F8023B48BF11F8012B28BF20F804
:10047000023B48BF00F8012B70474FF0000200B567
:10048000134694469646203922BFA0E80C50A0E8B7
:100490000C50B1F12001BFF4F7AF090728BFA0E865
:1004A0000C5048BF0CC05DF804EB890028BF40F831
:1004B000042B08BF704748BF20F8022B11F0804F73
:1004C00018BF00F8012B704770477047704775469A
:1004D00000F02CF8AE4605006946534620F00700B0
:1004E000854618B020B5FFF70DFFBDE820404FF05E
:1004F00000064FF000074FF000084FF0000B21F00E
:100500000701AC46ACE8C009ACE8C009ACE8C009DA
:10051000ACE8C0098D46704710B50446AFF30080C3
:100520002046BDE81040FFF778BE00000048704745
:100530005C44002001491820ABBEFEE72600020003
:100540007047FEE7014800F0CCB9000074030020BA
:10055000014800F0C6B900009C030020014800F0EB
:1005600059BC00005004002001681823CAB2103A98
:10057000B2FBF3F2054B6FF30901032A9B5CC365E1
:1005800000D9091D81650846704700001C3E00081F
:1005900010B5014600208B698A6A4FF0C07453B1D0
:1005A000B3F5005F15D072B1012A0CD0022A0AD02F
:1005B000032A09D104E01AB1012A06D0022A03D184
:1005C000C96AC90100D5012010BDC96AA142FAD08B
:1005D00010BD002AF7D0012AF2D0022AF3D0032A54
:1005E000F3D010BD704772B6FEE790F82020012AC4
:1005F00007D0022A05D0416A41F4802141620120DE
:100600007047006842690A43426100207047F0B5B4
:1006100090F820500468A468012D05D0022D03D065
:10062000416A41F480215DE014F0406F01D1E500A2
:1006300055D5C4F30164022C03D9416A41F4000189
:1006400050E00125A5401D608D684FF4C0739DB139
:10065000CE6835434E6845EAC605066803EB0417C5
:10066000F5514FF4C275076805EB04150E697E510C
:10067000097D012905D009E00E88CD6845EA465577
:10068000EBE701684E5946F480764E511179D579E1
:10069000567941EA056195792D0445EA06252943F5
:1006A0004FF4C676056806EB0416A9511178D57883
:1006B00041EA0561957852782D0445EA02221143FA
:1006C0004FF4C475026805EB04155151006803EB43
:1006D0000411425842F0010242500020F0BD416A2C
:1006E00041F4001141620120F0BD000010B590F806
:1006F0002020012A07D0022A05D0416A41F4802136
:100700004162012010BD3B48D0F8002242F00102B6
:10071000C0F80022D0F8002222F47C52C0F8002257
:10072000D0F800224B6A42EA0322C0F800220A7D78
:1007300002F01F0301229A40D0F81C329343C0F804
:100740001C32CB69B3B9D0F80C329343C0F80C32E9
:100750008C894B6864F31F434C6900EBC404C4F8F4
:1007600040320C890B6864F31F434C6900EBC404EE
:10077000C4F84432CB69012B16D1D0F80C321343A4
:10078000C0F80C320C884B6864F31F434C6900EBD3
:10079000C404C4F840320C89CB6864F31F434C692D
:1007A00000EBC404C4F844328B69002BD0F8043247
:1007B0000ED01343C0F804320B69002BD0F814326A
:1007C00008D01343C0F81432096A012904D008E0A4
:1007D0009343EFE79343F5E7D0F81C121143C0F8B9
:1007E0001C12D0F8001221F00101C0F80012002004
:1007F00010BD000000640040704730B590F8204004
:10080000012C05D0022C03D0416A41F480215DE027
:100810000468002955D02469A40754D04FF4D87433
:10082000056804EB01142D5915F004059560056861
:100830002D594ED0ED08556005682C5904F002047E
:10084000D4604FF4DA74056804EB01142D5905F0F7
:100850000F05156105682D59C5F3072595610568D4
:100860002C59240C54614FF4DC72046802EB011221
:10087000A4581C700468A458240A5C700468A45826
:10088000240C9C700468A258120EDA704FF4DE72C9
:10089000046802EB0112A4581C710468A458240ACD
:1008A0005C710468A458240C9C710468A258120E50
:1008B000DA71006881B1016941F020010161002015
:1008C00030BDE468A8E7416A41F4001141620120AB
:1008D00030BD6D0D1560AFE7C16841F02001C1600A
:1008E000EDE72DE9F05F0546006800244669D0F881
:1008F00004908768D0F80CB0D0F810A0D0F8188019
:10090000F10748D0F90714D001218160B80703D559
:10091000284600F078FA0CE0780702D54FF400641E
:1009200007E0380702D54FF4805402E0284600F073
:1009300069FAF80516D529684FF480708860B80503
:1009400003D5284600F061FA0CE0780502D544F49E
:10095000005407E0380502D544F4804402E02846FC
:1009600000F052FAF80316D529684FF480308860F9
:10097000B80303D5284600F04AFA0CE0780302D504
:1009800044F4004407E0380302D544F4803402E024
:10099000284600F03BFA300707D55FEACB6004D564
:1009A0002968102044F40074C86070074FF00807ED
:1009B00007D55FEA0B7004D52868C760284600F0A9
:1009C00099F9B00706D52868C068800702D0284684
:1009D00000F092F9700607D55FEACA6004D529686D
:1009E000102044F480640861B00607D55FEA0A70FD
:1009F00004D528680761284600F0D4F9F00606D52A
:100A000028680069800702D0284600F0CCF9B003BE
:100A100008D55FEAC96005D52968102048602846D6
:100A200000F0C2F9F00307D55FEA097004D5286821
:100A30004760284600F0ECF9300446D55FEA49707B
:100A400040D5F00504D55FEAC87001D044F0010438
:100A5000B00504D55FEA887001D544F00204700542
:100A600004D55FEA487001D544F00404300529D567
:100A700018F0700F26D008F07000402815D006DC62
:100A8000102809D020280AD0302816D10AE0502892
:100A90000ED0602811D10EE044F008040DE044F0BF
:100AA00010040AE044F0200407E044F0400404E0AD
:100AB00044F0800401E044F480742868816921F0E6
:100AC00070018161296804204860002C05D0686AA3
:100AD000204368622846FFF78FFEBDE8F09F70B59F
:100AE000040003D094F8200010B104E0012070BD90
:100AF000204600F081F82068016841F001010160A2
:100B000000F0BAFB0546052604E000F0B5FB401BEB
:100B10000A2811D820684068C007F6D0206801680C
:100B200021F00201016000F0A7FB05460BE000F098
:100B3000A3FB401B0A2806D9606A40F400306062BB
:100B400084F82060D2E7206840688007EFD4207ED8
:100B50000128206801683DD021F080010160607E9D
:100B600001282068016838D021F040010160A07E92
:100B700001282068016833D021F020010160E07E67
:100B80000128206801682ED041F010010160207F0B
:100B900001282068016829D021F008010160607FE8
:100BA00001282068016824D021F004010160D4E903
:100BB00002010843D4E90412114308436168491E45
:100BC00008432168C86100206062012084F8200089
:100BD000002070BD41F08001C0E741F04001C5E751
:100BE00041F02001CAE721F01001CFE741F00801F0
:100BF000D4E741F00401D9E7F0B587B004461421E9
:100C00006846FFF73AFC364B3648DFF8D0E0196803
:100C1000D4F800C0334A03250226092710300024E7
:100C2000491CF44522D11960012907D1016841F01E
:100C300000710160006800F000700590106840F0DD
:100C4000080010601068CDE9005600F00800CDE9FA
:100C5000047069462448CDE9024500F015FA0022E7
:100C60000521142000F07AFB142032E0DFF87CE04C
:100C7000F44530D1D0F800C04CF0806CC0F800C012
:100C8000D0F800C001290CF0806CCDF814C01960B8
:100C900007D1016841F000710160006800F0007048
:100CA0000590106840F002001060106802AB00F080
:100CB000020005906020CDE9000683E8B000694697
:100CC0000B4800F0E1F900220521402000F046FB2E
:100CD000402000F035FB07B0F0BD0000006400408C
:100CE0001400002030380240000C02400068004030
:100CF000000402407047000010B58CB0044601AB00
:100D000003AA0021FFF779FD22482349844216D126
:100D10000398A0F50070013811D1088D0886BDF840
:100D2000040040BA0885BDF8060040BA4885BDF801
:100D3000080040BA88859DF80A0081F82E001748FF
:100D4000844225D10398A0F50072013A05D0012A0A
:100D500003D0022A01D0032A1AD1114A401EC0B280
:100D6000107000EB800201EB420031F81230038179
:100D7000BDF804305BBA21F81230BDF8061049BA4C
:100D80004180BDF8081049BA81809DF80A10817130
:100D90000CB010BD74030020380700209C03002015
:100DA000A4000020704770477047000070B50446EB
:100DB00090F82000012804D0606A40F400206062AE
:100DC00018E0022084F820002068016821F0010169
:100DD000016000F051FA05460EE000BF00F04CFA49
:100DE000401B0A2808D9606A40F400306062052080
:100DF00084F82000012070BD20684068C007EDD154
:100E0000606270BD704770477047704770477047A9
:100E1000704700002DE9F84304464FF00009CDF873
:100E2000009063484FF41651A56D0068B0FBF1F7D0
:100E30002E6894F85C10082000FA01F131420FD0BE
:100E400021680A6852070BD50A6822F004020A607A
:100E500094F85C108840A860606D40F00100606507
:100E600094F85C104FF0010808FA01F0304208D005
:100E700021684969090604D5A860606D40F0020048
:100E8000606594F85C1004208840304208D02168E6
:100E90000968890704D5A860606D40F004006065AA
:100EA00094F85C1010208840304218D021680968FE
:100EB000090714D5A86020680168490304D50068B3
:100EC000000308D5A16C07E00168C90503D40168D7
:100ED00021F008010160216C09B12046884794F88F
:100EE0005C1020208840304231D021680968C90652
:100EF0002DD5A86094F8350005282068016806D033
:100F0000490347D5006800031DD4616C1CE021F043
:100F1000160101602068416921F080014161206C67
:100F200008B9A06C20B12068016821F008010160B7
:100F300094F85C103F208840A86084F8358084F8DD
:100F40003490216D1FE0E16B09B120468847606D48
:100F500000282BD0606DC00714D0052084F8350020
:100F60002068016821F0010101600098401C009098
:100F7000B84203D820680068C007F6D184F83580ED
:100F800084F83490E16C002910D001B02046BDE80F
:100F9000F04308470168C905D5D4016821F0100164
:100FA000016084F8358084F83490CCE7BDE8F8839C
:100FB000B40000202DE9F041044600F05DF906463A
:100FC0005CB1022084F83500002584F83450206894
:100FD000016821F0010101600DE00120BDE8F08110
:100FE00000F04AF9801B052805D920206065032000
:100FF00084F83500F2E720680068C007F0D1226865
:10100000116820480140D4E901031843D4E90336AC
:101010003343184363691843A3691843E3691843CA
:10102000236A18430843616A042903D1D4E90B13E6
:1010300019430843106020684069666A20F0070180
:1010400030460E43012704280CD1A06A0643E06A0B
:1010500040B12046FFF79CFA20B14020606584F83B
:101060003570BAE7206846612046FFF77DFA94F8AC
:101070005C203F2191408160656584F835700020D7
:10108000ACE700003F8010F02DE9F84FDFF8BCA17D
:10109000002201250AF1040B03264FF00F090BF182
:1010A000040E00BF0B6805FA02F42340A34270D17E
:1010B0000F7907F00307012F01D0022F16D187689F
:1010C0004FEA420806FA08FC27EA0C07D1F80CC0E0
:1010D0000CFA08FC4CEA070CC0F808C04768A743A4
:1010E0000C79C4F3001494403C4344600C79E4430D
:1010F000A4070AD0C4684FEA420C06FA0CF7BC43B6
:101100008F6807FA0CF72743C7600C7904F00304D3
:10111000022C12D1D40800EB840CDCF820405707D5
:10112000FF0E09FA07F824EA0804D1F8108008FA3B
:1011300007F848EA0408CCF8208004684FEA420C1B
:1011400006FA0CF7BC430F7907F0030707FA0CF710
:10115000274307604C6814F4403F70D03C4C27682C
:1011600047F480472760246822F0030704F4804492
:101170000094384C07EB040CDCF8084897074FEA5A
:10118000177809FA08F7BC43334FB84202D1002759
:1011900024E054E0314FB84201D101271EE0304F26
:1011A000B84201D1022719E02E4FB84201D10327DE
:1011B00014E02D4FB84201D104270FE02B4FB84265
:1011C00001D105270AE02A4FB84201D1062705E0E0
:1011D000284FB84201D1072700E0082707FA08F78F
:1011E0002743CCF80878DAF800405746D1F804C015
:1011F0009C435FEACC3C00D51C433C60DBF80040DC
:101200005F46D1F804C09C435FEA8C3C00D51C4388
:101210003C60DEF800407746D1F804C09C435FEAAA
:10122000CC2C00D51C433C60084F0C373C68D1F8EF
:1012300004C09C435FEA8C2C00D51C433C60521CCC
:10124000102AFFF42FAFBDE8F88F0000003C0140EA
:1012500044380240003001400000024000040240D7
:1012600000080240000C024000100240001402403E
:1012700000180240001C02400148806870470000CE
:10128000A8000020024881680278114481607047FC
:10129000A80000200B4810B5016841F400710160FE
:1012A000016841F480610160016841F4807101606E
:1012B000032000F073F80F2000F006F800F024F887
:1012C000002010BD003C024070B50D4D04464FF4A7
:1012D0007A712878B1FBF0F00A490968B1FBF0F0A7
:1012E00000F010FB48B9102C07D200222146501EF6
:1012F00000F034F800206C6070BD012070BD00006B
:10130000A8000020B40000200C4882B0016841F41D
:1013100080410160006800F4804000900748001F91
:10132000016841F0805101600068002200F08050A7
:1013300000900F21901E02B000F010B84438024017
:10134000002809DB00F01F020121914040098000C4
:1013500000F1E020C0F8001170470000F0B40E4B1F
:101360001B680C46C3F30223C3F10705042D00D903
:101370000425191D072901D2002300E0DB1E0126E8
:1013800006FA05F1491E214099409E40761E1640FE
:101390003143F0BC01F013BA0CED00E0064900F057
:1013A000070208684FF6FF03184040EA0220034A8C
:1013B00010430860704700000CED00E00000FA05E3
:1013C0002DE9F0470E46050065D0DFF81481D8F806
:1013D0000000F7B200F00700B04207D288F80070B2
:1013E000D8F8000000F00700B04254D128683D4C06
:1013F000810712D5400703D5206840F4E0502060F3
:101400002878000703D5206840F4604020602068F9
:10141000A96820F0F000084320602878C0072DD08C
:10142000304968680839012812D0022813D00328EF
:1014300011D00968890700292DDA216821F00301FC
:1014400001432160FFF718FF814641F2883A0EE020
:1014500009688903EFE709688901ECE7FFF70CFFEA
:10146000A0EB0901514502D90320BDE8F0872068AF
:10147000696800F00C00B0EB810FEFD1D8F80010D4
:10148000404601F00701B14207D90770006800F03B
:101490000700B04201D00120E7E72878400705D5D2
:1014A0002068E96820F4E0500843206028780007AD
:1014B00006D52068296920F4604040EAC100206018
:1014C00000F038F82168084AC1F30311515CC840A4
:1014D0000649086006480068FFF7F6FE0020C4E7EA
:1014E000003C024008380240243E0008B4000020BE
:1014F000AC0000200448054900680968044AC1F3AB
:101500008221515CC8407047B40000200838024076
:10151000343E00080448054900680968044AC1F3DC
:101520004231515CC8407047B40000200838024086
:10153000343E0008154810B5006810F00C0214483D
:1015400013D01449042A0FD0082A0ED10F4C241F9F
:101550002268236802F03F025B0207D52068C0F3CF
:101560008810A0FB010106E0084610BD2168C1F308
:101570008811A1FB00010023FEF7D6FE2168C1F30C
:101580000141491C4900B0FBF1F010BD0838024090
:101590000024F400001BB7002DE9F84F04006ED0C2
:1015A0002078DFF84C93C007A9F104054AD009F16F
:1015B00004000168C1F38101012908D00068C0F36B
:1015C000810002280AD1D9F80000400206D5286817
:1015D000800337D560680028E1D033E06068B0F55B
:1015E000803F10D0B0F5A02F286810D020F48030B4
:1015F0002860286820F4802028606068A8B1FFF780
:101600003BFE06460DE0286840F48030F4E740F4E5
:1016100080202860F7E700BFFFF72EFE801B6428BC
:1016200073D828688003F7D50CE0FFF725FE06463F
:1016300005E000BFFFF720FE801B6428F0D8286873
:101640008003F7D42078DFF8AC8280074FF0000ADF
:101650003ED5A748001D016811F00C0F08D00068A6
:10166000C0F3810002280BD1D9F80000400207D452
:101670002868800716D5E068012800D112E033E120
:10168000E068B8B10120C8F80000FFF7F5FD064694
:1016900005E000BFFFF7F0FD801B0228C0D82868D6
:1016A0008007F7D52868216920F0F80040EAC100DA
:1016B00028600DE0C8F800A0FFF7DEFD064604E054
:1016C000FFF7DAFD801B02281FD828688007F7D4AF
:1016D0002078000722D5864F87486169703771B13D
:1016E00001210160FFF7C8FD064604E0FFF7C4FDD5
:1016F000801B022809D838688007F7D50EE0C0F8AB
:1017000000A0FFF7B9FD064605E082E0FFF7B4FD53
:10171000801B02287DD838688007F7D420784007DE
:1017200068D5DFF8CCB100270BF13C0BDBF80000EB
:10173000C0000BD4DBF8001041F08051CBF8001052
:10174000DBF80000012700F0805000906B4E3068FD
:10175000C00510D4306840F480703060FFF78CFD15
:10176000009005E0FFF788FD0099401A022850D844
:101770003068C005F6D55E4EA0686C3601280FD0E3
:101780000528306810D020F001003060306820F06B
:1017900004003060A068B8B1FFF76EFD00900FE064
:1017A000306840F00100F4E740F004003060F7E7F3
:1017B000FFF762FD0099411A41F28830814266D8F4
:1017C00030688007F4D50EE0FFF756FD009007E083
:1017D000FFF752FD0099411A41F28830814256D8F4
:1017E00030688007F4D42FB1DBF8001021F080516D
:1017F000CBF80010A069C8B33D49091D0968C1F3C1
:10180000810102294AD00228504607D0C8F860005A
:1018100000E03CE0FFF730FD04463BE04746C8F8F7
:101820006000FFF729FD064605E000BFFFF724FD35
:10183000801B02282BD828688001F7D4D4E907013F
:101840000843A16A2E4A490802EB0141626A41EA53
:101850008211084394F82C1040EA0161C9F8001085
:1018600001203866FFF708FD044606E03EE000BFB1
:10187000FFF702FD001B022809D828688001F7D570
:1018800034E000BFFFF7F8FC001B022802D9032058
:10189000BDE8F88F28688001F4D427E00128F7D04C
:1018A000D9F80000E26900F4800191421CD1226A5B
:1018B00000F03F01914217D147F6C071626A0140C2
:1018C000B1EB821F10D1A26A4FF0FF3300F4403118
:1018D00003EB5202B1EB024F06D194F82C1000F04A
:1018E0007060B0EB016F01D00120D1E70020CFE79D
:1018F0000438024000004742800E4742007000401A
:101900000000FFFF10B5401EB0F1807F01D3012021
:1019100010BD4FF0E02460610F21601700F04FFF11
:101920000020A06107202061002010BD10B590F8B4
:101930003C20012A22D0012280F83C20CA688C6811
:1019400022F4407222434C6822F4806222430C68E5
:1019500022F4006222430C6922F4805222434C6933
:1019600022F400522243C969002322F480420A4330
:1019700001684A6480F83C30002010BD022010BD90
:1019800070B590F83C20012A32D0012480F83C4008
:10199000022280F83D2003685A689D6822F0700694
:1019A0000A6832435A60134B02689A4214D0B2F16B
:1019B000804F11D0104B9A420ED0104B9A420BD050
:1019C0000F4B9A4208D00F4B9A4205D00E4B9A42C9
:1019D00002D00E4B9A4204D1496825F08003194386
:1019E000916080F83D40002180F83C10084670BDB1
:1019F000022070BD000001400004004000080040CB
:101A0000000C00400004014000400140001800406C
:101A100010B5040003D094F83D0010B107E0012098
:101A200010BD002084F83C00204600F01FF8022082
:101A300084F83D00211D206800F076FC012084F828
:101A4000460084F83E0084F83F0084F8400084F8A3
:101A5000410084F8420084F8430084F8440084F88C
:101A6000450084F83D00002010BD000008B5006866
:101A70000649884208D10648016841F00101016029
:101A8000006800F00100009008BD00000000014067
:101A90004438024090F83D10012901D001207047E0
:101AA000022180F83D1000681149884214D0B0F13D
:101AB000804F11D00F4988420ED00F4988420BD079
:101AC0000E49884208D00E49884205D00D49884207
:101AD00002D00D49884204D1816801F0070106292E
:101AE00003D0016841F0010101600020704700004F
:101AF000000001400004004000080040000C0040CD
:101B000000040140004001400018004070B5044648
:101B100090F83C000025012817D0012684F83C608D
:101B2000022084F83D002068826822F0770222F4C7
:101B30007F4282600868502838D00DDC20284FD0C2
:101B400005DC90B3102811D14AE0022070BD302886
:101B500046D040280AD13BE060282FD070280DD015
:101B6000B0F5805F03D0B0F5005F12D0012584F896
:101B70003D60002084F83C00284670BDCB68D1E968
:101B80000121206800F041FC2068816841F0770164
:101B900009E0CB68D1E90121206800F036FC20681B
:101BA000816841F480418160E1E719E0CA684968D1
:101BB000206800F0FFFC5021206806E0CA684968F0
:101BC000206800F008FD6021206800F028FCCEE7C6
:101BD000CA684968206800F0EDFC40212068F4E7FD
:101BE000226801461046F0E710B586B0044614217D
:101BF0006846FEF742FC0E492068884216D10D481F
:101C00000021026842F010020260006800F010003B
:101C100005904FF4285000900220CDE901010120E9
:101C2000CDE9031069460448FFF72EFA06B010BD4F
:101C300000000140303802400010024070B50446F8
:101C400090F83C0000260D4601280FD0012084F8B2
:101C50003C006AB1042A1DD0082A2FD00C2A3FD09C
:101C60000126002084F83C00304670BD022070BD83
:101C7000206800F0DDFB2068816941F00801816186
:101C80002068816921F004018161206881692A69E5
:101C9000114311E0206800F0FBFB2068816941F4EA
:101CA000006181612068816921F48061816120681F
:101CB00081692A6941EA02218161D2E7206800F046
:101CC0001DFC2068C16941F00801C1612068C1693B
:101CD00021F00401C1612068C1692A69114311E042
:101CE000206800F03FFC2068C16941F40061C161D7
:101CF0002068C16921F48061C1612068C1692A69D5
:101D000041EA0221C161ACE710B5040003D094F8A8
:101D10003D0010B107E0012010BD002084F83C0018
:101D2000204600F01EF8022084F83D00211D2068A6
:101D300000F0FAFA012084F8460084F83E0084F8A6
:101D40003F0084F8400084F8410084F8420084F8A1
:101D5000430084F8440084F8450084F83D000020E6
:101D600010BD704710B50446022249B104290ED0B7
:101D7000082913D094F84100012816D0012010BD85
:101D800094F83E000128F9D184F83E200FE094F841
:101D90003F000128F2D184F83F2008E094F8400089
:101DA0000128EBD184F8402001E084F84120012291
:101DB000206800F01DFB16492068164A884201D0B1
:101DC000904203D1436C43F400434364206888424B
:101DD00013D0B0F1804F10D00F4988420DD00F4979
:101DE00088420AD00E49884207D0904205D00D495A
:101DF000884202D00C49884204D1816801F0070171
:101E0000062903D0016841F001010160002010BDE6
:101E100000000140000401400004004000080040B0
:101E2000000C0040004001400018004070B5040064
:101E300004D094F83D00002510B106E0012070BDEB
:101E400084F83C50204600F023F8242084F83D001C
:101E50002068C16821F40051C160204600F0CEFB2B
:101E60002068016921F4904101612068416921F0F5
:101E70002A0141612068C16841F40051C1602564B4
:101E8000202084F83D0084F83E00002070BD000052
:101E900070B586B0064614216846FEF7EEFA204972
:101EA000306888423AD11F480025016841F48021FA
:101EB0000160006800F4802005901A48103801681D
:101EC00041F0040101600068694600F004000590DB
:101ED0004FF4406000900220CDE9010503200390FB
:101EE000072004901048FFF7CFF8114C0F482060EE
:101EF0004FF00060C4E901054014C4E90350656176
:101F00004FF44030A561C4E9075020466562FFF7F1
:101F100051F808B1FEF767FBB463A66306B070BD65
:101F2000004800404038024000080240286002405B
:101F300050040020FEE700000F4810B50D49016075
:101F40000321416000214FF410228160C0E9031297
:101F50004FF400124261017641768176C1760177B5
:101F60004177FEF7BCFD002803D0BDE81040FEF726
:101F70003ABB10BD00640040740300200F4810B548
:101F80000D4901600321416000214FF4102281605E
:101F9000C0E903124FF40012426101764176817666
:101FA000C17601774177FEF79AFD002803D0BDE89E
:101FB0001040FEF718BB10BD006800409C030020D5
:101FC000094808B5016841F4001101600068002269
:101FD00000F40010009005210C20FFF7BFF9BDE8C8
:101FE00008400C20FFF7ACB93038024010B5A4B05F
:101FF0001C221C496846FEF70EFA0021684601F0D3
:10200000B3F8194C17491C2220601C3107A8FEF7B1
:1020100002FA002107A801F0A7F8124960601C220B
:1020200038310EA8FEF7F7F900210EA801F09CF850
:102030000C49A0601C22543115A8FEF7ECF90021D0
:1020400015A801F091F80749E0601C2270311CA826
:10205000FEF7E1F900211CA801F086F8206124B008
:1020600010BD0000903D000800000020194808B590
:10207000016841F002010160016801F00201009174
:10208000016841F001010160016801F00101009166
:10209000016841F008010160016801F00801009148
:1020A000016841F004010160016801F00401009140
:1020B000016841F080010160016801F08001009138
:1020C000016841F010010160006800F0100000900C
:1020D00008BD00003038024010B596B000240F94BF
:1020E00010941194129413941C2168461494FEF7D2
:1020F000C4F9202107A8FEF7C0F931482F49016033
:10210000A721C0E9011444F61F61C0E9031444612A
:102110008461FFF77DFC08B1FEF765FA4FF480504B
:102120000F900FA92648FFF7F1FC08B1FEF75BFA04
:102130002348FFF7E9FD08B1FEF755FA139413A9F8
:102140001F481494FFF71CFC08B1FEF74CFA6020FE
:1021500000904FF4FA60CDE90104039404940594CF
:102160000022694616480694FFF768FD08B1FEF79D
:102170003AFA042269461248FFF760FD08B1FEF7FB
:1021800032FA082269460E48FFF758FD08B1FEF7FB
:102190002AFA0794089409944FF400500A94CDE960
:1021A0000B4007A906480E94FFF7C0FB08B1FEF7E5
:1021B0001AFA0348FFF718FD16B010BD00000140E1
:1021C000C40300200C4810B50A4901600B49416066
:1021D000002181600C22C160C0E904128161C161EB
:1021E000FFF724FE002803D0BDE81040FEF7FBB93E
:1021F00010BD0000004800400C040020A086010033
:10220000FEE7FEE730B5144B1C68656945F04005F4
:1022100065611B68DC6844F01004DC600F4B1C68CF
:10222000256825F0010525601C682568ED07F7D1B4
:102230001D680B4CAC601C68E06018680161186890
:1022400042601868016841F48021016018680168E3
:1022500041F00101016030BD0C0400205004002059
:1022600004480040012000F073FFFBE710B5FFF7C2
:1022700009F801F0B1FC012803D0BDE8104001F0DD
:102280003DBC10BD30B593B030216846FEF7F5F87F
:1022900014210CA8FEF7F1F81D480025016841F053
:1022A00080510160006800F0805011901948016869
:1022B00041F4804101600068022400F480401190E4
:1022C00001200090000401908001CDE90640062025
:1022D0000890A820CDE9090404200B906846FFF778
:1022E0005BF908B172B6FEE70CA90F2081E8310056
:1022F0004FF4A0500F904FF48050109005210CA87F
:10230000FFF75EF8002801D072B6FEE713B030BDCB
:1023100040380240007000400248016841F47001FA
:102320000160704788ED00E0F0B50268254C264D4D
:10233000264E274F274B4FF0804CA04209D06045D6
:1023400007D0A84205D0B04203D0B84201D098428D
:1023500004D122F0700E4A6842EA0E02A0421BD05D
:10236000604519D0A84217D0B04215D0B84213D05A
:10237000984211D0184DA8420ED0184DA8420BD04B
:10238000174DA84208D0174DA84205D0164DA842B7
:1023900002D0164DA84203D122F44075CA682A43E0
:1023A0004D6922F080022A4302608A68C2620A688C
:1023B0008262A04201D0984201D1096901630121E2
:1023C0004161F0BD000001400004004000080040F1
:1023D000000C004000040140004001400044014066
:1023E0000048014000180040001C00400020004050
:1023F00010B501F01F030121046A99408C43046267
:10240000016A9A401143016210BD10B5846842EA26
:10241000032224F47F440A432243826010BD826871
:1024200022F070020A4342F0070181607047000009
:10243000F0B5026A22F001020262036A426884690E
:10244000124E24F073050C682C4323F002058B68B0
:102450002B430D4DA84201D0B04205D123F008070F
:10246000CB683B4323F00403A84201D0B04205D11E
:102470004D6922F4407215438A692A43426084619F
:10248000496841630362F0BD00000140000401405F
:10249000F0B5026A22F010020262026A436884699F
:1024A0000D6824F4E64444EA05248D6822F02002F5
:1024B00042EA05120F4D104EA84201D0B04206D19B
:1024C000CF6822F0800242EA071222F04002A842BE
:1024D00001D0B04207D14D6923F4406343EA85033C
:1024E0008D6943EA850343608461496881630262C0
:1024F000F0BD00000000014000040140F0B5026A98
:1025000022F480720262026A4368C46922F4007293
:1025100024F073050C68124E2C438D6842EA0522A4
:102520000E4DA84201D0B04206D1CF6822F400621D
:1025300042EA072222F48062A84201D0B04207D1C9
:102540004D6923F4405343EA05138D6943EA0513AB
:102550004360C4614968C1630262F0BD000001408C
:102560000004014030B5026A22F480520262046A1B
:102570004268C3690D6823F4E64343EA05238D6886
:1025800024F4005444EA0534084DA84202D0084D12
:10259000A84204D14D6922F4804242EA8512426089
:1025A000C36149680164046230BD0000000001405D
:1025B0000004014010B5036A046A24F001040462B7
:1025C000846924F0F00444EA021423F00A020A4366
:1025D0008461026210BD10B5036A23F01003036228
:1025E0008369046A23F4704343EA023224F0A003AF
:1025F00043EA01118261016210BD000070B504461A
:1026000000680169E26821F44051114301612169C8
:10261000A068E26908436169114308432168CA68F8
:1026200049F20C639A430243CA6020684169A26977
:1026300021F440711143416131492068884202D040
:102640003049884202D1FEF765FF01E0FEF752FFF4
:10265000E2690023192164253226B2F5004F626831
:1026600028D0A0FB0101930F9200FDF75DFE01460B
:10267000B0FBF5F06FF01802504301EB800006EB61
:102680000010B0FBF5F000F0F002B1FBF5F002EB4A
:102690000012B1FBF5F06FF01803584301EB800016
:1026A00006EB0010B0FBF5F000F00F0021681044BD
:1026B000886070BDA0FB010192185B41FDF734FEFC
:1026C0000146B0FBF5F00201B1FBF5F06FF0180325
:1026D000584301EB800006EBC000B0FBF5F000F0C2
:1026E000F80002EB4002B1FBF5F0584301EB80002B
:1026F00006EBC000B0FBF5F000F00700D6E70000E5
:102700000010014000140140264818B40068016818
:10271000890604D501684068009018BC70472249BA
:102720000968C906F9D501684068204A0090106818
:1027300001684FF024030C031D49046824F00104D0
:10274000046016D410684468C4F12404A4B20C8058
:1027500043601068016841F400210160106801685D
:1027600041F001010160122CD7D1124901F116008C
:1027700015E014686068C0F1240080B208806360CE
:102780000D498B6A23F400238B6211680A6842F0BA
:1027900001020A601228C0D1064901F13A0018BCB2
:1027A00000F07EBF0C0400200048004050040020D0
:1027B00024000020B004002000600240FEE709076A
:1027C000090E002804DB00F1E02080F800147047B7
:1027D00000F00F0000F1E02080F8141D70470000A9
:1027E00000B58BB000200121CDE9060108910090D1
:1027F0000190029003900590049069460C48FDF703
:1028000075FF0B48FEF7D2FA02210948FDF7EDFEED
:102810000E200990059069460648FDF767FF0548B8
:10282000FEF7C4FA02210348FDF7DFFE0BB000BD3E
:10283000740300209C030020F8B1D0ED101A00EEC4
:10284000102AC0ED111AD0ED0F0AB8EEC00AC0ED83
:10285000100A80ED060A00EE101A511AB8EEC00AEE
:1028600080ED070A00EE101AB8EEC00A80ED0F0ADC
:10287000017829B1012939D076E09FED3D0A7047F2
:1028800090ED011A61EE001AC0ED091A90ED0A1AD6
:1028900090ED022A02EE001A30EE600A80ED0A1A6C
:1028A00090ED0D2A80ED0E2A90ED0C2A80ED0D2A78
:1028B00080ED0C0AD0ED030A60EE800AC0ED0B0A31
:1028C00090ED050AB4EEC01AF1EE10FA09DCB1EE93
:1028D000400AB4EEC01AF1EE10FA02D390ED0A0AE3
:1028E00001E080ED0A0A31EE800A29E030EE601A3C
:1028F00090ED012A21EE021A80ED091A90ED022ACC
:1029000022EE002A80ED0A2AD0ED0D2AC0ED0E2A13
:10291000D0ED0C2AC0ED0D2AF0EE002A00EEE20AFE
:1029200030EE210A80ED0C0AD0ED030A20EE800A79
:1029300071EE020A80ED0B0A30EE800AD0ED080A33
:1029400030EE200A80ED080AD0ED040AB4EEE00A69
:10295000F1EE10FA06DCF1EE600AB4EEE00AF1EEF8
:1029600010FA01D2C0ED080A90ED080A7047000085
:1029700000000000174800210170174991ED000A7E
:1029800080ED010A91ED010A80ED020A91ED020A43
:1029900080ED030A91ED030A80ED040A91ED040A2B
:1029A00080ED050A9FED0D0A80ED0E0A80ED0D0AFF
:1029B00080ED0C0A80ED080A80ED0B0A80ED0A0A12
:1029C00080ED090A80ED110A80ED100A80ED0F0AF2
:1029D00070470000100500202800002000000000C3
:1029E0000B4808B54FF40071016000218160C1609F
:1029F0000821016134380749808D6B46020A0A704C
:102A000048700A4602490448FDF701FE08BD00006F
:102A10008C0500203C0000207403002070B5154C8C
:102A200000256069B0F90210E18594F8320020B108
:102A3000012804D0022805D007E0258605E04FF4E0
:102A4000347001E04FF6305020860A48A36AB4F98A
:102A5000302048389847BDEEC00A074910EE100AEA
:102A600001FA80F0A08594F83200032800D1A585F2
:102A700070BD00005805002018FCFFFF70B500F085
:102A8000FFFA0C4D002428600B48E8610B482862CF
:102A90000B4868620B48A862204600F0E9FA05EB93
:102AA0008401641CE4B24860052CF5D3BDE8704095
:102AB000FFF760BF58050020C92A00081D2A00083A
:102AC000E12900083928000812480168CA7A032A57
:102AD00002D18A7A022A01D0032118E0B1F9063026
:102AE0006FF06302934206DDB1F90230642B02DA23
:102AF000002380F83230B1F90630642B02DD012367
:102B000080F83230B1F90610914202DA022180F8E1
:102B10003210704758050020064C0548A061FFF7A9
:102B2000ADFFE0698047206A8047606A8047F8E728
:102B30007D2A000858050020F8B1D0ED101A00EEEB
:102B4000102AC0ED111AD0ED0F0AB8EEC00AC0ED80
:102B5000100A80ED060A00EE101A511AB8EEC00AEB
:102B600080ED070A00EE101AB8EEC00A80ED0F0AD9
:102B7000017829B1012939D076E09FED3D0A7047EF
:102B800090ED011A61EE001AC0ED091A90ED0A1AD3
:102B900090ED022A02EE001A30EE600A80ED0A1A69
:102BA00090ED0D2A80ED0E2A90ED0C2A80ED0D2A75
:102BB00080ED0C0AD0ED030A60EE800AC0ED0B0A2E
:102BC00090ED050AB4EEC01AF1EE10FA09DCB1EE90
:102BD000400AB4EEC01AF1EE10FA02D390ED0A0AE0
:102BE00001E080ED0A0A31EE800A29E030EE601A39
:102BF00090ED012A21EE021A80ED091A90ED022AC9
:102C000022EE002A80ED0A2AD0ED0D2AC0ED0E2A10
:102C1000D0ED0C2AC0ED0D2AF0EE002A00EEE20AFB
:102C200030EE210A80ED0C0AD0ED030A20EE800A76
:102C300071EE020A80ED0B0A30EE800AD0ED080A30
:102C400030EE200A80ED080AD0ED040AB4EEE00A66
:102C5000F1EE10FA06DCF1EE600AB4EEE00AF1EEF5
:102C600010FA01D2C0ED080A90ED080A7047000082
:102C700000000000564857490022027091ED020AF8
:102C800080ED010A91ED030A80ED020A91ED040A3C
:102C900080ED030A91ED050A80ED040A91ED060A24
:102CA00080ED050A9FED4C0A80ED0E0A80ED0D0ABD
:102CB00080ED0C0A80ED080A80ED0B0A80ED0A0A0F
:102CC00080ED090A80ED110A80ED100A80ED0F0AEF
:102CD00080F84820D1ED070AC0ED130AD1ED080AAB
:102CE000C0ED140AD1ED090AC0ED150AD1ED0A0AAA
:102CF000C0ED160AD1ED0B0AC0ED170A80ED200ACF
:102D000080ED1F0A80ED1E0A80ED1A0A80ED1D0A73
:102D100080ED1C0A80ED1B0A80ED230A80ED220A5B
:102D200080ED210A80F89020D1ED0C0AC0ED250A33
:102D3000D1ED0D0AC0ED260AD1ED0E0AC0ED270A2D
:102D4000D1ED0F0AC0ED280AD1ED100AC0ED290A15
:102D500080ED320A80ED310A80ED300A80ED2C0AD8
:102D600080ED2F0A80ED2E0A80ED2D0A80ED350AC8
:102D700080ED340A80ED330A80F8D820D1ED110AB5
:102D8000C0ED370AD1ED120AC0ED380AD1ED130AB1
:102D9000C0ED390AD1ED140AC0ED3A0AD1ED150A99
:102DA000C0ED3B0A80ED440A80ED430A80ED420A03
:102DB00080ED3E0A80ED410A80ED400A80ED3F0A39
:102DC00080ED470A80ED460A80ED450A7047000015
:102DD000000600204400002000000000114808B553
:102DE0004FF40071016000218160C1600821016120
:102DF000A0F5BE710C480A8E1312037042704A8E01
:102E000013128370C2708A8E131203714271C98EBD
:102E10006B460A128271C171024602490348FDF7EE
:102E2000F6FB08BD200700209C0000209C0300202A
:102E30002DE9F041624C002020866086A086E08665
:102E4000B4F94850012D02D0022D03D008E09FEDC7
:102E50005D0A01E09FED5C0A84ED130A84ED140A1B
:102E600022685A49B2F900300B80B2F902604E80F4
:102E7000B2F9042063368A80C72E00D248806433BA
:102E8000C82B00D808806432C82A00D88880B1F9DD
:102E90000220D4ED130A00EE102AB8EEC00A20EE8C
:102EA000800ABDEEC00A10EE103AA4F85430B1F911
:102EB000002000EE102AB8EEC00A20EE800ABDEE17
:102EC000C00A10EE102AA4F85620B1F90410D4ED6F
:102ED000140A00EE101AD618A2EB030CB8EEC00AC2
:102EE0007742CCF1000320EE800ABDEEC00A10EE5E
:102EF000101AA4F85810721812B222870CEB0106AF
:102F000066877E18A6871944E18761681323B1F9A3
:102F1000021091FBF3F109B2A4F84010A668B6F9CB
:102F2000026096FBF3F6A4F84260E668B6F9026028
:102F300096FBF3F6A4F844602669B6F9026096FBA6
:102F4000F3F3A4F846308DB31D4854F82C3F5C30A1
:102F50009847BDEEC00A10EE100AA08018482368FA
:102F6000B4F90E20B4F91610A4309847BDEEC00A8B
:102F700010EE100AE08012482368B4F91020B4F96A
:102F80001810EC309847BDEEC00A10EE100A2081F0
:102F90002368B4F91220B4F91A100D489847BDEE11
:102FA000C00A10EE100A6081BDE8F081FFE72087BB
:102FB0006087A087E08720866086A086E086F3E7AA
:102FC000A4050020CDCCCC3D9A99993E4400002028
:102FD000D806002070B500F053F80D4D002428608D
:102FE000204600F045F805EB8401641CE4B248601B
:102FF000052CF5D30748E861074828620748E862CE
:1030000007486862FFF736FE0020A5F8480070BD4B
:10301000A405002025300008312E0008392B0008B7
:10302000DD2D000809480168CA7A022A04D1897A8C
:10303000022906D0012906D05FF00101A0F848104E
:1030400070470021FAE70221F8E70000A4050020FC
:10305000064C0548A061FFF7BDFFE0698047206A84
:103060008047606A8047F8E7D52F0008A405002054
:10307000024900EB800001EB400070473807002058
:1030800000487047B0040020124810B5026840F6AE
:10309000C413B2F90610642900DD8380B2F906403A
:1030A0004FF4FA7114F1640F00DA8180B2F906204E
:1030B0006332C72A02D240F2DC528280B0F9042087
:1030C0009A4200DB8380B0F904208A4200DC8180D0
:1030D00010BD00001C000020034940F2DC50888035
:1030E00002490968C86370471C000020C40300201F
:1030F000FEF7D0F8FFF7C6F8FEF7B8FFFEF71CFFA3
:10310000FEF75EFFFFF75EF8FEF7E6FFFEF736FF1D
:1031100000F07EFAFFF764FB0948FEF7BBFC0021D4
:103120000748FEF71FFE04210548FEF71BFE082195
:103130000348FEF717FEFEF759FF00F010F8FEE710
:10314000C403002001460020842900D0C81C704719
:1031500010B500B9012000F0C5FB002010BD10B56E
:1031600000F0E6FB002010BD7FB50D460446416926
:10317000B0F9080081B1A16971B1FFF7E3FFD4E9AB
:1031800005128DE80700D4E900102B46226900F0F3
:10319000F8FC039004B070BDFFF7D4FF03A9CDE99C
:1031A0000001208A2B4682B2D4E9001000F0BCFC5A
:1031B000012801D00020EDE70398EBE72DE9F0416D
:1031C000184C0F460546E6682068001D00F0C2FA5C
:1031D00038B9206890F82C1001208840216981437B
:1031E0002161681C07D137B12168BDE8F0410E4864
:1031F000091D00F0F3BA20683544B54245602168E6
:1032000005D2A06BBDE8F041091D00F0CFBA606B9C
:10321000091D00F0CBFAA06A854200D2A562BDE884
:10322000F0810000B8000020480800202DE9F0419E
:10323000054600F0DFFA2E4CA068401CA060206814
:103240002C4F10B1606940B32DE02560A0680128C3
:1032500029D1002606EB860007EB800000F098FAE3
:10326000761C072EF6D323488C3000F091FA2148C3
:10327000A03000F08DFA1F48B43000F089FA1D48E4
:10328000C83000F085FA1B48DC3000F081FA19489C
:103290008C3060631430A06305E02068E96AC06A7E
:1032A000884200D82560606A401C6062E96A01209B
:1032B000226988401043206101EB810007EB800008
:1032C000291D00F08BFA00F0B5FA606900280CD0D7
:1032D0002068E96AC06A884207D207494FF08050E7
:1032E0000860BFF34F8FBFF36F8FBDE8F081000020
:1032F000B80000206C07002004ED00E010B5044683
:1033000090F8510058B101280CD002280FD050205D
:1033100080F31188BFF34F8FBFF36F8FFEE7206BF1
:1033200000F09CFA2046BDE8104000F097BA10BDAE
:1033300010484FF47051420706D0C01D0D4920F0CF
:103340000700411AC1F570510B4A00230144C2E93C
:1033500000030839183A21F0070111604B600B6037
:103360000B1AC0E9001393604FF0004053605061A6
:10337000704700005C0800200C010020144E154C22
:10338000A6F1C8074FF08058DFF84C9012E000BF5C
:1033900000F030FAF068C568281D00F0DBF9A0687D
:1033A000401EA0606068401E606000F043FA28463E
:1033B000FFF7A4FF60680028EAD138680128F9D92E
:1033C000C9F80080BFF34F8FBFF36F8FF2E70000A3
:1033D00034080020B800002004ED00E02DE9F0479B
:1033E0009A46DDE9098481466FF00303206B03EB05
:1033F00082021044089E20F00707780707D050206B
:1034000080F31188BFF34F8FBFF36F8FFEE7002566
:1034100061B1002023180A5C83F834200A5C12B1E1
:10342000401C1028F6D384F8435001E084F834504F
:10343000072E00D30626E662C4E91165201D00F0C0
:10344000B2F904F1180000F0AEF92461C6F10700EA
:103450006462A061E56484F850505246494638469B
:1034600000F0C0F82060B8F1000F01D0C8F80040AB
:10347000BDE8F08730B5114900E011460A68824284
:10348000FBD34B685C18844203D140681844486001
:10349000084643681C18944209D1084C183C24681B
:1034A000A24209D052681A4442600A681268026057
:1034B000814200D0086030BD0460F9E70C010020B3
:1034C0000648416B096829B1416BC968C9684968F8
:1034D000816270474FF0FF31FAE70000B80000202A
:1034E00008484068401C4FF0500080F3118804D019
:1034F000BFF34F8FBFF36F8FFEE7BFF34F8FBFF365
:103500006F8FFEE7140100202DE9F04105460027EA
:1035100000F044FA324E306808B9FFF709FF7069CD
:1035200005424ED1C5B3083568070ED005F0070037
:10353000C0F108000544680707D0502080F31188C7
:10354000BFF34F8FBFF36F8FFEE72DB370688542D7
:1035500037D82348183001460C6801E020460C4655
:103560006168A94202D221680029F7D131688C42F2
:1035700027D007682168016060680837411B10295F
:103580000FD96019420708D0502080F31188BFF38B
:103590004F8FBFF36F8FFEE713E041606560FFF769
:1035A00069FF61687068401A7060B268904200D22A
:1035B000B060706901430020C4E90001F068401C5C
:1035C000F06000F07DFB780707D0502080F3118871
:1035D000BFF34F8FBFF36F8FFEE73846BDE8F08132
:1035E000F400002010B5031F4FF080741C601B1FF7
:1035F00021F001011960191F044B0B6014390A6096
:10360000091F6FF0020244380A6010BDE13400085F
:1036100002492422A1F12400FEF7F4BDEA040020AF
:10362000FFF7F6FFFFF770F8FCE70000FFF728FD53
:10363000194D2860FFF750FD184C4FF4966640F680
:10364000C417A5F104082868C17A0229FBD1817A40
:10365000032916D1B0F90610642905DD21684E63EF
:1036600021688F63012207E011F1640FEBDA216812
:103670004F6321688E630222C8F80020C17A0229B4
:10368000E1D1807A0128DED1FFF7FEFC2068B5F990
:103690000410C163D7E700001C000020C403002011
:1036A000F0B5002855D0002953D00278437842EA7B
:1036B0000322C2F30A020A8043788478DB0843EAD3
:1036C0004413C3F30A034B808478C578A40944EA01
:1036D0008504057944EA8524C4F30A048C800579BD
:1036E00046796D0845EAC615C5F30A05CD804679C9
:1036F000C6F301168E724679B609CE728679C779FD
:1037000046EA07268E81067A477A46EA0726CE8160
:10371000867AC77A46EA07260E82067B8E74467B37
:10372000CE74867BC77B46EA07268E82067C407C69
:10373000A2F580620A80A3F580634B80A4F58064C3
:1037400046EA00208C80A5F58065CD80A0F58060DC
:103750000881F0BDD0E9013201699A60D0E9012306
:103760005A604A68824201D182684A60002202613E
:103770000868401E0860086870470000034B03603B
:1037800003F1540008608020106070472001002081
:1037900000F108014FF0FF32C0E90112C160016180
:1037A00000210160704700210161704730B50B684E
:1037B0005A1C02D000F1080202E0026904E022462D
:1037C000546825689D42FAD953684B6099608A60B5
:1037D000516008610168491C016030BD42684A605F
:1037E00093688B6093685960916008610168491C17
:1037F00001607047502080F31188BFF34F8FBFF3F3
:103800006F8F0A494868401C486001280CD108485D
:10381000006810F0FF0F07D0502080F31188BFF32D
:103820004F8FBFF36F8FFEE7704700001401002039
:1038300004ED00E00849486828B1401E486001D105
:1038400080F311887047502080F31188BFF34F8FA9
:10385000BFF36F8FFEE700001401002070B5002851
:103860002AD0164DA0F1080460686969084207D1A2
:10387000502080F31188BFF34F8FBFF36F8FFEE7A7
:1038800022683AB1502080F31188BFF34F8FBFF305
:103890006F8FFEE78843606000F080F860686968B9
:1038A000084468602046FFF7E5FD2869401C286150
:1038B000BDE8704000F004BA70BD0000F4000020C4
:1038C0004FF0E02000210161816105494FF47A72D7
:1038D0000968B1FBF2F1491E41610721016170479E
:1038E000B400002010B5020014D00F48006B38B1AE
:1038F000502080F31188BFF34F8FBFF36F8FFEE727
:1039000000F04CF800211046FFF758FC00F0D8F901
:10391000002807D105494FF080500860BFF34F8F52
:10392000BFF36F8F10BD0000B800002004ED00E071
:1039300010B586B00024039405AA04A903A8049432
:10394000FFF71CFFDDE903010094CDE9011000231E
:103950000EA11048059A00F014F90F490028C8621A
:1039600011D0502080F31188BFF34F8FBFF36F8FBA
:103970004FF0FF30886201204861CC6006B0BDE89E
:10398000104000F041B806B010BD000049444C455D
:10399000000000007D330008B80000200248016BE1
:1039A000491C016370470000B80000201448016BF7
:1039B00011B10121C16170470021C1610169B1FAF2
:1039C00081F1C1F11F0101EB81020E4951F8223052
:1039D0006BB101EB820101F108034A6852684A6049
:1039E0009A4201D152684A60D16801607047502004
:1039F00080F31188BFF34F8FBFF36F8FFEE7000096
:103A0000B80000206C0700201CB537480168374A11
:103A1000914207D1502080F31188BFF34F8FBFF33D
:103A20006F8FFEE700683149491E884207D1502058
:103A300080F31188BFF34F8FBFF36F8FFEE72C49E0
:103A400008780190FF20087008788DF800009DF834
:103A500000009DF8002000F0F000904207D05020B8
:103A600080F31188BFF34F8FBFF36F8FFEE79DF890
:103A70000000204C00F0500020700720A06005E0FE
:103A80009DF8002052008DF80020401E9DF8002077
:103A90001206F5D4A060032807D0502080F31188C7
:103AA000BFF34F8FBFF36F8FFEE74FF44070A060FE
:103AB000019808700C482030016841F470010160E1
:103AC000016841F070410160FFF7FAFE002060607C
:103AD000FCF7CEFB0848016841F040410160FCF76B
:103AE000B3FB00201CBD000000ED00E071C20F41DF
:103AF00000E400E01401002034EF00E010B5502095
:103B000080F31188BFF34F8FBFF36F8F00F072F80F
:103B100018B104494FF080500860002080F31188EC
:103B200010BD000004ED00E02DE9FF5F8346DDE9F4
:103B30000E87994616468A469000FFF7E5FC050079
:103B40001CD05420FFF7E0FC040014D000202563B3
:103B500084F85100CDE90240CDE900874B4632465A
:103B600051465846FFF73AFC2046FFF75FFB01201D
:103B700004B0BDE8F09F2846FFF770FE4FF0FF301D
:103B8000F6E7F0B585B0DDE90B640A9DA6B1DCB1BE
:103B9000542700972663022684F85160002604AF5C
:103BA000CDE90246CDE90057FFF718FC2046FFF7A4
:103BB0003DFB049805B0F0BD502080F31188BFF3A1
:103BC0004F8FBFF36F8FFEE7502080F31188BFF354
:103BD0004F8FBFF36F8FFEE70548416919B1006B46
:103BE00018B1002070470120704702207047000084
:103BF000B80000202DE9F0412F4C0026206B28B1A1
:103C0000A069401CA0613046BDE8F081E5686D1CEC
:103C1000E56013D1606B006838B1502080F31188E3
:103C2000BFF34F8FBFF36F8FFEE7606BA16B6163D4
:103C3000A063206A401C2062FFF742FCA06ADFF804
:103C40007C80854209D3606B0068A0B1606BC0685E
:103C5000C7687868854211D2A0622068C06A00EB0C
:103C6000800158F82100012800D90126E0690028C8
:103C7000C9D00126C7E74FF0FF30EDE7381DFFF749
:103C800069FDB86A18B107F11800FFF763FDF96A1A
:103C90000120226988401043206101EB810108EB7B
:103CA0008100391DFFF79AFDF86A2168C96A8842C8
:103CB000C9D30126C7E70000B80000206C07002028
:103CC0002DE9F0472C4D00242746286B38B1FFF72B
:103CD00091FD286B401E2863286B40B146E05020C0
:103CE00080F31188BFF34F8FBFF36F8FFEE7A96892
:103CF000224E0120D1B3A6F1B40980463068E8B164
:103D0000F068C46804F11800FFF724FD201DFFF7D8
:103D100021FDE06A2A6908FA00F11143296100EBEC
:103D2000800109EB8100211DFFF758FDE06A296839
:103D3000C96A8842E2D3C5F81C80DFE70CB1FFF7FF
:103D4000BFFBAC6944B14646FFF754FF00B1EE61DA
:103D5000641EF9D10020A861E86938B1084901273B
:103D600038070860BFF34F8FBFF36F8FFFF762FD17
:103D70003846BDE8F0870000B80000202008002089
:103D800004ED00E04FF04070E1EE100A70470000D3
:103D9000543E0008652200080000000000000000FA
:103DA000800000000000000000000000443E000809
:103DB0002136000800000000000000008000000024
:103DC00000000000000000004C3E00082D360008F6
:103DD0000000000000000000800000000000000063
:103DE00000000000603E00085130000800000000A4
:103DF0000000000080000000000000000000000043
:103E00003C3E0008192B00080000000000000000E4
:103E100080000000000000000000000000061016F6
:103E2000000610160000000000000000010203045C
:103E300006070809000000000102030463617264C0
:103E40000000000072656D6F746500007361766537
:103E50000000000064656661756C745461736B00EA
:103E60006368617373697300883E00080000002076
:103E700020010000C4010008A83F00082001002024
:103E8000A0490000E0010008000000000000000060
:103E90000000000000000000000000000000000022
:103EA0000100000000000000000000000000000011
:103EB0000000304100000000CDCCCC3D00401C464D
:103EC0000000803F00000000000000000000000033
:103ED000000000000000C8420000000000000000D8
:103EE00000007A460000803F0000C8420000000049
:103EF0000000000000007A460000803F0000C84239
:103F0000000000000000000000007A460000803F32
:103F10000000C842000000000000000000007A46D7
:103F20000000803F000000000000000000000000D2
:103F30000100000010000000000000000024F40058
:103F40000000000000000000000000000000000071
:103F50000000000000000000000000000000000061
:103F60000000000000000000000000000000000051
:103F70000000000000000000000000000000000041
:103F80000000000000000000000000000000000031
:103F90000000000000000000000000000000000021
:083FA000AAAAAAAA0000000071
:040000050800018965
:00000001FF
