:020000040800F2
:10000000A04E00202903000863270008DB22000817
:100010006127000883050008DD30000800000000AB
:10002000000000000000000000000000690200085D
:100030005906000800000000C50200081729000842
:100040004303000843030008430300084303000878
:100050004303000843030008430300084303000868
:100060004303000843030008430300084303000858
:100070009D050008430300084303000843030008EC
:100080004303000843030008430300084303000838
:1000900085050008430300084303000843030008E4
:1000A0004303000843030008430300084303000818
:1000B0004303000843030008430300084303000808
:1000C00043030008430300084303000843030008F8
:1000D00043030008430300084303000829300008D5
:1000E00043030008430300084303000843030008D8
:1000F00043030008430300084303000843030008C8
:1001000043030008430300084303000843030008B7
:1001100043030008430300084303000843030008A7
:100120004303000843030008A9050008430300082F
:100130004303000843030008430300084303000887
:100140009105000843030008430300084303000827
:100150004303000843030008430300084303000867
:100160004303000843030008430300084303000857
:100170004303000843030008430300080000000095
:10018000430300084303000800F002F800F05CF8A5
:100190000AA090E8000C82448344AAF10107DA45E2
:1001A00001D100F051F8AFF2090EBAE80F0013F0D8
:1001B000010F18BFFB1A43F001031847CC5500008C
:1001C000EC5500000A444FF0000C10F8013B13F00E
:1001D000070408BF10F8014B1D1108BF10F8015BA0
:1001E000641E05D010F8016B641E01F8016BF9D193
:1001F00013F0080F1EBF10F8014BAD1C0C1B09D1EA
:100200006D1E58BF01F801CBFAD505E014F8016B5B
:1002100001F8016B6D1EF9D59142D6D370470000ED
:100220000023002400250026103A28BF78C1FBD8FF
:10023000520728BF30C148BF0B6070471FB505F09B
:100240003FFA1FBD10B510BD00F061F91146FFF770
:10025000F5FF03F0B5FE00F07FF903B4FFF7F2FFFE
:1002600003BC00F087F900002C4B19680868B0E85F
:10027000F04F80F30988BFF36F8F4FF0000080F3D9
:10028000118870470000000008480068006880F38B
:1002900008884FF0000080F3148862B661B6BFF39F
:1002A0004F8FBFF36F8F00DF00BF00BF08ED00E08E
:1002B000DFF80C00016841F470010160704700BF75
:1002C00088ED00E0EFF30980BFF36F8F134B1A68DE
:1002D0001EF0100F08BF20ED108A20E9F04F1060CB
:1002E00009B44FF0500080F31188BFF34F8FBFF374
:1002F0006F8F04F0B5FB4FF0000080F3118809BC4C
:1003000019680868B0E8F04F1EF0100F08BFB0EC95
:10031000108A80F30988BFF36F8F70471C0100209B
:10032000EFF30580704700000948804709480047FF
:10033000FEE7FEE7FEE7FEE7FEE7FEE7FEE7FEE795
:10034000FEE7FEE704480549054A064B70470000F2
:10035000C529000889010008A0480020A04E0020FF
:10036000A04A0020A04A002053EA020C00F0698055
:100370002DE9F04B4FF00006002B1FBFB3FA83F5B9
:1003800003FA05F424FA05F65E4012BF1643B2FAEA
:1003900082F502FA05F4C5F120051EBF22FA05FC1C
:1003A00044EA0C04203556EA044C4FEA144418BFC2
:1003B000641C4FF000084FF00009904271EB030CF1
:1003C00039D3002919BFB1FA81F701FA07F6B0FA5B
:1003D00080F700FA07F6C7F120071EBF20FA07FCD6
:1003E00046EA0C062037B6FBF4FCA7EB0507103FE6
:1003F00007F01F0BCBF120060CFA0BFB2CFA06F6CC
:1004000044BFB3460026202FA4BF5E464FF0000B2A
:100410005BEA060C08BF4FF0010B19EB0B09ABFBB5
:10042000027C48EB0608C01B06FB02CC0BFB03CC8E
:1004300071EB0C01C1E70B46024641464846BDE858
:10044000F08B13B54FF000004FF00001AFF30080C8
:10045000BDE81C40704710B5203AC0F00B80B1E8F1
:100460001850203AA0E81850B1E81850A0E81850E9
:10047000BFF4F5AF5FEA027C24BFB1E81850A0E8F2
:10048000185044BF18C918C0BDE810405FEA827C0C
:1004900024BF51F8043B40F8043B08BF7047D20723
:1004A00028BF31F8023B48BF11F8012B28BF20F8C4
:1004B000023B48BF00F8012B70474FF0000200B527
:1004C000134694469646203922BFA0E80C50A0E877
:1004D0000C50B1F12001BFF4F7AF090728BFA0E825
:1004E0000C5048BF0CC05DF804EB890028BF40F8F1
:1004F000042B08BF704748BF20F8022B11F0804F33
:1005000018BF00F8012B7047704770477047754659
:1005100000F02CF8AE4605006946534620F007006F
:10052000854618B020B5FFF70DFFBDE820404FF01D
:1005300000064FF000074FF000084FF0000B21F0CD
:100540000701AC46ACE8C009ACE8C009ACE8C0099A
:10055000ACE8C0098D46704710B50446AFF3008083
:100560002046BDE81040FFF778BE00000048704705
:100570003C48002001491820ABBEFEE726000200DF
:100580007047FEE7014800F0E6B90000D8030020FC
:10059000014800F0E0B9000000040020014800F02C
:1005A0003DBD00009C050020014800F037BD000063
:1005B0003C05002001681823CAB2103AB2FBF3F2DE
:1005C000054B6FF30901032A9B5CC36500D9091D24
:1005D00081650846704700004457000810B5014681
:1005E00000208B698A6A4FF0C07453B1B3F5005F85
:1005F00015D072B1012A0CD0022A0AD0032A09D1DF
:1006000004E01AB1012A06D0022A03D1C96AC9013D
:1006100000D5012010BDC96AA142FAD010BD002A40
:10062000F7D0012AF2D0022AF3D0032AF3D010BD6A
:1006300030B50468256825F480252560046863606A
:100640008368402B036803D099600068C26030BDA6
:100650009A600068C16030BD704772B6FEE790F8DE
:100660002020012A07D0022A05D0416A41F48021C6
:10067000416201207047006842690A4342610020DC
:100680007047F0B590F820500468A468012D05D09B
:10069000022D03D0416A41F480215DE014F0406FE7
:1006A00001D1E50055D5C4F30164022C03D9416A98
:1006B00041F4000150E00125A5401D608D684FF414
:1006C000C0739DB1CE6835434E6845EAC6050668DD
:1006D00003EB0417F5514FF4C275076805EB0415D9
:1006E0000E697E51097D012905D009E00E88CD688B
:1006F00045EA4655EBE701684E5946F480764E517F
:100700001179D579567941EA056195792D0445EA43
:10071000062529434FF4C676056806EB0416A95151
:100720001178D57841EA0561957852782D0445EA2B
:10073000022211434FF4C475026805EB04155151B0
:10074000006803EB0411425842F0010242500020BD
:10075000F0BD416A41F4001141620120F0BD00008A
:1007600010B590F82020012A07D0022A05D0416A4E
:1007700041F480214162012010BD3B48D0F80022A5
:1007800042F00102C0F80022D0F8002222F47C528C
:10079000C0F80022D0F800224B6A42EA0322C0F8D7
:1007A00000220A7D02F01F0301229A40D0F81C3279
:1007B0009343C0F81C32CB69B3B9D0F80C329343E1
:1007C000C0F80C328C894B6864F31F434C6900EB12
:1007D000C404C4F840320C890B6864F31F434C69AD
:1007E00000EBC404C4F84432CB69012B16D1D0F815
:1007F0000C321343C0F80C320C884B6864F31F436F
:100800004C6900EBC404C4F840320C89CB6864F333
:100810001F434C6900EBC404C4F844328B69002BBD
:10082000D0F804320ED01343C0F804320B69002B09
:10083000D0F8143208D01343C0F81432096A0129E1
:1008400004D008E09343EFE79343F5E7D0F81C1298
:100850001143C0F81C12D0F8001221F00101C0F8B9
:100860000012002010BD000000640040704730B549
:1008700090F82040012C05D0022C03D0416A41F4AD
:1008800080215DE00468002955D02469A40754D074
:100890004FF4D874056804EB01142D5915F00405C4
:1008A000956005682D594ED0ED08556005682C59A6
:1008B00004F00204D4604FF4DA74056804EB011408
:1008C0002D5905F00F05156105682D59C5F307254C
:1008D000956105682C59240C54614FF4DC7204684E
:1008E00002EB0112A4581C700468A458240A5C701E
:1008F0000468A458240C9C700468A258120EDA7084
:100900004FF4DE72046802EB0112A4581C710468F3
:10091000A458240A5C710468A458240C9C710468CF
:10092000A258120EDA71006881B1016941F020010C
:100930000161002030BDE468A8E7416A41F400117C
:100940004162012030BD6D0D1560AFE7C16841F017
:100950002001C160EDE72DE9F05F05460068002445
:100960004669D0F804908768D0F80CB0D0F810A091
:10097000D0F81880F10748D0F90714D00121816020
:10098000B80703D5284600F042FB0CE0780702D5F3
:100990004FF4006407E0380702D54FF4805402E0BA
:1009A000284600F033FBF80516D529684FF480700F
:1009B0008860B80503D5284600F02BFB0CE07805CD
:1009C00002D544F4005407E0380502D544F48044CD
:1009D00002E0284600F01CFBF80316D529684FF406
:1009E00080308860B80303D5284600F014FB0CE083
:1009F000780302D544F4004407E0380302D544F4F8
:100A0000803402E0284600F005FB300707D55FEA96
:100A1000CB6004D52968102044F40074C8607007C6
:100A20004FF0080707D55FEA0B7004D52868C76048
:100A3000284600F099F9B00706D52868C0688007F5
:100A400002D0284600F092F9700607D55FEACA6026
:100A500004D52968102044F480640861B00607D5E5
:100A60005FEA0A7004D528680761284600F09EFAFC
:100A7000F00606D528680069800702D0284600F0F5
:100A800096FAB00308D55FEAC96005D52968102039
:100A90004860284600F08CFAF00307D55FEA097039
:100AA00004D528684760284600F0B6FA300446D5D9
:100AB0005FEA497040D5F00504D55FEAC87001D0FF
:100AC00044F00104B00504D55FEA887001D544F014
:100AD0000204700504D55FEA487001D544F00404AF
:100AE000300529D518F0700F26D008F07000402886
:100AF00015D006DC102809D020280AD0302816D1BD
:100B00000AE050280ED0602811D10EE044F008040D
:100B10000DE044F010040AE044F0200407E044F043
:100B2000400404E044F0800401E044F48074286848
:100B3000816921F070018161296804204860002CDE
:100B400005D0686A204368622846FFF78FFEBDE83B
:100B5000F09F70B5040003D094F8200010B104E0B9
:100B6000012070BD204600F081F82068016841F046
:100B70000101016000F0C6FC0546052604E000F016
:100B8000C1FC401B0A2811D820684068C007F6D075
:100B90002068016821F00201016000F0B3FC054605
:100BA0000BE000F0AFFC401B0A2806D9606A40F455
:100BB0000030606284F82060D2E7206840688007D7
:100BC000EFD4207E0128206801683DD021F080010B
:100BD0000160607E01282068016838D021F0400162
:100BE0000160A07E01282068016833D021F0200137
:100BF0000160E07E0128206801682ED041F01001DC
:100C00000160207F01282068016829D021F00801B7
:100C10000160607F01282068016824D021F0040170
:100C20000160D4E902010843D4E9041211430843E6
:100C30006168491E08432168C86100206062012084
:100C400084F82000002070BD41F08001C0E741F031
:100C50004001C5E741F02001CAE721F01001CFE7CC
:100C600041F00801D4E741F00401D9E7F0B587B0BD
:100C7000044614216846FFF720FC364B3648DFF85F
:100C8000D0E01968D4F800C0334A032502260927AA
:100C900010300024491CF44522D11960012907D1E4
:100CA000016841F000710160006800F0007005907B
:100CB000106840F0080010601068CDE9005600F0A0
:100CC0000800CDE9047069462448CDE9024500F0EA
:100CD00017FB00220521142000F086FC142032E0CE
:100CE000DFF87CE0F44530D1D0F800C04CF0806CE7
:100CF000C0F800C0D0F800C001290CF0806CCDF81D
:100D000014C0196007D1016841F0007101600068EA
:100D100000F000700590106840F00200106010684C
:100D200002AB00F0020005906020CDE9000683E8E8
:100D3000B00069460B4800F0E3FA0022052140208C
:100D400000F052FC402000F041FC07B0F0BD000074
:100D5000006400401000002030380240000C0240C7
:100D6000006800400004024070470000F0B50446EF
:100D70002DED028B89B06B4602AA0021FFF777FDAB
:100D8000844841F288356E42834A844984424FD177
:100D90000298A0F50073013B06D0012B2ED0022B48
:100DA0002CD0032B44D129E0042010707B4BB1F9E7
:100DB000307003F130001F87BDF800305BBA0B863E
:100DC000BDF802C0DB1B9CFA9CFCA0F802C0BDF879
:100DD00004C0AB429CFA9CFCA0F804C09DF806C07D
:100DE00080F806C003DD6D4F7F8F7F1E4781B342C1
:100DF0001EDA6A4B5B8F5B1C438119E0C01CC0B2DA
:100E0000507000EB400301EB830031F82370078141
:100E1000BDF800707FBA21F82370BDF802305BBACC
:100E20004380BDF804305BBA83809DF8063083713F
:100E30005B48844274D1594F6C379FED5A8B029CAA
:100E4000A4F20124062C6BD2DFE804F00323235123
:100E5000896E00209070B1F900300B81BDF8000060
:100E600040BA0880BDF80270C31A7FBA4F80BDF83F
:100E70000470AB427FBA8F809DF806708F7102DDDF
:100E80004F897F1E4F810846B34202DA43895B1CBB
:100E90004B81E0B2D07000EB400301EB830031F8EE
:100EA00023700781BDF800707FBA21F82370BDF868
:100EB00002707FBA4780BDF804707FBA87809DF8C2
:100EC0000670877131F82370B0F908C0A7EB0C07E2
:100ED000AF4202DD45896D1E458131F82330B0F9FE
:100EE00008505B1BB34202DA43895B1C4381E0B2CA
:100EF000107100EB400201EB820031F822300381D7
:100F0000BDF800305BBA21F82230BDF8021049BAB2
:100F10004180BDF8041049BA81809DF806108171A6
:100F200009B0BDEC028BF0BDBDF8040040BAF880FA
:100F30009DF803003871BDF8010078809DF800101D
:100F4000397001EB002000B2388104F0A7F953ECAE
:100F5000182B04F04BF803F06FFFF860E0E7BDF8E2
:100F6000040040BAF8829DF803003875BDF801000E
:100F700078829DF80010397401EB002000B23883AC
:100F800004F08CF953EC182B04F030F803F054FF04
:100F9000F861C5E7D8030020160000208406002071
:100FA000000400200000000000408F4070477047A0
:100FB0007047000070B5044690F82000012804D066
:100FC000606A40F40020606218E0022084F820008B
:100FD0002068016821F00101016000F093FA0546E4
:100FE0000EE000BF00F08EFA401B0A2808D9606AA4
:100FF00040F400306062052084F82000012070BDBC
:1010000020684068C007EDD1606270BD70477047CE
:101010007047704770477047704700002DE9F843EC
:1010200004464FF00009CDF8009063484FF4165184
:10103000A56D0068B0FBF1F72E6894F85C100820ED
:1010400000FA01F131420FD021680A6852070BD52E
:101050000A6822F004020A6094F85C108840A860D4
:10106000606D40F00100606594F85C104FF001087D
:1010700008FA01F0304208D021684969090604D510
:10108000A860606D40F00200606594F85C10042078
:101090008840304208D021680968890704D5A860D3
:1010A000606D40F00400606594F85C10102088408A
:1010B000304218D021680968090714D5A860206853
:1010C0000168490304D50068000308D5A16C07E056
:1010D0000168C90503D4016821F008010160216C91
:1010E00009B12046884794F85C102020884030429F
:1010F00031D021680968C9062DD5A86094F835005B
:1011000005282068016806D0490347D50068000318
:101110001DD4616C1CE021F016010160206841695A
:1011200021F080014161206C08B9A06C20B12068D9
:10113000016821F00801016094F85C103F208840AC
:10114000A86084F8358084F83490216D1FE0E16B4D
:1011500009B120468847606D00282BD0606DC0071C
:1011600014D0052084F835002068016821F00101C1
:1011700001600098401C0090B84203D820680068C5
:10118000C007F6D184F8358084F83490E16C0029EA
:1011900010D001B02046BDE8F04308470168C905FA
:1011A000D5D4016821F01001016084F8358084F8FD
:1011B0003490CCE7BDE8F883180100202DE9F04118
:1011C000044600F09FF906465CB1022084F8350021
:1011D000002584F834502068016821F00101016085
:1011E0000DE00120BDE8F08100F08CF9801B05289E
:1011F00005D920206065032084F83500F2E72068D7
:101200000068C007F0D12268116820480140D4E985
:1012100001031843D4E90336334318436369184381
:10122000A3691843E3691843236A18430843616AB2
:10123000042903D1D4E90B13194308431060206833
:101240004069666A20F0070130460E4301270428F2
:101250000CD1A06A0643E06A40B12046FFF7BEF910
:1012600020B14020606584F83570BAE72068466197
:101270002046FFF79FF994F85C203F219140816060
:10128000656584F835700020ACE700003F8010F001
:101290002DE9F0410446866D90F8340000250128C0
:1012A0000DD0012084F8340094F835700020012F0F
:1012B00007D084F8340002252846BDE8F0810220DA
:1012C000FBE7022784F8357060652046FFF7B0F928
:1012D00094F85C103F208840B0602068016841F0BD
:1012E00016010160206C20B12068016841F00801FE
:1012F00001602068016841F001010160DCE7000045
:101300002DE9F84FDFF8BCA1002201250AF1040BFA
:1013100003264FF00F090BF1040E00BF0B6805FA0E
:1013200002F42340A34270D10F7907F00307012F85
:1013300001D0022F16D187684FEA420806FA08FC4E
:1013400027EA0C07D1F80CC00CFA08FC4CEA070C91
:10135000C0F808C04768A7430C79C4F30014944050
:101360003C4344600C79E443A4070AD0C4684FEAC4
:10137000420C06FA0CF7BC438F6807FA0CF72743B8
:10138000C7600C7904F00304022C12D1D40800EBDE
:10139000840CDCF820405707FF0E09FA07F824EA0E
:1013A0000804D1F8108008FA07F848EA0408CCF8D5
:1013B000208004684FEA420C06FA0CF7BC430F7910
:1013C00007F0030707FA0CF7274307604C6814F48B
:1013D000403F70D03C4C276847F480472760246822
:1013E00022F0030704F480440094384C07EB040C0B
:1013F000DCF8084897074FEA177809FA08F7BC4362
:10140000334FB84202D1002724E054E0314FB842B4
:1014100001D101271EE0304FB84201D1022719E067
:101420002E4FB84201D1032714E02D4FB84201D10D
:1014300004270FE02B4FB84201D105270AE02A4FBD
:10144000B84201D1062705E0284FB84201D107274D
:1014500000E0082707FA08F72743CCF80878DAF8FD
:1014600000405746D1F804C09C435FEACC3C00D50D
:101470001C433C60DBF800405F46D1F804C09C434D
:101480005FEA8C3C00D51C433C60DEF800407746A8
:10149000D1F804C09C435FEACC2C00D51C433C60CF
:1014A000084F0C373C68D1F804C09C435FEA8C2C91
:1014B00000D51C433C60521C102AFFF42FAFBDE83E
:1014C000F88F0000003C01404438024000300140E9
:1014D000000002400004024000080240000C0240EC
:1014E000001002400014024000180240001C02409C
:1014F0000069084000D0012070470AB1816170473F
:101500000904FBE701488068704700000C010020D7
:101510000248816802781144816070470C01002004
:101520000B4810B5016841F400710160016841F495
:1015300080610160016841F480710160032000F066
:1015400073F80F2000F006F800F024F8002010BD1A
:10155000003C024070B50D4D04464FF47A71287876
:10156000B1FBF0F00A490968B1FBF0F000F010FBA4
:1015700048B9102C07D200222146501E00F034F842
:1015800000206C6070BD012070BD00000C010020C7
:10159000180100200C4882B0016841F480410160CC
:1015A000006800F4804000900748001F016841F087
:1015B000805101600068002200F0805000900F21EF
:1015C000901E02B000F010B844380240002809DB39
:1015D00000F01F02012191404009800000F1E0204D
:1015E000C0F8001170470000F0B40E4B1B680C46A9
:1015F000C3F30223C3F10705042D00D90425191DE7
:10160000072901D2002300E0DB1E012606FA05F1BE
:10161000491E214099409E40761E16403143F0BC41
:1016200001F05DBD0CED00E0064900F0070208681E
:101630004FF6FF03184040EA0220034A10430860B7
:10164000704700000CED00E00000FA052DE9F047BE
:101650000E46050065D0DFF81481D8F80000F7B217
:1016600000F00700B04207D288F80070D8F80000F8
:1016700000F00700B04254D128683D4C810712D5D4
:10168000400703D5206840F4E05020602878000728
:1016900003D5206840F4604020602068A96820F0ED
:1016A000F000084320602878C0072DD030496868D2
:1016B0000839012812D0022813D0032811D0096854
:1016C000890700292DDA216821F0030101432160F7
:1016D000FFF718FF814641F2883A0EE00968890356
:1016E000EFE709688901ECE7FFF70CFFA0EB0901C0
:1016F000514502D90320BDE8F0872068696800F0F1
:101700000C00B0EB810FEFD1D8F80010404601F08B
:101710000701B14207D90770006800F00700B04226
:1017200001D00120E7E72878400705D52068E9685F
:1017300020F4E050084320602878000706D5206890
:10174000296920F4604040EAC100206000F038F8C8
:101750002168084AC1F30311515CC840064908607A
:1017600006480068FFF7F6FE0020C4E7003C024090
:10177000083802404C5700081801002010010020D2
:101780000448054900680968044AC1F38221515C94
:10179000C840704718010020083802405C57000814
:1017A0000448054900680968044AC1F34231515CA4
:1017B000C840704718010020083802405C570008F4
:1017C000154810B5006810F00C02144813D01449E5
:1017D000042A0FD0082A0ED10F4C241F2268236838
:1017E00002F03F025B0207D52068C0F38810A0FB1F
:1017F000010106E0084610BD2168C1F38811A1FB74
:1018000000010023FEF7B0FD2168C1F30141491C2E
:101810004900B0FBF1F010BD083802400024F4008C
:10182000001BB7002DE9F84F04006ED02078DFF8D8
:101830004C93C007A9F104054AD009F104000168DE
:10184000C1F38101012908D00068C0F3810002289A
:101850000AD1D9F80000400206D52868800337D5A0
:1018600060680028E1D033E06068B0F5803F10D0B8
:10187000B0F5A02F286810D020F4803028602868A8
:1018800020F4802028606068A8B1FFF73BFE064680
:101890000DE0286840F48030F4E740F480202860B0
:1018A000F7E700BFFFF72EFE801B642873D8286877
:1018B0008003F7D50CE0FFF725FE064605E000BFE4
:1018C000FFF720FE801B6428F0D828688003F7D437
:1018D0002078DFF8AC8280074FF0000A3ED5A74899
:1018E000001D016811F00C0F08D00068C0F38100E2
:1018F00002280BD1D9F80000400207D428688007DD
:1019000016D5E068012800D112E033E1E068B8B1F3
:101910000120C8F80000FFF7F5FD064605E000BF0E
:10192000FFF7F0FD801B0228C0D828688007F7D594
:101930002868216920F0F80040EAC10028600DE025
:10194000C8F800A0FFF7DEFD064604E0FFF7DAFD69
:10195000801B02281FD828688007F7D4207800074A
:1019600022D5864F87486169703771B101210160C6
:10197000FFF7C8FD064604E0FFF7C4FD801B022800
:1019800009D838688007F7D50EE0C0F800A0FFF747
:10199000B9FD064605E082E0FFF7B4FD801B022892
:1019A0007DD838688007F7D42078400768D5DFF8FD
:1019B000CCB100270BF13C0BDBF80000C0000BD4CE
:1019C000DBF8001041F08051CBF80010DBF800008C
:1019D000012700F0805000906B4E3068C00510D495
:1019E000306840F480703060FFF78CFD009005E0B7
:1019F000FFF788FD0099401A022850D83068C005CA
:101A0000F6D55E4EA0686C3601280FD005283068E8
:101A100010D020F001003060306820F00400306009
:101A2000A068B8B1FFF76EFD00900FE0306840F09D
:101A30000100F4E740F004003060F7E7FFF762FDD3
:101A40000099411A41F28830814266D83068800797
:101A5000F4D50EE0FFF756FD009007E0FFF752FDCA
:101A60000099411A41F28830814256D83068800787
:101A7000F4D42FB1DBF8001021F08051CBF8001026
:101A8000A069C8B33D49091D0968C1F38101022954
:101A90004AD00228504607D0C8F8600000E03CE079
:101AA000FFF730FD04463BE04746C8F86000FFF70B
:101AB00029FD064605E000BFFFF724FD801B022834
:101AC0002BD828688001F7D4D4E907010843A16A1C
:101AD0002E4A490802EB0141626A41EA8211084339
:101AE00094F82C1040EA0161C9F800100120386612
:101AF000FFF708FD044606E03EE000BFFFF702FDE9
:101B0000001B022809D828688001F7D534E000BFFF
:101B1000FFF7F8FC001B022802D90320BDE8F88F6C
:101B200028688001F4D427E00128F7D0D9F8000014
:101B3000E26900F4800191421CD1226A00F03F0169
:101B4000914217D147F6C071626A0140B1EB821F22
:101B500010D1A26A4FF0FF3300F4403103EB520280
:101B6000B1EB024F06D194F82C1000F07060B0EB8E
:101B7000016F01D00120D1E70020CFE704380240F7
:101B800000004742800E4742007000400000FFFF07
:101B900010B5401EB0F1807F01D3012010BD4FF081
:101BA000E02460610F21601701F099FA0020A06124
:101BB00007202061002010BD10B590F83C20012ABC
:101BC00022D0012280F83C20CA688C6822F440723E
:101BD00022434C6822F4806222430C6822F40062A3
:101BE00022430C6922F4805222434C6922F40052B1
:101BF0002243C969002322F480420A4301684A64EF
:101C000080F83C30002010BD022010BD70B590F867
:101C10003C20012A32D0012480F83C40022280F886
:101C20003D2003685A689D6822F070060A683243B6
:101C30005A60134B02689A4214D0B2F1804F11D00F
:101C4000104B9A420ED0104B9A420BD00F4B9A4237
:101C500008D00F4B9A4205D00E4B9A4202D00E4B41
:101C60009A4204D1496825F080031943916080F8B5
:101C70003D40002180F83C10084670BD022070BD38
:101C8000000001400004004000080040000C00403B
:101C900000040140004001400018004010B504005D
:101CA00003D094F83D0010B107E0012010BD0020E2
:101CB00084F83C00204600F01FF8022084F83D0024
:101CC000211D206800F086FE012084F8460084F87B
:101CD0003E0084F83F0084F8400084F8410084F816
:101CE000420084F8430084F8440084F8450084F8F6
:101CF0003D00002010BD000008B50068064988427C
:101D000008D10648016841F001010160006800F057
:101D10000100009008BD000000000140443802406E
:101D200090F83D10012901D001207047022180F870
:101D30003D1000681149884214D0B0F1804F11D095
:101D40000F4988420ED00F4988420BD00E49884275
:101D500008D00E49884205D00D49884202D00D496D
:101D6000884204D1816801F00701062903D0016887
:101D700041F00101016000207047000000000140B7
:101D80000004004000080040000C00400004014036
:101D9000004001400018004070B5044690F83C0037
:101DA0000025012817D0012684F83C60022084F821
:101DB0003D002068826822F0770222F47F42826030
:101DC0000868502838D00DDC20284FD005DC90B3AF
:101DD000102811D14AE0022070BD302846D040289A
:101DE0000AD13BE060282FD070280DD0B0F5805F7D
:101DF00003D0B0F5005F12D0012584F83D600020CB
:101E000084F83C00284670BDCB68D1E901212068E8
:101E100000F051FE2068816841F0770109E0CB684D
:101E2000D1E90121206800F046FE2068816841F474
:101E300080418160E1E719E0CA684968206800F0E4
:101E40000FFF5021206806E0CA684968206800F04A
:101E500018FF6021206800F038FECEE7CA684968A4
:101E6000206800F0FDFE40212068F4E7226801466A
:101E70001046F0E710B586B0044614216846FEF718
:101E80001CFB0E492068884216D10D4800210268CB
:101E900042F010020260006800F0100005904FF45C
:101EA000206000900220CDE901010120CDE903105E
:101EB00069460448FFF724FA06B010BD000001404F
:101EC000303802400010024070B5044690F83C00E3
:101ED00000260D4601280FD0012084F83C006AB18D
:101EE000042A1DD0082A2FD00C2A3FD0012600201A
:101EF00084F83C00304670BD022070BD206800F0C0
:101F0000EDFD2068816941F00801816120688169E7
:101F100021F004018161206881692A69114311E07F
:101F2000206800F00BFE2068816941F40061816146
:101F30002068816921F480618161206881692A6952
:101F400041EA02218161D2E7206800F02DFE20687D
:101F5000C16941F00801C1612068C16921F0040133
:101F6000C1612068C1692A69114311E0206800F04D
:101F70004FFE2068C16941F40061C1612068C169F8
:101F800021F48061C1612068C1692A6941EA0221A6
:101F9000C161ACE710B5040003D094F83D0010B166
:101FA00007E0012010BD002084F83C00204600F02E
:101FB0001EF8022084F83D00211D206800F00AFD73
:101FC000012084F8460084F83E0084F83F0084F83D
:101FD000400084F8410084F8420084F8430084F80B
:101FE000440084F8450084F83D00002010BD70478F
:101FF00010B50446022249B104290ED0082913D095
:1020000094F84100012816D0012010BD94F83E003C
:102010000128F9D184F83E200FE094F83F00012810
:10202000F2D184F83F2008E094F840000128EBD179
:1020300084F8402001E084F841200122206800F06B
:102040002DFD16492068164A884201D0904203D1DE
:10205000436C43F4004343642068884213D0B0F1DA
:10206000804F10D00F4988420DD00F4988420AD0C6
:102070000E49884207D0904205D00D49884202D0CF
:102080000C49884204D1816801F00701062903D078
:10209000016841F001010160002010BD0000014015
:1020A000000401400004004000080040000C004013
:1020B00000400140001800407047704770B50400B0
:1020C00004D094F83D00002510B106E0012070BD59
:1020D00084F83C50204600F023F8242084F83D008A
:1020E0002068C16821F40051C160204600F084FEE0
:1020F0002068016921F4904101612068416921F063
:102100002A0141612068C16841F40051C160256421
:10211000202084F83D0084F83E00002070BD0000BF
:102120002DE9F04F87B0064614216846FEF7C5F941
:102130005448DFF84CC13368002452491438022552
:10214000032707224FF000694FF4806A4FF4403BA9
:1021500063453FD10B6843F010030B60096801F041
:1021600010010591016841F002010160016801F070
:1021700002010591016841F001010160006802ABB4
:1021800000F0010005908020CDE90005904683E82D
:10219000900169463C48FFF7B3F82802CDE90005F5
:1021A00002AB694683E890013848FFF7A9F8394D3A
:1021B00037482860C5E90194C5E9034A6C61AC6100
:1021C000C5E9074B28466C6233E0B563AE6307B0E0
:1021D000BDE8F08FDFF8C0C0634531D12949091F40
:1021E0000B6843F480230B60096801F4802105919A
:1021F000016841F0040101600068029400F00400ED
:1022000005904FF44060CDE90005CDE903726946C1
:102210002248FFF775F81F4D214860352860C5E951
:102220000194C5E9034A6C61AC61C5E9074B2846D6
:102230006C62FEF7C3FF0028C7D0FEF70EFAC4E7B2
:10224000184A9342C3D10A6842F020020A60096822
:1022500001F020010591016841F040010160006832
:10226000029400F0400005904FF48440CDE9000551
:102270000820CDE9037069460B48FFF741F8A6E74F
:1022800000100140443802400004024000000240B7
:10229000406402403C050020004800400008024025
:1022A00028600240001401400018024090F83E30BF
:1022B000202B0ED159B152B190F83C30012B08D0EF
:1022C000012380F83C300023036300F01BBE012093
:1022D00070470220704770477047FEE72DED068B70
:1022E0001F4C1E48A06101F0E3FD9FED1E8B9FED8A
:1022F0001FAB65684FF4B4712888484302F0E5FFCE
:1023000053EC182B02F072FE53EC1A2B02F0F0FF84
:1023100041EC190B68894FF4B47110FB01F002F025
:10232000BDFF53EC182B02F061FE53EC192B02F0A9
:10233000B5FD02F081FD2066206A8047606A804713
:10234000A06A8047E06A8047012002F025FB606BAD
:102350008047032002F020FBCBE70000B13E0008DD
:10236000680A002000000000000033400000000068
:102370000000203F0F4810B50D4901600321416066
:1023800000214FF410228160C0E903124FF40012C3
:102390004261017641768176C17601774177FEF719
:1023A000D8FB002803D0BDE81040FEF756B910BD99
:1023B00000640040D80300200F4810B50D490160AB
:1023C0000321416000214FF410228160C0E9031213
:1023D0004FF400124261017641768176C176017731
:1023E0004177FEF7B6FB002803D0BDE81040FEF7AA
:1023F00034B910BD0068004000040020114808B541
:10240000016841F400110160016801F400110091BC
:10241000016841F4800101600068002200F480003E
:10242000009005210C20FFF7DFF80C20FFF7CEF815
:10243000002205213A20FFF7D7F8BDE808403A20EE
:10244000FFF7C4B83038024010B59CB01C221649C2
:102450006846FEF700F80021684601F0FCFE134CC8
:1024600011491C2220601C3107A8FDF7F4FF002150
:1024700007A801F0F0FE0C4960601C2238310EA85C
:10248000FDF7E9FF00210EA801F0E5FE0649A06076
:102490001C22543115A8FDF7DEFF002115A801F01C
:1024A000DAFEE0601CB010BDD45600080000002029
:1024B0002DE9F04186B014216846FDF7FEFF424841
:1024C0000024016841F002010160016801F002018D
:1024D0000591016841F040010160016801F040018F
:1024E0000591016841F001010160016801F00101FD
:1024F0000591016841F008010160016801F00801DF
:102500000591016841F004010160016801F00401D6
:102510000591016841F480710160016801F48071E6
:102520000591016841F080010160016801F08001BE
:102530000591016841F020010160016801F020016E
:102540000591016841F01001016000681F4F00F023
:1025500010000590002280213846FEF7CEFFDFF8FC
:1025600070804FF48046002231464046FEF7C5FF9A
:10257000802000900125CDE9015469463846039436
:10258000FEF7BEFE02208DE8310069461148FEF7D5
:10259000B7FE4FF44050CDE900046946404602942E
:1025A000FEF7AEFE0096CDE901546946404603941D
:1025B000FEF7A6FEE8038DE8310069464046FEF7C7
:1025C0009FFE06B0BDE8F081303802400020024096
:1025D000000402400014024010B596B000240F948D
:1025E00010941194129413941C2168461494FDF7CE
:1025F00064FF202107A8FDF760FF2D482B490160EB
:10260000A721C0E9011444F61F61C0E90314446125
:102610008461FFF743FB08B1FEF71FF84FF48050C9
:102620000F900FA92248FFF7B7FB08B1FEF715F886
:102630001F48FFF7AFFC08B1FEF70FF8139413A97A
:102640001B481494FFF7E2FA08B1FEF706F8602081
:1026500000904FF4FA60CDE90104039404940594CA
:102660000022694612480694FFF72EFC08B1FDF7D8
:10267000F4FF042269460E48FFF726FC08B1FDF777
:10268000ECFF0794089409944FF400500A94CDE9A4
:102690000B4007A906480E94FFF78EFA08B1FDF724
:1026A000DCFF0348FFF7E6FB16B010BD0000014059
:1026B000280400200C4810B50A4901604FF4E131AC
:1026C0004160002181600C22C160C0E90412816177
:1026D000C161FFF7F3FC002803D0BDE81040FDF70F
:1026E000BCBF10BD00100140700400200C4810B5A4
:1026F0000A4901600B494160002181600C22C160E0
:10270000C0E904128161C161FFF7D8FC002803D041
:10271000BDE81040FDF7A1BF10BD0000004800401B
:10272000B4040020A08601000C4810B50A490160DD
:102730004FF4E1314160002181600C22C160C0E9A9
:1027400004128161C161FFF7B9FC002803D0BDE824
:102750001040FDF782BF10BD00140140F8040020B6
:10276000FEE7FEE7F8B1D0ED101A00EE102AC0ED3A
:10277000111AD0ED0F0AB8EEC00AC0ED100A80EDB4
:10278000060A00EE101A511AB8EEC00A80ED070AC8
:1027900000EE101AB8EEC00A80ED0F0A017829B1D8
:1027A000012939D076E09FED3D0A704790ED011A7E
:1027B00061EE001AC0ED091A90ED0A1A90ED022A96
:1027C00002EE001A30EE600A80ED0A1A90ED0D2A32
:1027D00080ED0E2A90ED0C2A80ED0D2A80ED0C0A7A
:1027E000D0ED030A60EE800AC0ED0B0A90ED050AF9
:1027F000B4EEC01AF1EE10FA09DCB1EE400AB4EE04
:10280000C01AF1EE10FA02D390ED0A0A01E080ED51
:102810000A0A31EE800A29E030EE601A90ED012AB2
:1028200021EE021A80ED091A90ED022A22EE002A0A
:1028300080ED0A2AD0ED0D2AC0ED0E2AD0ED0C2A2B
:10284000C0ED0D2AF0EE002A00EEE20A30EE210A79
:1028500080ED0C0AD0ED030A20EE800A71EE020A28
:1028600080ED0B0A30EE800AD0ED080A30EE200A27
:1028700080ED080AD0ED040AB4EEE00AF1EE10FA99
:1028800006DCF1EE600AB4EEE00AF1EE10FA01D2D5
:10289000C0ED080A90ED080A704700000000000033
:1028A00030B5144B1C68656945F0400565611B68CF
:1028B000DC6844F01004DC600F4B1C68256825F0D0
:1028C000010525601C682568ED07F7D11D680B4CD4
:1028D000AC601C68E06018680161186842601868A4
:1028E000016841F4802101601868016841F001012C
:1028F000016030BDB40400209C0500200448004065
:1029000000F0D0FD01F066FF01F08CFB00F0F8FB59
:1029100000F016FCF6E710B5FEF7FAFD02F0B6F986
:10292000012803D0BDE8104002F042B910BD0000FC
:1029300030B593B030216846FDF7BFFD14210CA8D7
:10294000FDF7BBFD1D480025016841F08051016085
:10295000006800F0805011901948016841F48041EE
:1029600001600068022400F4804011900120009072
:10297000000401908001CDE9064006200890A820BF
:10298000CDE9090404200B906846FEF74BFF08B11F
:1029900072B6FEE70CA90F2081E831004FF4A05079
:1029A0000F904FF48050109005210CA8FEF74EFEBA
:1029B000002801D072B6FEE713B030BD40380240A7
:1029C000007000400248016841F4700101607047E6
:1029D00088ED00E0F0B50268254C264D264E274FC5
:1029E000274B4FF0804CA04209D0604507D0A84249
:1029F00005D0B04203D0B84201D0984204D122F0B1
:102A0000700E4A6842EA0E02A0421BD0604519D0FF
:102A1000A84217D0B04215D0B84213D0984211D076
:102A2000184DA8420ED0184DA8420BD0174DA84201
:102A300008D0174DA84205D0164DA84202D0164D19
:102A4000A84203D122F44075CA682A434D6922F096
:102A500080022A4302608A68C2620A688262A042D7
:102A600001D0984201D10969016301214161F0BDA2
:102A7000000001400004004000080040000C00403D
:102A80000004014000400140004401400048014072
:102A900000180040001C00400020004010B501F06C
:102AA0001F030121046A99408C430462016A9A4021
:102AB0001143016210BD10B5846842EA032224F478
:102AC0007F440A432243826010BD826822F0700274
:102AD0000A4342F00701816070470000F0B5026AC6
:102AE00022F001020262036A42688469124E24F0F5
:102AF00073050C682C4323F002058B682B430D4DA6
:102B0000A84201D0B04205D123F00807CB683B436F
:102B100023F00403A84201D0B04205D14D6922F44C
:102B2000407215438A692A4342608461496841635F
:102B30000362F0BD0000014000040140F0B5026AEC
:102B400022F010020262026A436884690D6824F46C
:102B5000E64444EA05248D6822F0200242EA051288
:102B60000F4D104EA84201D0B04206D1CF6822F0DE
:102B7000800242EA071222F04002A84201D0B0428D
:102B800007D14D6923F4406343EA85038D6943EA25
:102B9000850343608461496881630262F0BD00007F
:102BA0000000014000040140F0B5026A22F4807286
:102BB0000262026A4368C46922F4007224F0730559
:102BC0000C68124E2C438D6842EA05220E4DA84235
:102BD00001D0B04206D1CF6822F4006242EA072257
:102BE00022F48062A84201D0B04207D14D6923F49B
:102BF000405343EA05138D6943EA05134360C461FA
:102C00004968C1630262F0BD000001400004014058
:102C100030B5026A22F480520262046A4268C369D3
:102C20000D6823F4E64343EA05238D6824F4005439
:102C300044EA0534084DA84202D0084DA84204D108
:102C40004D6922F4804242EA85124260C3614968BC
:102C50000164046230BD0000000001400004014036
:102C600010B5036A046A24F001040462846924F044
:102C7000F00444EA021423F00A020A438461026267
:102C800010BD10B5036A23F0100303628369046A60
:102C900023F4704343EA023224F0A00343EA011113
:102CA0008261016210BD70B5846B2068406994F840
:102CB0003D10C0F3C0100025212904D118B1E584CE
:102CC000204600F08AF82068406994F83E10C0F36E
:102CD0008010222904D118B1E585204600F056F86D
:102CE000206C40F0100020642046FFF7E6F970BD2C
:102CF00010B50146806B09680968C9052FD4002109
:102D0000C18501680C3151E8002F22F4807241E83E
:102D10000023002BF5D10168143151E8002F22F077
:102D2000010241E80023002BF5D10168143151E87C
:102D3000002F22F0400241E80023002BF5D1202192
:102D400080F83E10016B012909D101680C3151E86E
:102D5000002F22F0100241E80023002BF5D1016B77
:102D6000012902D0FFF7B7FA10BD818DFFF7A4F952
:102D700010BD10B5806B016B012902D0FFF7ACFAD2
:102D800010BD818D4908FFF797F910BD01680C311E
:102D900051E8002F22F4907241E80023002BF5D176
:102DA0000168143151E8002F22F0010241E80023AC
:102DB000002BF5D1016B012909D101680C3151E8D3
:102DC000002F22F0100241E80023002BF5D1202132
:102DD00080F83E1000210163704701680C3151E812
:102DE000002F22F0C00241E80023002BF5D1202162
:102DF00080F83D107047000070B504460068016916
:102E0000E26821F44051114301612169A068E2693F
:102E100008436169114308432168CA6849F20C6399
:102E20009A430243CA6020684169A26921F4407153
:102E30001143416131492068884202D030498842BB
:102E400002D1FEF7ADFC01E0FEF79AFCE269002337
:102E5000192164253226B2F5004F626828D0A0FB04
:102E60000101930F9200FDF77FFA0146B0FBF5F0E8
:102E70006FF01802504301EB800006EB0010B0FB2E
:102E8000F5F000F0F002B1FBF5F002EB0012B1FB3F
:102E9000F5F06FF01803584301EB800006EB0010CB
:102EA000B0FBF5F000F00F0021681044886070BDA1
:102EB000A0FB010192185B41FDF756FA0146B0FBF9
:102EC000F5F00201B1FBF5F06FF01803584301EB88
:102ED000800006EBC000B0FBF5F000F0F80002EB5C
:102EE0004002B1FBF5F0584301EB800006EBC00057
:102EF000B0FBF5F000F00700D6E70000001001403D
:102F00000014014038B581628285002513460446CD
:102F10000564222084F83E00A26B1B48D063A26B9C
:102F20001A481064A26B1A48D064A06B0A46056563
:102F30002168A06B091DFEF7ABF9206801684068A5
:102F4000009084F83C5020680C3050E8001F41F499
:102F5000807140E80012002AF5D12068143050E852
:102F6000001F41F0010140E80012002AF5D120685D
:102F7000143050E8001F41F0400140E80012002AE0
:102F8000F5D1002038BD0000F12C0008732D000899
:102F9000A72C000810B5252221492248FFF786F901
:102FA0001F48A0F16001027F202A15D0303AC37F6C
:102FB00002EB4204C4EBC21203EBC202437F64245F
:102FC00013FB04F3807F00EB800003EB4000104410
:102FD000A0F5A050D0381FE0427F202A10D0C37F38
:102FE000303A02EBC20404EB0212807F03EB820250
:102FF00000EB80004FF6F05303EB400010440BE071
:10300000827FC07F202A09D0303A02EB82026FF023
:103010002F0303EB42021044C88210BD3038FBE797
:103020005C06002070040020264818B4006801687F
:10303000890604D501684068009018BC7047224991
:103040000968C906F9D501684068204A00901068EF
:1030500001684FF024030C031D49046824F00104A7
:10306000046016D410684468C4F12404A4B20C802F
:1030700043601068016841F4002101601068016834
:1030800041F001010160122CD7D1124901F1180061
:1030900015E014686068C0F1240080B208806360A5
:1030A0000D498B6A23F400238B6211680A6842F091
:1030B00001020A601228C0D1064901F13C0018BC87
:1030C00001F02DBBB4040020004800409C05002006
:1030D00014000020FC05002000600240FEE7090704
:1030E000090E002804DB00F1E02080F8001470478E
:1030F00000F00F0000F1E02080F8141D7047000080
:103100000C48018E012911D15F219FED0B0A80ED42
:103110000E0A9FED0A0A80ED0F0AA0F8401090F801
:103120002E1021B15FF00001A0F84210704701217C
:10313000FAE70000E40A0020000048C300002F4422
:1031400070B5344800210123B0F92A6086850268F1
:10315000948AB4F5807F0DD0A0F82A102D4DB0F9D7
:103160002A40B5F92850A64201D0012C04D0012DE7
:1031700005D011E04385F1E7012D0CD00385254CE6
:10318000968AB4F93250B4F93610B4F93440B6F531
:10319000006F06D00FE00185018641868186C186D9
:1031A00070BD068E002EFBD1002DF9D1002CF7D179
:1031B0000029F5D10386968AB6F5805F09D1068E7F
:1031C000002EEDD1002DEBD1002CE9D10029E7D163
:1031D0004386958AB5F5005F0AD1058E002DDFD1B3
:1031E000458E002DDCD1002CDAD10029D8D1838680
:1031F000928AB2F5004FD3D1028E002AD0D1428EEE
:10320000002ACDD1828E002ACAD10029C8D1C38616
:1032100070BD0000E40A002000B58BB00020012141
:10322000CDE906010891009001900290039005906D
:10323000049069460C48FDF793FA0B48FDF7BAFE77
:1032400002210948FDF70BFA0E2009900590694606
:103250000648FDF785FA0548FDF7ACFE0221034854
:10326000FDF7FDF90BB000BDD803002000040020DD
:1032700000200649024600BF00EB400301EB830338
:10328000401C5A810828F7DB7047000084060020A4
:10329000124808B54FF40071016000218160C160DF
:1032A00008210161A0F164010D4831F83C2F130A97
:1032B000037042704A88130A8370C2700A8A130A24
:1032C00003714271498A6B460A0A8271C1710246D2
:1032D00002490448FDF7D5F908BD0000CC0A0020DA
:1032E00004010020D80300206B486C4900220270C2
:1032F00091ED080A80ED010A91ED090A80ED020ABC
:1033000091ED0A0A80ED030A91ED0B0A80ED040AA3
:1033100091ED0C0A80ED050A9FED610A80ED0E0A21
:1033200080ED0D0A80ED0C0A80ED080A80ED0B0A95
:1033300080ED0A0A80ED090A80ED110A80ED100A7D
:1033400080ED0F0A80F84820D1ED0D0AC0ED130A78
:10335000D1ED0E0AC0ED140AD1ED0F0AC0ED150A29
:10336000D1ED100AC0ED160AD1ED110AC0ED170A11
:1033700080ED200A80ED1F0A80ED1E0A80ED1A0AFA
:1033800080ED1D0A80ED1C0A80ED1B0A80ED230AEA
:1033900080ED220A80ED210A80F89020D1ED120AFA
:1033A000C0ED250AD1ED130AC0ED260AD1ED140AAD
:1033B000C0ED270AD1ED150AC0ED280AD1ED160A95
:1033C000C0ED290A80ED320A80ED310A80ED300A25
:1033D00080ED2C0A80ED2F0A80ED2E0A80ED2D0A5B
:1033E00080ED350A80ED340A80ED330A80F8D8206C
:1033F000D1ED170AC0ED370AD1ED180AC0ED380A31
:10340000D1ED190AC0ED390AD1ED1A0AC0ED3A0A18
:10341000D1ED1B0AC0ED3B0A80ED440A80ED430A62
:1034200080ED420A80ED3E0A80ED410A80ED400ABF
:1034300080ED3F0A80ED470A80ED460A80ED450A9F
:1034400080F82021D1ED1C0AC0ED490AD1ED1D0AFA
:10345000C0ED4A0AD1ED1E0AC0ED4B0AD1ED1F0A9C
:103460008031C0ED4C0AD1ED000AC0ED4D0A80ED6F
:10347000560A80ED550A80ED540A80ED500A80ED21
:10348000530A80ED520A80ED510A80ED590A80ED11
:10349000580A80ED570A7047800700201C00002062
:1034A0000000000070B500F021FB0E4C9FED0E0AED
:1034B0002060012060850020208520866086A0860F
:1034C000E08684ED0E0A84ED0F0AA4F8420005465A
:1034D000E8B200F003FB04EB85016D1C4860082D89
:1034E000F6DB70BDE40A002000000000114808B5BA
:1034F0004FF40071016000218160C1600821016109
:10350000A0F508710C480A8F130A037042704A8FA5
:10351000130A8370C2708A8F130A03714271C98FB4
:103520006B460A0A8271C171024602490348FDF7DF
:10353000A8F808BD30090020A000002000040020E9
:1035400070B5794C04F5C87560684088A4F85200DD
:10355000A0684088A4F85400E0684088A4F85600A9
:1035600020694088A4F85800606990ED030A84ED52
:10357000130A94F85A00C8B994ED1A0A636BBDEEA9
:10358000C00A10EE100A94ED190A02B2BDEEC00A8C
:1035900010EE100A01B228469847BDEEC00A10EEA0
:1035A000100AA4F840004042A4F8420094F95A20BE
:1035B0004FF4BE714842012A02D0022A05D008E029
:1035C000A4F84010A4F8420003E0A4F84000A4F8D6
:1035D0004210E069018D01291DD194ED190AB0F95D
:1035E0004020636BBDEEC00A10EE100A01B22846FF
:1035F0009847BDEEC00A10EE100AA4F84000404201
:10360000A4F84200E069B0F9400000EE100AB8EEFC
:10361000C00A84ED1A0AB4F94020B4F952104248A5
:1036200054F8343F70309847BDEEC00A10EE100ACF
:10363000A0803D482368B4F90E20B4F92010B830BA
:103640009847BDEEC00A4FF43E614A4210EE100AA0
:10365000E08094F92800343C20B1032806D00428E7
:1036600007D008E00020A4F8480004E0A4F84810BF
:1036700001E0A4F84820E069038D012B17D194EDF7
:103680001B0AD0ED0F0A294D70EE600A10EE903A39
:10369000AB4201D9A4F84810D0ED0F0A244930EE0E
:1036A000600A10EE100A884201DDA4F84820636B1E
:1036B000B4F94820B4F956101E489847BDEEC00A28
:1036C00010EE100AA0871C4894F95D204142062A9A
:1036D00002D0052A0AD00AE04EF24852A4F850203F
:1036E000164BE08740F2DC525A8100E0E187E26944
:1036F000138D012B0CD1B2F84220012A09D0216987
:10370000B1F902103B31772901D34DF6F000E08783
:1037100070BD2069B0F902003B30772801D2E18703
:1037200070BD42F21070F2E7100700200000A0C048
:103730000000A040100800206CEEFFFF1C000020DD
:1037400070B51B4C194860621A48A0621A48E062C2
:103750001A4820631A48606300F0C8F9206000F03E
:10376000B9F9E061FFF7C0FD0025284600F0B6F981
:1037700004EB85016D1CEDB24860042DF5D30020EB
:1037800084F85A0084F85C00052184F85D109FEDF0
:103790000D0A0D4984ED190A84ED1B0A487084ED69
:1037A0001A0A40F2DC50488170BD0000CD37000895
:1037B00010070020AD38000841350008ED3400083E
:1037C00065270008000000001C00002070B5314E85
:1037D0004FF480552DED068B29463046FDF788FEC7
:1037E0002D4C10B9002084F8600029463046FDF7C2
:1037F0007FFE012801D184F8600065684FF4B47140
:103800002888484301F061FD9FED248B53EC182B71
:1038100001F0ECFB9FED23AB53EC1A2B01F068FD9C
:1038200041EC190B68894FF4B47110FB01F001F001
:1038300035FD53EC182B01F0D9FB53EC192B01F09B
:103840002DFB01F0F9FA6066E5684FF4B471288841
:10385000484301F03AFD53EC182B01F0C7FB53EC41
:103860001A2B01F045FD41EC190B68894FF4B47136
:1038700010FB01F001F012FD53EC182B01F0B6FB28
:1038800053EC192B01F00AFB01F0D6FAE066BDEC0F
:10389000068B70BD000402401007002000000000ED
:1038A00000003340000000000000203FF0B56E49EA
:1038B0006E4A084691F95A6081F85B6092F90050AF
:1038C00002270124006800232DB1B0F814C0BCF514
:1038D000005F1BD026E090F80BC0BCF1010F23D194
:1038E00090F80AC0BCF1020F1ED1B0F906C0BCF1BD
:1038F000000F01DD81F85A40B0F906C0BCF1000F9D
:1039000001DA81F85A70C78867B10DE0B0F90EC0CE
:10391000BCF1000F02DA81F85A4005E002DD81F8BF
:103920005A7001E081F85A3091ED190AD2ED040A7B
:10393000B4EEE00AF1EE10FA05DB91F85A70012FAF
:1039400001D181F85A30D2ED050AB4EEE00AF1EE69
:1039500010FA05D891F85A70022F01D181F85A3027
:1039600091F95A70BE4201D081ED1A0A032704264C
:103970002DB1B0F814C0BCF5805F19D027E090F8E5
:103980000BC0BCF1010F22D190F80AC0BCF1030FAB
:103990001DD1B0F906C0BCF1000F01DD81F85C70EB
:1039A000B0F90670002F01DA81F85C60C6880DE07E
:1039B000B0F90EC0BCF1000F01DA81F85C70B0F90B
:1039C0000E70002F01DD81F85C60C6890EB981F8A8
:1039D0005C3091ED1B0AD2ED070AB4EEE00AF1EE7D
:1039E00010FA05D291F85C60042E01D181F85C30A8
:1039F000D2ED060AB4EEE00AF1EE10FA05DD91F818
:103A00005C60032E01D181F85C300526062795B154
:103A100092F901509570808AB0F5004F1ED0537016
:103A200092F90100854218D0012816D191F85D0065
:103A3000062815D00FE0C27A012A0ED1827A012A17
:103A40000BD1B0F90620002A01DD81F85D60B0F9E4
:103A50000600002801DA81F85D70F0BD5470DFE7E0
:103A600081F85D60F0BD0000100700201C00002000
:103A70000A4C09482062FFF763FE00BF00F010F80F
:103A800000F0B0FB606A8047A06A8047E06A804728
:103A9000206B8047F2E70000413700081007002044
:103AA000094801680948CA7A032A02D1897A032998
:103AB00007D000218181027B4FF480410448FDF74B
:103AC0001CBD0121F6E70000100700201C000020AB
:103AD0000004024000487047E40A0020024900EB5D
:103AE000400001EB800070478406002000487047CA
:103AF000FC050020F8B1D0ED101A00EE102AC0ED40
:103B0000111AD0ED0F0AB8EEC00AC0ED100A80ED10
:103B1000060A00EE101A511AB8EEC00A80ED070A24
:103B200000EE101AB8EEC00A80ED0F0A017829B134
:103B3000012939D076E09FED3D0A704790ED011ADA
:103B400061EE001AC0ED091A90ED0A1A90ED022AF2
:103B500002EE001A30EE600A80ED0A1A90ED0D2A8E
:103B600080ED0E2A90ED0C2A80ED0D2A80ED0C0AD6
:103B7000D0ED030A60EE800AC0ED0B0A90ED050A55
:103B8000B4EEC01AF1EE10FA09DCB1EE400AB4EE60
:103B9000C01AF1EE10FA02D390ED0A0A01E080EDAE
:103BA0000A0A31EE800A29E030EE601A90ED012A0F
:103BB00021EE021A80ED091A90ED022A22EE002A67
:103BC00080ED0A2AD0ED0D2AC0ED0E2AD0ED0C2A88
:103BD000C0ED0D2AF0EE002A00EEE20A30EE210AD6
:103BE00080ED0C0AD0ED030A20EE800A71EE020A85
:103BF00080ED0B0A30EE800AD0ED080A30EE200A84
:103C000080ED080AD0ED040AB4EEE00AF1EE10FAF5
:103C100006DCF1EE600AB4EEE00AF1EE10FA01D231
:103C2000C0ED080A90ED080A70470000000000008F
:103C3000564857490022027091ED030A80ED010AAF
:103C400091ED040A80ED020A91ED050A80ED030A68
:103C500091ED060A80ED040A91ED070A80ED050A50
:103C60009FED4C0A80ED0E0A80ED0D0A80ED0C0AE6
:103C700080ED080A80ED0B0A80ED0A0A80ED090A42
:103C800080ED110A80ED100A80ED0F0A80F84820BF
:103C9000D1ED080AC0ED130AD1ED090AC0ED140AEE
:103CA000D1ED0A0AC0ED150AD1ED0B0AC0ED160AD6
:103CB000D1ED0C0AC0ED170A80ED200A80ED1F0A35
:103CC00080ED1E0A80ED1A0A80ED1D0A80ED1C0AA7
:103CD00080ED1B0A80ED230A80ED220A80ED210A87
:103CE00080F89020D1ED0D0AC0ED250AD1ED0E0A25
:103CF000C0ED260AD1ED0F0AC0ED270AD1ED100A5A
:103D0000C0ED280AD1ED110AC0ED290A80ED320A72
:103D100080ED310A80ED300A80ED2C0A80ED2F0A0B
:103D200080ED2E0A80ED2D0A80ED350A80ED340AF3
:103D300080ED330A80F8D820D1ED120AC0ED370AA1
:103D4000D1ED130AC0ED380AD1ED140AC0ED390ADD
:103D5000D1ED150AC0ED3A0AD1ED160AC0ED3B0AC5
:103D600080ED440A80ED430A80ED420A80ED3E0A70
:103D700080ED410A80ED400A80ED3F0A80ED470A60
:103D800080ED460A80ED450A704700004809002092
:103D9000A8000020000000002DE9F0473F4C404DF6
:103DA0004FF0BE0860686E426FF0BD09B0F90210B6
:103DB000A4F84410A0686FF0F6024088A4F846000A
:103DC000E0684088A4F8540020694088A4F85600B0
:103DD0000020A087E087A06CF72350B101280DD008
:103DE000022810D0052804D06069078D012F0FD05C
:103DF0003AE0A4F84020A4F84230F5E7A4F8405097
:103E0000A4F84260F0E7A4F84080A4F84290EBE701
:103E100094ED180AD0ED0E0A224F70EE600A10EEF3
:103E200090CABC4503DDA4F84050A4F84260D0ED30
:103E30000E0A1D4D70EE600A10EE906AAE4203D974
:103E4000A4F84080A4F84290D0ED0E0A30EE600A4B
:103E500010EE100AB84207DA10EE100AA84203D298
:103E6000A4F84020A4F84230B4F9402054F8303F80
:103E70000E489847BDEEC00A10EE100AA0810B480C
:103E80002368B4F91220B4F9161048309847BDEEF3
:103E9000C00A10EE100AE081BDE8F087680A002031
:103EA0008CFBFFFF0000A0400000A0C048090020DC
:103EB00070B5FFF71BFE154C0026354620601448F0
:103EC0002062144860621448A0621448E062A6644C
:103ED0001348A6656063281DC0B2FFF7FFFD04EB21
:103EE00085016D1CEDB24860042DF4D3FFF7F2FD9F
:103EF00060610C48E061FFF79BFE0B4820639FED7B
:103F00000B0A84F85C6084ED180A70BD680A002012
:103F1000313F0008993D0008954100082141000803
:103F200091320008313C0008F53A0008000000001A
:103F300070B5214B214801251E780224016800221A
:103F400026B18E8AB6F5006F0FD01AE0CE7A032E16
:103F500018D18E7A032E15D1B1F90610002901DD92
:103F600085640FE00DDA84640CE0B1F90E60002E78
:103F700000DA8564B1F90E50002D00DD8464C98932
:103F800001B9826490ED180AD3ED010AB4EEE00A9B
:103F9000F1EE10FA03DD816C022900D18264D3EDC9
:103FA000020AB4EEE00AF1EE10FA03D2816C0129A4
:103FB00000D1826470BD0000A8000020680A0020C3
:103FC000FDF7AEFAFEF7B4FCFEF772FAFEF7D2F98F
:103FD000FEF714FAFEF78AFBFEF7FEFAFEF76AFB1D
:103FE000FEF7EAF9FEF7A0FB00F08AFBFFF714F9F1
:103FF000FFF73EF90748FDF793FE00210548FDF75E
:10400000F7FF04210348FDF7F3FFFEF71DFA00F068
:104010001DF9FEE72804002001460020842900D075
:10402000C81C704770B5394C4FF4B4712DED068B38
:1040300065682888484301F048F99FED358B53ECBB
:10404000182B00F0D3FF9FED349B53EC192B01F09C
:104050004FF941EC1A0B68894FF4B47110FB01F071
:1040600001F01CF953EC182B00F0C0FF53EC1A2B95
:1040700000F014FF00F0E0FE6064E5684FF4B471F6
:104080002888484301F021F953EC182B00F0AEFFCB
:1040900053EC192B01F02CF941EC1A0B68894FF401
:1040A000B47110FB01F001F0F9F853EC182B00F09B
:1040B0009DFF53EC1A2B00F0F1FE00F0BDFEE06412
:1040C00065694FF4B4712888484301F0FEF853EC59
:1040D000182B00F08BFF53EC192B01F009F941EC80
:1040E000190B68894FF4B47110FB01F001F0D6F898
:1040F00053EC182B00F07AFF53EC192B00F0CEFE96
:1041000000F09AFEA064BDEC068B70BDE40A0020AE
:104110000000000000003340000000000000203FCD
:1041200010B51B4CA06D38B142F210714A42032801
:1041300008D004280BD00EE00020A4F85000A4F80A
:10414000520008E0A4F85010A4F8522003E0A4F8AC
:104150005020A4F85210B4F95020B4F954100C486F
:1041600054F8303F90389847BDEEC00A10EE100A60
:10417000A08307482368B4F92220B4F926104838F0
:104180009847BDEEC00A10EE100AE08310BD000093
:10419000680A002030B51148002203230578104832
:1041A000042401683DB18D8A402D0FD1B1F9101062
:1041B00000290DDC10E0CD7A032D0BD18D7A012D75
:1041C00008D1B1F90610002901DD836530BD01DA9F
:1041D000846530BD826530BDFCDAF6E7A8000020BA
:1041E000680A0020164810B5164990F9032002719C
:1041F0000968B1F9104063B2C370898A802918D167
:104200000146002CB1F90A1003DD9A4206D0C831EC
:1042100003E003DA9A4201D0C8394181B0F90A209B
:1042200040F6C4118A4203DC4FF4FA718A4200DA84
:1042300041810549B0F90A000968486310BD0000D2
:104240001C000020100700202804002010B500F0FA
:10425000C9FB002010BD7FB50D4604464169B0F989
:10426000080081B1A16971B1FFF7D6FED4E905124A
:104270008DE80700D4E900102B46226900F0DBFC32
:10428000039004B070BDFFF7C7FE03A9CDE900019C
:10429000208A2B4682B2D4E9001000F09FFC01284E
:1042A00001D00020EDE70398EBE700002DE9F04195
:1042B000184C0F460546E6682068001D00F0A4FA79
:1042C00038B9206890F82C1001208840216981437A
:1042D0002161681C07D137B12168BDE8F0410E4863
:1042E000091D00F0D5BA20683544B5424560216803
:1042F00005D2A06BBDE8F041091D00F0B1BA606BBA
:10430000091D00F0ADFAA06A854200D2A562BDE8A1
:10431000F08100001C010020280C00202DE9F04154
:10432000054600F0C1FA2E4CA068401CA060206831
:104330002C4F10B1606940B32DE02560A0680128C2
:1043400029D1002606EB860007EB800000F07AFA00
:10435000761C072EF6D323488C3000F073FA2148E0
:10436000A03000F06FFA1F48B43000F06BFA1D481F
:10437000C83000F067FA1B48DC3000F063FA1948D7
:104380008C3060631430A06305E02068E96AC06A7D
:10439000884200D82560606A401C6062E96A01209A
:1043A000226988401043206101EB810007EB800007
:1043B000291D00F06DFA00F097FA606900280CD012
:1043C0002068E96AC06A884207D207494FF08050E6
:1043D0000860BFF34F8FBFF36F8FBDE8F08100001F
:1043E0001C0100204C0B002004ED00E010B5044639
:1043F00090F8510058B101280CD002280FD050205D
:1044000080F31188BFF34F8FBFF36F8FFEE7206BF0
:1044100000F07EFA2046BDE8104000F079BA10BDE9
:1044200010484FF47051420706D0C01D0D4920F0CE
:104430000700411AC1F570510B4A00230144C2E93B
:1044400000030839183A21F0070111604B600B6036
:104450000B1AC0E9001393604FF0004053605061A5
:10446000704700003C0C002070010020144E154CD9
:10447000A6F1C8074FF08058DFF84C9012E000BF5B
:1044800000F012FAF068C568281D00F0BDF9A068B8
:10449000401EA0606068401E606000F025FA28465B
:1044A000FFF7A4FF60680028EAD138680128F9D92D
:1044B000C9F80080BFF34F8FBFF36F8FF2E70000A2
:1044C000140C00201C01002004ED00E02DE9F04751
:1044D0009A46DDE9098481466FF00303206B03EB04
:1044E00082021044089E20F00707780707D050206A
:1044F00080F31188BFF34F8FBFF36F8FFEE7002566
:1045000061B1002023180A5C83F834200A5C12B1E0
:10451000401C1028F6D384F8435001E084F834504E
:10452000072E00D30626E662C4E91165201D00F0BF
:1045300094F904F1180000F090F92461C6F1070025
:104540006462A061E56484F850505246494638469A
:1045500000F0C0F82060B8F1000F01D0C8F80040AA
:10456000BDE8F08730B5114900E011460A68824283
:10457000FBD34B685C18844203D140681844486000
:10458000084643681C18944209D1084C183C24681A
:10459000A24209D052681A4442600A681268026056
:1045A000814200D0086030BD0460F9E7700100204E
:1045B0000648416B096829B1416BC968C9684968F7
:1045C000816270474FF0FF31FAE700001C010020C4
:1045D00008484068401C4FF0500080F3118804D018
:1045E000BFF34F8FBFF36F8FFEE7BFF34F8FBFF364
:1045F0006F8FFEE7780100202DE9F0410546002786
:1046000000F026FA324E306808B9FFF709FF7069EA
:1046100005424ED1C5B3083568070ED005F0070036
:10462000C0F108000544680707D0502080F31188C6
:10463000BFF34F8FBFF36F8FFEE72DB370688542D6
:1046400037D82348183001460C6801E020460C4654
:104650006168A94202D221680029F7D131688C42F1
:1046600027D007682168016060680837411B10295E
:104670000FD96019420708D0502080F31188BFF38A
:104680004F8FBFF36F8FFEE713E041606560FFF768
:1046900069FF61687068401A7060B268904200D229
:1046A000B060706901430020C4E90001F068401C5B
:1046B000F06000F05FFB780707D0502080F311888E
:1046C000BFF34F8FBFF36F8FFEE73846BDE8F08131
:1046D0005801002010B5031F4FF080741C601B1F91
:1046E00021F001011960191F044B0B6014390A6095
:1046F000091F6FF0020244380A6010BDD14500085E
:1047000002492422A1F12400FEF7CAB8380600208D
:10471000FFF7F6FFFEF788FCFEF73CFCFAE7F0B582
:10472000002855D0002953D00278437842EA03226A
:10473000C2F30A020A8043788478DB0843EA441310
:10474000C3F30A034B808478C578A40944EA85043E
:10475000057944EA8524C4F30A048C8005794679F6
:104760006D0845EAC615C5F30A05CD804679C6F33E
:1047700001168E724679B609CE728679C77946EAF5
:1047800007268E81067A477A46EA0726CE81867A00
:10479000C77A46EA07260E82067B8E74467BCE7465
:1047A000867BC77B46EA07268E82067C407CA2F584
:1047B00080620A80A3F580634B80A4F5806446EA9A
:1047C00000208C80A5F58065CD80A0F580600881F3
:1047D000F0BD000070B50A4E4FF4805529463046B2
:1047E000FCF786FE074C10B9002084F82E002946FD
:1047F0003046FCF77DFE012801D184F82E0070BD03
:1048000000040240E40A0020D0E9013201699A6004
:10481000D0E901235A604A68824201D182684A6025
:10482000002202610868401E0860086870470000A6
:10483000034B036003F15400086080201060704750
:104840008401002000F108014FF0FF32C0E901129D
:10485000C160016100210160704700210161704762
:1048600030B50B685A1C02D000F1080202E0026960
:1048700004E02246546825689D42FAD953684B608B
:1048800099608A60516008610168491C016030BD0F
:1048900042684A6093688B609368596091600861D0
:1048A0000168491C01607047502080F31188BFF3F4
:1048B0004F8FBFF36F8F0A494868401C486001283A
:1048C0000CD10848006810F0FF0F07D0502080F38B
:1048D0001188BFF34F8FBFF36F8FFEE77047000063
:1048E0007801002004ED00E00849486828B1401E26
:1048F000486001D180F311887047502080F31188FF
:10490000BFF34F8FBFF36F8FFEE7000078010020E9
:1049100070B500282AD0164DA0F1080460686969B6
:10492000084207D1502080F31188BFF34F8FBFF3A7
:104930006F8FFEE722683AB1502080F31188BFF3F1
:104940004F8FBFF36F8FFEE78843606000F080F801
:1049500060686968084468602046FFF703FE2869BC
:10496000401C2861BDE8704000F004BA70BD000032
:10497000580100204FF0E0200021016181610549CC
:104980004FF47A720968B1FBF2F1491E41610721C7
:10499000016170471801002010B5020014D00F48C3
:1049A000006B38B1502080F31188BFF34F8FBFF3F5
:1049B0006F8FFEE700F04CF800211046FFF776FC01
:1049C00000F0D8F9002807D105494FF08050086061
:1049D000BFF34F8FBFF36F8F10BD00001C0100208D
:1049E00004ED00E010B586B00024039405AA04A9E4
:1049F00003A80494FFF71CFFDDE903010094CDE94F
:104A0000011000230EA11048059A00F014F90F4977
:104A10000028C86211D0502080F31188BFF34F8F57
:104A2000BFF36F8F4FF0FF30886201204861CC6088
:104A300006B0BDE8104000F041B806B010BD00005F
:104A400049444C45000000006D4400081C01002052
:104A50000248016B491C0163704700001C010020E3
:104A60001448016B11B10121C16170470021C1617E
:104A70000169B1FA81F1C1F11F0101EB81020E4917
:104A800051F822306BB101EB820101F108034A6851
:104A900052684A609A4201D152684A60D168016006
:104AA0007047502080F31188BFF34F8FBFF36F8F93
:104AB000FEE700001C0100204C0B00201CB537480D
:104AC0000168374A914207D1502080F31188BFF323
:104AD0004F8FBFF36F8FFEE700683149491E884250
:104AE00007D1502080F31188BFF34F8FBFF36F8F32
:104AF000FEE72C4908780190FF20087008788DF8AF
:104B000000009DF800009DF8002000F0F0009042A9
:104B100007D0502080F31188BFF34F8FBFF36F8F02
:104B2000FEE79DF80000204C00F0500020700720A8
:104B3000A06005E09DF8002052008DF80020401E86
:104B40009DF800201206F5D4A060032807D050205D
:104B500080F31188BFF34F8FBFF36F8FFEE74FF4E1
:104B60004070A060019808700C482030016841F442
:104B700070010160016841F070410160FFF7FAFEC9
:104B800000206060FBF794FB0848016841F0404159
:104B90000160FBF779FB00201CBD000000ED00E088
:104BA00071C20F4100E400E07801002034EF00E022
:104BB00010B5502080F31188BFF34F8FBFF36F8F74
:104BC00000F072F818B104494FF0805008600020DE
:104BD00080F3118810BD000004ED00E02DE9FF5FB7
:104BE0008346DDE90E87994616468A469000FFF710
:104BF00003FD05001CD05420FFF7FEFC040014D078
:104C00000020256384F85100CDE90240CDE90087FA
:104C10004B46324651465846FFF758FC2046FFF7B0
:104C20007DFB012004B0BDE8F09F2846FFF770FE31
:104C30004FF0FF30F6E7F0B585B0DDE90B640A9D73
:104C4000A6B1DCB1542700972663022684F8516090
:104C5000002604AFCDE90246CDE90057FFF736FC48
:104C60002046FFF75BFB049805B0F0BD502080F3B1
:104C70001188BFF34F8FBFF36F8FFEE7502080F393
:104C80001188BFF34F8FBFF36F8FFEE7054841696F
:104C900019B1006B18B10020704701207047022045
:104CA000704700001C0100202DE9F0412F4C002628
:104CB000206B28B1A069401CA0613046BDE8F0819E
:104CC000E5686D1CE56013D1606B006838B1502059
:104CD00080F31188BFF34F8FBFF36F8FFEE7606BD8
:104CE000A16B6163A063206A401C2062FFF760FC37
:104CF000A06ADFF87C80854209D3606B0068A0B1B0
:104D0000606BC068C7687868854211D2A06220686D
:104D1000C06A00EB800158F82100012800D9012663
:104D2000E0690028C9D00126C7E74FF0FF30EDE762
:104D3000381DFFF769FDB86A18B107F11800FFF7D1
:104D400063FDF96A0120226988401043206101EB6C
:104D5000810108EB8100391DFFF79AFDF86A21688F
:104D6000C96A8842C9D30126C7E700001C01002098
:104D70004C0B00202DE9F0472C4D00242746286BD2
:104D800038B1FFF791FD286B401E2863286B40B1B6
:104D900046E0502080F31188BFF34F8FBFF36F8F31
:104DA000FEE7A968224E0120D1B3A6F1B4098046DE
:104DB0003068E8B1F068C46804F11800FFF724FD1A
:104DC000201DFFF721FDE06A2A6908FA00F111436E
:104DD000296100EB800109EB8100211DFFF758FDDF
:104DE000E06A2968C96A8842E2D3C5F81C80DFE717
:104DF0000CB1FFF7DDFBAC6944B14646FFF754FF49
:104E000000B1EE61641EF9D10020A861E86938B1F3
:104E10000849012738070860BFF34F8FBFF36F8F32
:104E2000FFF762FD3846BDE8F08700001C01002056
:104E3000000C002004ED00E021F00042A2F16052DD
:104E4000B2F5801F01F0004328BFD2F17F6C0BD96F
:104E50005FEA001C43EAC20242EB507018BF704781
:104E600028BF20F001007047B2F5801FBCBF184674
:104E700070474FEA410C1CF5001F02D2084600F0B3
:104E800024BC70B500F0DEFA00000089FFF7F6BF21
:104E90004FF00040A0F580007047000010B591EA87
:104EA000030F48BF83F0004300F12883841A71EB9D
:104EB000030C05D2121943EB0C03001B61EB0C0130
:104EC000DFF824E14FEA1154A4EB135C1EEA430F10
:104ED00018BF9EEA445F73D023EA0E03DCF1200E74
:104EE00021EA045143F4801332D322FA0CFE10EB72
:104EF0000E0023FA0CFE41EB0E01CCF1200E03FA5A
:104F00000EFE10EB0E0051F10001B1F5801FCCF147
:104F1000200E32D201EB045112FA0EF2BDE810401D
:104F200058BF7047401C38BF5FEA420218BF704745
:104F3000002814BF20F0010041F100014FEA4103B5
:104F400013F5001F38BF7047A1F1C04100F0C8BA87
:104F5000012A43EB0302ACF1200CDCF11F0E32BF3F
:104F60004FF0000E23FA0CF310EB030041EB045159
:104F7000B4EB115FD0D0A1EB045101F580114908C9
:104F80005FEA300001EB04510ED350F1000038BF4E
:104F900012FA0EFE08D1BDE81040C9E7401C38BF28
:104FA0005FEA4202CAD1C3E7BDE810404FEA4103BD
:104FB00013F5001F38BF7047A1F1C04100F090BA4F
:104FC0009EEA445F08D011EA5E0FBDE8104004BFBE
:104FD00001F0004100207047BDE8104070B500F0BE
:104FE00031FA00BF64FBBE3E0000E0FF2DE9C04186
:104FF00030B4DFF8A0C23CEA111418BF3CEA131425
:1050000000F0EC8081EA03051CEA111444EAD5742F
:1050100018BF1CEA131500F0C780A4EB05044FF07D
:10502000004545EAC12145EAC32341EA505143EA1C
:10503000525304F17F74994204F500344FEAC020C2
:105040004FEAC22208BF904200F09C804FEA1365ED
:105050000FF24016765D4FEA134506FB05F7C7F1E0
:10506000807706FB07F74FEAD737A7FB036876423E
:10507000C8F58038A7FB06CE38BFA8F1010807FBAA
:1050800008E64FF0000EA6FB028CE6FB03CEDCF137
:10509000000CCEF1004E38BFAEF1010EA6FB0C584D
:1050A0004FF000074FF00005E6FB0E87A1FB08C696
:1050B000A0FB07CE16EB0E0645F10005E1FB0765E8
:1050C00015F1E04E7EBFA4F580345FEA46066D41DF
:1050D00016F1800745F100054FEA17274FEA0666EB
:1050E00047EA0567A6F1DE46B6F1805F4FEA15256F
:1050F0001FD9384624F0010C05EBC471BCF1FE6FDA
:1051000001EB0C1102D8F0BCBDE8008124425CBF69
:1051100001F5801E9EEAC47F02D4F0BCBDE8008188
:10512000244238D4F0BCA1F1C041BDE8004100F0F8
:10513000D7B94FEAD22242EA43524FEAD323A7FB20
:1051400002864FEAD02040EA415007FB03661EEA80
:105150000E0F4FEAD12105FB026658BFA6EB0056A1
:10516000B6EB00564FEA520E4EEAC37E18EB0E0E17
:1051700056EB530EBDD518EB02085E417F1C55F16E
:105180000005B6E74FF480154FF000074FF000061A
:105190004FF00008ADE7F0BC4FF0000001F1C04156
:1051A00001F00041BDE8008111EA0C1F0CEA131563
:1051B00000D00CE013EA0C1F00F025804FF0000037
:1051C000F0BC81EA030101F00041BDE80081F0BCC0
:1051D000BDE8004181EA030100F082B9F0BCBDE8FE
:1051E000004170B500F02EF9097EFC3E00F007B8D2
:1051F00081EA03014FF0000001F00041704781EAAD
:10520000030100F06DB9F0BCBDE800414FF00000B3
:1052100021497047FFFDFBF9F7F5F4F2F0EEEDEBF5
:10522000E9E8E6E4E3E1E0DEDDDBDAD8D7D5D4D3A4
:10523000D1D0CFCDCCCBCAC8C7C6C5C4C2C1C0BFF0
:10524000BEBDBCBBBAB9B8B7B6B5B4B3B2B1B0AFF6
:10525000AEADACABAAA9A8A8A7A6A5A4A3A3A2A1DA
:10526000A09F9F9E9D9C9C9B9A9999989797969595
:1052700095949393929191908F8F8E8E8D8C8C8B31
:105280008B8A8989888887878685858484838382B9
:10529000828181800000FF070000F87F10F000424B
:1052A00048BF4042B0FA80F310FA03F10AD0C3F1CC
:1052B0001D0303F580634FEA415002EB035202EBFA
:1052C000D12170474FF000007047B0FA80F310FA18
:1052D00003F10AD0C3F11D0303F580634FEA415087
:1052E0004FEA035202EBD12170474FF000007047A4
:1052F000DFF848C170B51CEA111E1EBF1CEA131569
:105300009EEA0C0F95EA0C0F00F06F8081EA03040F
:1053100023EA4C134EEAD47E21EA4C1141F4801169
:1053200043F48013AE44A1FB024CA0FB0365AEF135
:105330007F7E361955EB0C05A1FB034C4CF10003A5
:10534000A0FB021C16EB0C06654153F10003094259
:1053500018BF46F0010613F4007F0BD14FEA03316A
:105360004FEA0530340341EA155140EA16506FF018
:1053700003020AE04FEAC3214FEAC520F40241EAE2
:10538000555140EA56506FF0020202EB2E4201EBFB
:10539000025585EACE710AD05FEA440C18BF24F0AA
:1053A000004450F1000041F1000120EAD47040F2C5
:1053B000FE7C624500D270BDA84214BF4FF080440D
:1053C0004FF04044002E08BF0024BEF1806FA8BFFC
:1053D000A1F1C041BDE8704080F282804FF0000032
:1053E00001F1C04101F0004170479EEA0C0F0CEA48
:1053F000131518BF95EA0C0F06D04FF0000081EA94
:10540000030E0EF0004170BD00F01CF88900013E53
:1054100000F007B800F009B84FEA430C5FEA5C5CA3
:1054200008D081EA030100F05BB84FEA410C5FEA63
:105430005C5CF6D14FF00000014970470000FF07A7
:105440000000F87F0EF1020E2EF0030E5EF8046BE2
:10545000364205D4012A43EB030515F5001F12D887
:10546000012841EB010C1CF5001F0CD80ED14FEAAE
:10547000D17C15F5001F0CEB4C0C0CF1020C08BF95
:105480004CEBD37C04E04FF0080C01E04FEAD37CF6
:105490000CEB4C0526FA05F606F00706B6F1040CEF
:1054A00006D20EEB860CBDE870404CF0010C604754
:1054B000DFE80CF0090B02024FF000414FF0000052
:1054C000A1F5002170BD19461046012851EB0104D9
:1054D00018BFD4F5001484BF002001F0004170BD56
:1054E0000808A0F500114FEA3101704710B591EAA4
:1054F000030F48BF83F000433FF5D8AC841A71EB2B
:10550000030C07D212198CF0004C43EB0C03001B68
:1055100061EB0C01DFF8A4E14FEA1154A4EB135C3A
:105520001EEA430F18BF9EEA445F00F0B08023EAF2
:105530006E03524221EA0451C3EB6E0338BF5B1E77
:10554000DCF1200E25D322FA0CFE10EB0E0043FAFC
:105550000CFE41EB0E01CCF1200E03FA0EFE10EB17
:105560000E0051F10001CCF1200E29D412FA0EF2F6
:1055700001EB0451BDE8104058BF7047401C1CBFF0
:10558000B2F1004F704700280CBF491C20F0010009
:10559000704712EB020E43EB030218BF4FF0010EEF
:1055A0004EEA4202ACF1200CDCF11E0E54D943FA53
:1055B0000CFE10EB0E0051F1FF31CCF11E0ED5D5D3
:1055C0000EF1010E12FA0EFE404141EB010101EB1A
:1055D000445C5FEA5C5C10D910EBDE7001EB0451B7
:1055E00038BFBEF1004FBDE8104018BF704700281B
:1055F0000CBF491C20F00100704730D24FEAD42C78
:1056000011F5001124F400641BD0B1FA81F20B3AB9
:10561000A41AA41ED2F12003914030FA03F31943D7
:10562000904001EBCC71002C01EB0451BDE810401F
:10563000A8BF704701F1C0414FF0000001F00041E8
:105640007047B0FA80F310FA03F100D110BDE41AEC
:10565000173C4805C90AE4E701EB045110BD4910A5
:1056600001EB0451BDE810404FEA300002E04FF07A
:10567000000170474A0008BF0042F8D0B2F5001F91
:1056800028BF704701F000414FF0000070479EEACC
:10569000445F07D011EA5E0FBDE8104004BF00214F
:1056A00000207047BDE8104070B5FFF7CBFE00BF8B
:1056B00040DFF63E83F00041104670470000E0FFF7
:1056C0004FF04070E1EE100A7047FF2141EAD050E0
:1056D000C00570477C570008012900080000000041
:1056E000000000008000000000000000000000003A
:1056F0006C570008DD2200080000000000000000D8
:105700008000000000000000000000006457000856
:1057100011470008000000000000000080000000A9
:10572000000000000000000074570008713A0008F3
:1057300000000000000000008000000000000000E9
:105740000000000000061016000610160000000001
:105750000000000001020304060708090000000021
:105760000102030472656D6F746500004C69667414
:10577000696E670063617463680000006465666158
:10578000756C745461736B00A8570008000000200A
:1057900084010000C40100080458000884010020AE
:1057A0001C4D000020020008011C021101237A4355
:1057B00013A0C0244083441B8C420C62411A481839
:1057C000237A460B14803F145A2014411AFA3CE9FC
:1057D000144B7A45141A70544123A0401AC840292A
:1057E00014A98C2320C12302C4AA303C5964091295
:1057F000148940091C1489648210036124F41AAAD4
:045800000141000062
:040000050800018965
:00000001FF
